:10000000201D00205D310000417C00001531000002
:10001000153100001531000015310000000000000E
:10002000000000000000000000000000592800004F
:10003000153100000000000001280000153100000B
:1000400045290000452900004529000045290000F8
:1000500045290000452900004529000045290000E8
:1000600045290000452900004529000045290000D8
:1000700045290000452900004529000045290000C8
:1000800045290000452900004529000045290000B8
:1000900045290000452900004529000045290000A8
:1000A0004529000045290000452900004529000098
:1000B0004529000045290000452900004529000088
:1000C0004529000045290000452900004529000078
:0C00D000452900004529000045290000DA
:1000DC004FF0FF0C1CEAD0521EBF1CEAD15392EA1F
:1000EC000C0F93EA0C0F6FD01A4480EA010C4002FB
:1000FC0018BF5FEA41211ED04FF0006343EA501055
:10010C0043EA5111A0FB01310CF00040B1F5000F96
:10011C003EBF490041EAD3715B0040EA010062F145
:10012C007F02FD2A1DD8B3F1004F40EBC25008BF2F
:10013C0020F00100704790F0000F0CF0004C08BF4D
:10014C0049024CEA502040EA51207F3AC2BFD2F11A
:10015C00FF0340EAC250704740F400004FF0000328
:10016C00013A5DDC12F1190FDCBF00F00040704762
:10017C00C2F10002410021FA02F1C2F1200200FAA0
:10018C0002FC5FEA310040F1000053EA4C0308BF67
:10019C0020EADC70704792F0000F00F0004C02BFB8
:1001AC00400010F4000F013AF9D040EA0C0093F033
:1001BC00000F01F0004C02BF490011F4000F013B8D
:1001CC00F9D041EA0C018FE70CEAD15392EA0C0FFB
:1001DC0018BF93EA0C0F0AD030F0004C18BF31F066
:1001EC00004CD8D180EA010000F00040704790F03C
:1001FC00000F17BF90F0004F084691F0000F91F0E0
:10020C00004F14D092EA0C0F01D142020FD193EAA5
:10021C000C0F03D14B0218BF084608D180EA01002D
:10022C0000F0004040F0FE4040F40000704740F009
:10023C00FE4040F44000704780F0004002E000BFF8
:10024C0081F0004142001FBF5FEA410392EA030FB5
:10025C007FEA226C7FEA236C6AD04FEA1262D2EBFF
:10026C001363C1BFD218414048404140B8BF5B4204
:10027C00192B88BF704710F0004F40F4000020F09D
:10028C007F4018BF404211F0004F41F4000121F0B3
:10029C007F4118BF494292EA030F3FD0A2F10102FD
:1002AC0041FA03FC10EB0C00C3F1200301FA03F13B
:1002BC0000F0004302D5494260EB4000B0F5000F5E
:1002CC0013D3B0F1807F06D340084FEA310102F11D
:1002DC000102FE2A51D2B1F1004F40EBC25008BFCF
:1002EC0020F0010040EA03007047490040EB000099
:1002FC00013A28BFB0F5000FEDD2B0FA80FCACF19A
:10030C00080CB2EB0C0200FA0CF0AABF00EBC250C6
:10031C0052421843BCBFD0401843704792F0000FB4
:10032C0081F4000106BF80F400000132013BB5E707
:10033C004FEA41037FEA226C18BF7FEA236C21D07D
:10034C0092EA030F04D092F0000F08BF08467047E2
:10035C0090EA010F1CBF0020704712F07F4F04D1B0
:10036C00400028BF40F00040704712F100723CBFC3
:10037C0000F50000704700F0004343F0FE4040F4ED
:10038C00000070477FEA226216BF08467FEA2363AB
:10039C000146420206BF5FEA412390EA010F40F496
:1003AC00800070474FF0000304E000BF10F00043E2
:1003BC0048BF40425FEA000C08BF704743F09643C9
:1003CC0001464FF000001CE050EA010208BF7047E4
:1003DC004FF000030AE000BF50EA010208BF70476B
:1003EC0011F0004302D5404261EB41015FEA010C80
:1003FC0002BF84460146002043F0B64308BFA3F178
:10040C008053A3F50003BCFA8CF2083AA3EBC25359
:10041C0010DB01FA02FC634400FA02FCC2F1200278
:10042C00BCF1004F20FA02F243EB020008BF20F0AF
:10043C000100704702F1200201FA02FCC2F1200215
:10044C0050EA4C0021FA02F243EB020008BF20EA0A
:10045C00DC70704753B94AB9002908BF00281CBF8B
:10046C004FF0FF314FF0FF3000F06CB9ADF1080CDC
:10047C006DE904CE00F006F8DDF804E0DDE90223B6
:10048C0004B070472DE9F047089E0D4604468E4691
:10049C00002B40F082808A42174646D9B2FA82F28B
:1004AC004AB1C2F1200105FA02F320FA01F197409A
:1004BC0041EA030E94404FEA1748230CBEFBF8FCAC
:1004CC00B9B208FB1CEE43EA0E430CFB01F0984258
:1004DC000AD9FB180CF1FF3580F01681984240F2D6
:1004EC001381ACF1020C3B441B1AA4B2B3FBF8F021
:1004FC0008FB103344EA034400FB01F1A14209D983
:10050C003C1900F1FF3380F00181A14240F2FE80E2
:10051C0002383C44641A40EA0C4000211EB1D4401D
:10052C000023C6E90043BDE8F08702B9FFDEB2FA4A
:10053C0082F2002A4FD1CB1B4FEA174E1FFA87F8D5
:10054C000121B3FBFEFC250C0EFB1C3345EA0345D5
:10055C0008FB0CF3AB4207D97D190CF1FF3002D22A
:10056C00AB4200F2E7808446ED1AA3B2B5FBFEF075
:10057C000EFB105543EA054408FB00F8A04507D9CB
:10058C003C1900F1FF3302D2A04500F2D780184687
:10059C00A4EB080440EA0C40C0E78B4208D9002EBB
:1005AC0000F0AF800021C6E900050846BDE8F087E1
:1005BC00B3FA83F100294BD1AB4202D3824200F251
:1005CC00B780841A65EB030301209E46002EAAD047
:1005DC00C6E9004EA7E7C2F1200C01FA02F39740DE
:1005EC0020FA0CF04FEA174E21FA0CFC1843BCFB16
:1005FC00FEF1050C0EFB11CC1FFA87F845EA0C45F1
:10060C0001FB08F3AB4204FA02F409D97D1901F19C
:10061C00FF3C80F08B80AB4240F2888002393D4435
:10062C00EB1A85B2B3FBFEF00EFB103345EA034523
:10063C0000FB08F3AB4207D97D1900F1FF3C71D2E6
:10064C00AB426FD902383D44EB1A40EA014178E7DE
:10065C00C1F1200C8B4022FA0CF71F4320FA0CF44A
:10066C0005FA01F34FEA174E25FA0CF51C43230C3F
:10067C00B5FBFEF91FFA87F80EFB195543EA054541
:10068C0009FB08FAAA4502FA01F200FA01F308D9AB
:10069C007D1909F1FF3047D2AA4545D9A9F10209C4
:1006AC003D44A5EB0A05A4B2B5FBFEF00EFB1055BC
:1006BC0044EA054400FB08F8A04507D93C1900F1B1
:1006CC00FF352DD2A0452BD902383C4440EA0940D5
:1006DC00A4EB0804A0FB02894C45C6464D4619D331
:1006EC0016D05EB1B3EB0E0264EB050404FA0CFCFD
:1006FC00CA404CEA0202CC40C6E900240021BDE805
:10070C00F087314630460EE7AC46EDE6184601E779
:10071C004345E6D2B8EB020E69EB07050138E0E77A
:10072C002846D3E760468FE78146BAE7614677E70C
:10073C0008464BE7ACF1020C3D4415E702383C444B
:10074C0026E700BF704700BFF8B53249324806F0C3
:10075C0010FD324805F052F9314D6861314C324B85
:10076C00E41AE40801264FF0000166F302016FF36E
:10077C00C50164F38F112D4801F028FA4FF00001E8
:10078C00022363F302016FF3C50164F38F11284850
:10079C0001F01CFA4FF00001032363F302016FF325
:1007AC00C50164F38F11234801F010FA4FF00002D9
:1007BC00042363F302026FF3C50264F38F121E4924
:1007CC001E4801F091F96869297C8768046906FA6A
:1007DC0001F32268134323603B6840F201229847DF
:1007EC00174805F00BF9E86070B1164806F0C1FC2B
:1007FC000B4806F04BFC1449094800F089F800201E
:10080C00002106F0C3F8F6E70D49104806F0B1FCDC
:10081C00F8BD00BFF88E0000048F0000188F000098
:10082C0000000020488E0000488E0000208F000041
:10083C003C8F0000588F0000D48F0000788F000090
:10084C009C8F0000C08F000098030020A48F000034
:10085C0010B50C460A46412106F048FB033C092C16
:10086C0016D8DFE804F005150915150D1515151129
:10087C00094B0A4A1A6010BD074B094A1A60FAE77D
:10088C00054B084A1A60F6E7034B074A1A60F2E771
:10089C00014B024A1A60EEE718000020A9F51C3A39
:1008AC00A9F59C3AD3F51C3BBDF59C3B10B50C4609
:1008BC000A46432106F01AFB042C18D8DFE804F092
:1008CC00130F0B0703000C4B0C4A1A6010BD0A4B9C
:1008DC000B4A1A60FAE7084B0A4A1A60F6E7064B0D
:1008EC00094A1A60F2E7044B084A1A60EEE7024B19
:1008FC00034A1A60EAE700BF1C000020F8C1793BEC
:10090C00F8C1F93B8DC1793C8DC1F93C8DC1793D64
:10091C0000296DD02DE9F04184B00D4600230193E0
:10092C00029303930C2301AA194606F053FB0646C7
:10093C009DF805301B021BB29DF804009DF8077052
:10094C003F023FB29DF8062017439DF80940240250
:10095C0024B29DF8082014431843FFF727FD254BBC
:10096C00D3F800804146FFF7B3FBE8603846FFF749
:10097C001DFD01464046FFF7ABFB28612046FFF703
:10098C0015FD01464046FFF7A3FB68619DF80B304F
:10099C001B021BB29DF80A009DF80D703F023FB27E
:1009AC009DF80C2017439DF80F40240224B29DF8AB
:1009BC000E2014431843FFF7F9FC0F4BD3F80080BB
:1009CC004146FFF785FB28603846FFF7EFFC0146F0
:1009DC004046FFF77DFB68602046FFF7E7FC0146C9
:1009EC004046FFF775FBA860F0B204B0BDE8F0819B
:1009FC00FF2070471C00002018000020014B1860DD
:100A0C00704700BF2000002010B584B00446019050
:100A1C0002910021039101A9054800F0B7F8039B4E
:100A2C00029A934201DA0022E254039804B010BDFA
:100A3C004F7100002DE9F04383B00446084615467B
:100A4C00238B13F0080F05D103F007060023009346
:100A5C00019369E0012909D043F02003238385F336
:100A6C001188BFF36F8F03B0BDE8F08343F0100320
:100A7C002383F4E7204606F0BFFB57E0D4F814902C
:100A8C004A466946204606F0D0FB00275AE0236907
:100A9C001F680621204606F088FB4FF0000951E044
:100AAC0023695F680421204606F07FFB4FF00009A4
:100ABC0048E023699F680521204606F076FB4FF03D
:100ACC0000093FE0002246E0002244E043F0080326
:100ADC00238385F31188BFF36F8F002944D1009BCA
:100AEC002BB14B4642466946204606F014FC17B122
:100AFC0025492046B8474FF02003EFF3118583F3C7
:100B0C001288BFF36F8F238B23F008032383238B6F
:100B1C0013F0100F2ED023F0100323830120268B0B
:100B2C0006F0070600289AD00228A3D0002896D0F9
:100B3C000128A3D00328AAD00428B1D00528B8D006
:100B4C000027B946238B03F00708B045BAD0A2683A
:100B5C00002AB9D001221146002AB7D1009A002AE6
:100B6C00B4D1002FB2D1D2E74A464146204606F016
:100B7C0024FBB4E713F0200F04D023F020032383CD
:100B8C000220CCE70020CAE7517300002DE9F04F9A
:100B9C0093B006460D469246039300249AF8000043
:100BAC00002800F0D684252808D00AF1010A29462D
:100BBC00B0470028C0F2CE840134EFE7002306933F
:100BCC0007930B93089309930A930AF101089AF877
:100BDC000130252B01D001272CE00AF102088DF8F9
:100BEC002330A8E19DF8203043F004038DF8203029
:100BFC00FFB108F101081CE09DF8203043F0080318
:100C0C008DF82030F4E79DF8203043F010038DF878
:100C1C002030EDE79DF8203043F020038DF8203094
:100C2C00E6E79DF8203043F040038DF82030DFE7F5
:100C3C0000274FB398F80030203B102BF8D801A2B6
:100C4C0052F823F0130C00003D0C00003D0C00008A
:100C5C00210C00003D0C00003D0C00003D0C000080
:100C6C003D0C00003D0C00003D0C00003D0C000054
:100C7C00050C00003D0C0000F10B00003D0C0000C9
:100C8C003D0C00002F0C00009DF8203003F04403B5
:100C9C00442B6DD0CDF814809DF8203043F08003A8
:100CAC008DF8203098F800302A2B68D005A806F073
:100CBC00D9FB059B984512D09DF8203043F080035A
:100CCC008DF820300990C3F34003002860DB00222C
:100CDC0013439DF8202063F341028DF82020059BDF
:100CEC0005931B782E2B14BF002301239DF8212084
:100CFC0063F341028DF82120002B4BD0059B5A1C2D
:100D0C0005925B782A2B48D005A806F0ABFB0A901D
:100D1C009DF82030C3F34003002847DB0022134327
:100D2C009DF8202063F341028DF82020DDF814801B
:100D3C0098F800304C3B2E2B00F2DC80DFE803F0FF
:100D4C00CADADADADADADADADADADADADADADADA07
:100D5C00DADADADADADADADADADADADA38DA6ADAF9
:100D6C0051DADADADADADADAC0DADADADADAB60078
:100D7C009DF820306FF386138DF820308AE79DF8AC
:100D8C00213043F001038DF8213043460133A7E7AE
:100D9C0001229DE7DDF81480CAE79DF8213043F06D
:100DAC0004038DF8213002F10108C1E70122B6E7F6
:100DBC0008F1010298F80130682B08D09DF8213019
:100DCC00022161F3C6038DF8213090462BE09DF88B
:100DDC002130012262F3C6038DF8213008F102089C
:100DEC0021E008F1010298F801306C2B08D09DF835
:100DFC002130032161F3C6038DF82130904612E0B7
:100E0C009DF82130042262F3C6038DF8213008F1DD
:100E1C00020808E09DF82130052262F3C6038DF824
:100E2C00213008F1010818F8013B8DF82330A3F1AB
:100E3C004102372A00F25081DFE812F026014E0100
:100E4C004E014E012601260126014E014E014E0196
:100E5C004E014E014E014E014E014E014E014E010E
:100E6C004E014E014E014E014E0113014E014E0139
:100E7C004E014E014E014E014E014E0126014E0116
:100E8C00130163002601260126014E0163004E0169
:100E9C004E014E014E012F0113013F014E014E0137
:100EAC003F014E0113014E014E0113019DF82130FB
:100EBC00062262F3C6038DF8213008F10108B2E76F
:100ECC009DF82130072262F3C6038DF8213008F11A
:100EDC000108A8E79DF82130082262F3C6038DF8BB
:100EEC00213008F101089DF8203043F002038DF801
:100EFC00203098E79DF821306FF3C6038DF8213030
:100F0C0091E79DF82220012161F302028DF8222045
:100F1C009DF8212002F07802402A00F0AA80632B71
:100F2C0000F0AE809DF82030C3F34002174367F306
:100F3C0041038DF820309DF8213013F0010F00F0A3
:100F4C00DA80039B1A1D03921F68002FC0F2CB801E
:100F5C009DF8213013F0040F00F0DF80039B1A1D65
:100F6C000392D3F800B0BBF1000FC0F2CD80002388
:100F7C0009930A939DF8223003F007039DF8211082
:100F8C00C1F3C301012B00F0D180022B00F01681BC
:100F9C00042B00F06781032B00F07E819DF82090DC
:100FAC0019F00303029340F07D819DF82330253B1B
:100FBC00532B00F23382DFE813F08101310231024E
:100FCC00310231023102310231023102310231027D
:100FDC00310231023102310231023102310231026D
:100FEC00310231023102310231023102310231025D
:100FFC00310231023102310231023102310231024D
:10100C00310231023102310231023102310231023C
:10101C00310231023102310231023102310231022C
:10102C00C701310231023102310231023102310287
:10103C00310231023102A101AB0131023102310224
:10104C003102AB0131023102310231020802C70117
:10105C00EA01310231028F013102C7013102310242
:10106C00C7019DF82220022161F302028DF8222093
:10107C004EE79DF8201041F001018DF820104EE74D
:10108C00171E18BF01274DE79DF82230042262F38A
:10109C0002038DF82230012744E79DF82230032209
:1010AC0062F302038DF822309DF8213003F07803AF
:1010BC00402B7FF437AF012734E79DF82230032211
:1010CC0062F302038DF822309DF8213013F0780F73
:1010DC003FF428AF012725E79DF8203043F00103AA
:1010EC008DF820301EE79DF8203043F004038DF876
:1010FC0020307F422CE79DF92030002B02DB4FF093
:10110C00FF3725E7099F23E79DF821306FF3410353
:10111C008DF821304FF0FF3B29E713F0020F02D07E
:10112C00DDF828B023E74FF0FF3B20E7CB1E042B64
:10113C0004D8DFE803F00B1D29353500039B1A1D7D
:10114C0003921A68D317CDE9062306E0039B1A1DF8
:10115C0003921A68D317CDE90623012928D0022956
:10116C007FF41CAFBDF91820D317CDE9062315E782
:10117C00039B073323F0070303F108020392D3E91F
:10118C000023CDE90623E8E7039B073323F007038D
:10119C0003F108020392D3E90023CDE90623DCE72F
:1011AC00039B1A1D03921A68D317CDE90623D4E7C3
:1011BC009DF81830069300230793EFE6CB1E042B03
:1011CC0004D8DFE803F00B1F35414100039B1A1DC7
:1011DC0003921B680693002307931EE09DF82330AF
:1011EC00632B07D0039B1A1D03921B6806930023E5
:1011FC00079312E0039B1A1D03921B6806930023AE
:10120C0007930AE0039B073323F0070303F108025B
:10121C000392D3E90023CDE9062301291CD002292E
:10122C007FF4BCAEBDF81830069300230793B5E6E7
:10123C00039B073323F0070303F108020392D3E95E
:10124C000023CDE90623E8E7039B1A1D03921B68D4
:10125C00069300230793E0E79DF8183006930023CC
:10126C0007939BE608290BD0039B073323F0070356
:10127C0003F108020392D3E90023CDE906238DE69E
:10128C00039B073323F0070303F108020392D3E90E
:10129C000023CDE9062381E6039B1A1D03921B68EC
:1012AC0006937BE6434652462946304606F057F9EC
:1012BC000028C0F24F810444C2466FE42946252021
:1012CC00B0470028C0F246810134DDF808900DF1DA
:1012DC00460B4FF0000AA7E0DDF818A0BBF1000F99
:1012EC0008DB5946504606F035FD0AEB000BDDF8DD
:1012FC00089099E0504606F025FDF6E7069B8DF820
:10130C003030DDF808900DF1310B0DF1300A8BE027
:10131C0019F0080F05D119F0100904D04FF020096D
:10132C0001E04FF02B09DDE90623002A73F10001DF
:10133C0002DBCDE9062309E0524263EB4303CDE91E
:10134C0006234FF02D0901E0DDF808900DF146035E
:10135C0000930CAB08AADDE9060106F096F882466C
:10136C00BBF1000FC0F290800DF14603A3EB0A0312
:10137C009DF820206FF386128DF820209B4540F2BB
:10138C008680ABEB030309930DF1460B4CE00698FA
:10139C0030B9DDF80890DFF8C4B1ABF1050A43E0D1
:1013AC000DF1460300930CAB08AA002106F06DF872
:1013BC0082469DF8223043F010038DF822307823BA
:1013CC008DF82330DDF80890CAE7069A9DF8213095
:1013DC00C3F3C303072B06D8DFE803F0040C0E108D
:1013EC0012171C1E1460DDF808900DF1460B4FF01F
:1013FC00000A19E01470F6E71480F4E71460F2E7C1
:10140C002046E117C2E90001EDE72046E117C2E9E9
:10141C000001E8E71460E6E71460E4E7DDF8089003
:10142C000DF1460B4FF0000ABAF1000F00F08E8060
:10143C00ABEB0A02B9F1000F00D001329DF822107B
:10144C0011F0100F26D00232099B134411F0400FFB
:10145C0001D00A9A1344002F32DDFF1A9DF8203078
:10146C0013F0040F2CD113F0400F18D0B9F1000F6A
:10147C0018D029464846B04700286BDB0134DDF80C
:10148C000890302302930FE00DF1460BCCE70DF1E1
:10149C00460BC9E711F0080FD6D00132D4E7202350
:1014AC00029301E0302302933B465F1E002B07DDC5
:1014BC0029460298B04700284CDB01343B46F4E740
:1014CC00B9F1000F05D029464846B047002841DB4A
:1014DC0001349DF82230C3F30012C3F3C00313434D
:1014EC0005D029463020B047002833DB01349DF865
:1014FC00223013F0100F06D029469DF82300B04778
:10150C00002827DB0134099B03F1FF39002B07DD91
:10151C0029463020B04700281CDB01344B46F3E74A
:10152C005B4652462946304606F019F8002811DB76
:10153C000444002F07DD29462020B047002809DB92
:10154C000134013FF5E7C246FFF728BBC246FFF75F
:10155C0025BB204613B0BDE8F08F00BFE18F000023
:10156C00054B984204D3054B984203D30020704797
:10157C000020704701207047808C00009C9900006F
:10158C0008B5064B186018B1054B1B68092B00DC1D
:10159C0008BD044804F01CFEFAE700BFE00300207D
:1015AC00B00300201401002008B5024804F010FE1E
:1015BC0008BD00BF1401002008B5034805F0F8FF72
:1015CC00003818BF012008BDBC03002030B589B01D
:1015DC0000220F490F4807F01FFB0F4D002200237C
:1015EC00CDE90623002404940E2303930294019462
:1015FC0000940A4B4FF440720949284607F00CF945
:10160C000849284604F028FC204609B030BD00BF2C
:10161C00B51500002801002060010020F11C00001D
:10162C00000A0020E48F0000184BBFF35B8F53E8D7
:10163C00002F511C43E800100028F8D1BFF35B8F3A
:10164C001ABB70B5002409E0114B03EB06135B6861
:10165C0004221968284600F089FB01340D4B0C4A12
:10166C009B1AB4EB231F0FDA2646094D05EB041524
:10167C002B7B002BF1D02301054AD3589B69002BFF
:10168C00E2D028469847DFE770BD7047B8030020CA
:10169C00908E0000A08E000038B108B5044A10608E
:1016AC00084600F0DBFD002008BD6FF01500704708
:1016BC002400002008B500230A4A13700A4A13605C
:1016CC004FF400410948FFF7E7FF00F071FB0848B1
:1016DC0005F060FF042328220649074807F039F873
:1016EC0008BD00BFF9090020B4030020D575000027
:1016FC00BC030020C0260020C403002010B54FF00E
:10170C002003EFF3118483F31288BFF36F8F044827
:10171C0005F050FF84F31188BFF36F8F10BD00BF2D
:10172C00BC03002008B5054B1B781BB1034B0122F1
:10173C001A7008BD024804F04BFDF7E7F8090020C9
:10174C00140100200C4BBFF35B8F53E8002F0132C8
:10175C0043E800210029F8D1BFF35B8F074BBFF39F
:10176C005B8F53E8002F013A43E800210029F8D1A0
:10177C00BFF35B8F704700BFB4030020B0030020A1
:10178C00064B00200246BFF35B8F53E8000F43E883
:10179C0000210029F9D1BFF35B8F7047B4030020FF
:1017AC0038B5FFF7EDFF0546002400E001340B4B84
:1017BC000B4A9B1AB4EB231F0FDA094800EB0410F9
:1017CC0043685B79002BF1D02301054AD3581B6980
:1017DC00002BEBD029469847E8E738BDA08E0000D7
:1017EC00908E0000034B18680028D4BF0020012005
:1017FC00704700BFB403002010B582B00446FFF759
:10180C00AFFE10BB0022002301A9114804F0CEFA50
:10181C0008B1104C19E0019B0122BFF35B8F53E818
:10182C00001F43E800200028F9D1BFF35B8F1F2273
:10183C0021460198043006F06BFA019C7E2384F853
:10184C002330002384F824300434204602B010BD29
:10185C00C4030020EC8F000038B1074A904206D335
:10186C00A032904205D30020704700207047002022
:10187C0070470120704700BFC0260020037A13F088
:10188C00010F00D070472DE9F04383B0064605F0F8
:10189C0057FF0746304605F03EFF0146384605F037
:1018AC0097FE054604E0012303FA04F425EA040537
:1018BC006DB3B5FA85F4C4F11F042146304605F02A
:1018CC002DFF8146FFF74CFE0028ECD14846FFF770
:1018DC00C3FF0028E7D10F4B9945E4D07189C1F3C0
:1018EC00891100F033FA02460B4B0C495B1ADB08EA
:1018FC00012161F302086FF3C50863F38F18ADF88B
:10190C0000803B462146064800F0B0F8CBE703B018
:10191C00BDE8F083EC8F0000608E0000488E000064
:10192C0008900000F8B5064619BB144B1B780BB198
:10193C00002403E0FFF7A2FFFAE70134104B114A31
:10194C009B1AB4EB231F14DA0E4D05EB04156B68D0
:10195C005B79002BF1D03146284605F033FE002888
:10196C00EBD02701074BDB595B683146284698477B
:10197C00E3E7304605F0E6FEF8BD00BFF9090020AC
:10198C00A08E0000908E000010B50446114B1B7801
:10199C0003B9D0B1FFF7B2FE034680B15CB90E4A71
:1019AC00BFF35B8F52E8001F013942E8001000289A
:1019BC00F8D1BFF35B8F21461846FFF7B3FF14B97C
:1019CC00FFF710FF10B9FFF7F7FD10BDFFF7E8FEAA
:1019DC00F9E700BFF8090020B003002010B582B071
:1019EC001D4BBFF35B8F53E8002F511C43E80010D5
:1019FC000028F8D1BFF35B8F184B1B783BB9184B01
:101A0C001B6803B19AB10A2A1CD002B010BD4FF06A
:101A1C002003EFF3118483F31288BFF36F8F002040
:101A2C00FFF7B2FF84F31188BFF36F8FEDE700224D
:101A3C000023CDE900234FF400420023094805F0B0
:101A4C00D7F9E2E7002BE0D0064807F0F1F806489A
:101A5C0004F0BEFBD9E700BFB0030020F909002059
:101A6C00E003002028010020140100202DE9F041A2
:101A7C0080460F4616461D4600F0BEF9044640B19E
:101A8C0001234360002202814FF0000362F3000344
:101A9C0003724CB1C4F81080637A032262F307130B
:101AAC0063726761A661E561C4B1BDF818306381EA
:101ABC000B4B1B689847E0604FF02003EFF3118548
:101ACC0083F31288BFF36F8F2146064805F066FD3D
:101ADC0085F31188BFF36F8FFFF780FFBDE8F081AE
:101AEC0024000020BC030020F8B506460D4617461E
:101AFC0000F082F9044640B10123436000210181CA
:101B0C004FF0000361F30003037234B12661637A72
:101B1C00012262F3071363726561B4B167810B4BE9
:101B2C001B689847E0604FF02003EFF3118583F3B7
:101B3C001288BFF36F8F2146054805F02FFD85F302
:101B4C001188BFF36F8FFFF749FFF8BD2400002009
:101B5C00BC0300202DE9F04107460E461546984679
:101B6C0000F04AF9044640B101234360002202818F
:101B7C004FF0000362F3000303723CB12761637AF8
:101B8C00022262F3071363726661A561BCB1A4F80B
:101B9C000A800C4B1B689847E0604FF02003EFF372
:101BAC00118583F31288BFF36F8F2146064805F029
:101BBC00F5FC85F31188BFF36F8FFFF70FFFBDE8BE
:101BCC00F08100BF24000020BC03002070B5054646
:101BDC000E4600F011F9044640B101234360002287
:101BEC0002814FF0000362F30003037204B125611C
:101BFC00B4B166810B4B1B689847E0604FF0200333
:101C0C00EFF3118583F31288BFF36F8F21460648DB
:101C1C0005F0C4FC85F31188BFF36F8FFFF7DEFE70
:101C2C0070BD00BF24000020BC03002030B5A3B061
:101C3C0002460B460025812101A8FEF7E5FE02466F
:101C4C00812828BF812201A9284605F08EFDB8B154
:101C5C00044645810B4B1B689847E0604FF020030E
:101C6C00EFF3118583F31288BFF36F8F214606487B
:101C7C0005F094FC85F31188BFF36F8FFFF7AEFE70
:101C8C0023B030BD24000020BC030020124B1B7875
:101C9C0003B1704710B5FFF7C7FC002400E0013416
:101CAC000E4B0F4A9B1AB4EB231F0CDA0C4800EBBB
:101CBC00041043685B79002BF1D02301084AD358F8
:101CCC005B699847EBE70020FFF75EFE0028FAD12E
:101CDC00014B01221A7010BDF9090020A08E0000E2
:101CEC00908E000008B5FFF79FFC04F07BFEFFF719
:101CFC0047FC06E04FF0FF324FF0FF33044804F08E
:101D0C008BFA0020FFF740FE0028FAD1F2E700BF63
:101D1C001401002000B583B004380190BFF35B8F31
:101D2C0050E8003F5A1E40E800210029F8D1BFF3CB
:101D3C005B8F012B02D003B05DF804FB01A90248B4
:101D4C0006F015FDF7E700BFC4030020054B064A5B
:101D5C009B1AB1EBD30F02D252F83100704700201E
:101D6C00704700BF908E0000488E000008B5074BEE
:101D7C00C31A1B110133426813714368196043681D
:101D8C0001225A71FFF7CEFC08BD00BF908E0000F7
:101D9C0010B582B00190019B33B11C6801A90348B6
:101DAC0006F0E5FC0194F6E702B010BDE403002058
:101DBC0008B520231A460249024806F0CAFC08BDA1
:101DCC0060270020E403002010B582B000230193AB
:101DDC000120FFF7D9FD0446FFF7B4FC00220023D5
:101DEC0001A9044803F0E2FF08B1002CF0D10198DE
:101DFC0002B010BDE403002000B583B000230193B2
:101E0C0005F009FC50B10022002301A9074803F09A
:101E1C00CDFF30B9019803B05DF804FB002200231C
:101E2C00F3E7FFF7D1FF0190F4E700BFE4030020D4
:101E3C00F0B583B00190044605F06DFC237A13F0E5
:101E4C00010F01D1064650BB019B1A7A12F0020F0A
:101E5C0028D101A9154806F08AFC03B0F0BD019801
:101E6C0005F06EFC314605F0B3FB074688B9EBE78D
:101E7C002846FFF74FFF0134B442E5D221460198C2
:101E8C0005F04CFC0546FFF7E7FC0028F3D0002FCB
:101E9C00E5D027FA04F313F0010FECD0E8E70027A4
:101EAC003C46E9E75869FFF773FFD2E7E4030020EB
:101EBC000EB400B582B0014603AB53F8042B01936A
:101ECC000348FEF763FE02B05DF804EB03B0704705
:101EDC00517B0000F0B585B011F0440F05D01A4BC2
:101EEC001C6834B9002005B0F0BD1849FFF7E0FFBD
:101EFC00F9E7174B1968B2FBF1F1B1FBF4F5154A90
:101F0C00A2FB0532D20A4FF4616606FB1256124B45
:101F1C00A3FB06735B0904FB15114FF47A7505FBE3
:101F2C0001F1B1FBF4F707FB141105FB01F1B1FB57
:101F3C00F4F402940197C3EB0311A6EB8101009119
:101F4C000649FFF7B5FFCEE7000400204C900000D7
:101F5C0004040020C5B3A291898888885890000099
:101F6C0061B108B52AB1064A52F8232012B9054AC4
:101F7C0000E0044A0449FFF79BFF08BD704700BF0F
:101F8C00D8900000749000007C90000011F0100FAD
:101F9C000BD108B511F0200F03D00449FFF788FFCF
:101FAC0008BD0349FFF784FFFAE77047A8950000C6
:101FBC00809000002DE9F04105460F4616469846E4
:101FCC000699FFF7E3FF0024444505DA2349284628
:101FDC00FFF76EFF0134F7E7002409E01F4928469C
:101FEC00FFF766FF0BE01E492846FFF761FF01343F
:101FFC000F2C0CDC002C02DD14F0070FEED0B442D9
:10200C00F1D23A5D17492846FFF752FFEFE7164920
:10201C002846FFF74DFF002409E010492846FFF73A
:10202C0047FF0BE011492846FFF742FF01340F2C04
:10203C0012DC002C02DD14F0070FEED0B44206D2F5
:10204C003A5DA2F120035E2BECD92E22EAE703497C
:10205C002846FFF72DFFE9E7BDE8F081A8900000C6
:10206C008C900000849000009090000094900000F0
:10207C002DE9F041804616461D46BDF9187059B938
:10208C000024002F1CDB86B10123079A934013F028
:10209C00100F18D10D4E09E00D4B079A53F8222062
:1020AC000C49FFF705FF0446EBE7084E3946284676
:1020BC00FFF74CFE024631464046FFF7F9FE04445A
:1020CC002046BDE8F081044EF0E700BF9890000078
:1020DC0014910000A4900000A09000002DE9F04F96
:1020EC0085B005460C46164603939DF8388001F0E2
:1020FC00020B01F0010AC1F3C00905F08AFAE8B13C
:10210C00024613492846FFF7D3FE0746BBF1000FE2
:10211C0016D142465146284605F094FBCDF8048072
:10212C00BDF9403000939DF83C3032464946284674
:10213C00FFF79EFF384405B0BDE8F08F0027E5E7B8
:10214C00039A21462846FFF7C5FE0744E1E700BF86
:10215C00AC9000002DE9F04389B007460E4691463D
:10216C00984605F0EDFA02460E493046FFF7A0FE00
:10217C00002410250395234603AA0DEB05013846D0
:10218C0005F04BFB039A52B1CDF800804B460DEB9A
:10219C0005013046FFF70EFF039D2C44E9E709B01B
:1021AC00BDE8F0837C900000F0B583B006460C4689
:1021BC0000273D460DE0A268134413F8017C0A2F5A
:1021CC0014BF00270127204605F0AFFC019B1D44DE
:1021DC0073B1E36801932B4601AAA168304605F060
:1021EC001CFB6368019A1A60019B002BEBD0E2E7A1
:1021FC000FB903B0F0BD02492046FFF759FEF8E7CE
:10220C00B090000070B582B00446056842F20F73BE
:10221C008B4228BF0B460E4A0521684604F0B7FFD7
:10222C00064663685B680B220A49284605F0FDFAEE
:10223C0063685B6832466946284605F0F6FA6368BF
:10224C005B681B220449284605F0EFFA02B070BD0A
:10225C00B490000008910000EC900000074B0122A4
:10226C001A60074B984205D94008044A13685B0072
:10227C001360F6E7034B1860704700BF040400209E
:10228C0040420F0000040020014B01221A707047DD
:10229C00FA09002008B518B9084B00221A7008BDBD
:1022AC00074B1B7823B141F2883006F0AFFCF6E700
:1022BC00A420002104F06AFBF1E700BFFA0900201A
:1022CC00FB09002038B504460A4B01221A700A4B50
:1022DC001B7803B938BD002003F04CFB0028F9D063
:1022EC00044B1B78002BF5D0651E2046FFF7D2FF60
:1022FC002C46F0E7FA090020FB0900202DE9F041FB
:10230C0006460D4604270DE02A463146002003F010
:10231C0097FA04461CE03846FFF7D4FF1CBB164B5B
:10232C001B7803B3154B1B78002BEDD1DFF85080D5
:10233C004FF0FF324FF0FF33404603F07BFE2A464E
:10234C003146002003F07CFA0446404603F0FCFEC4
:10235C00002CE0D1084B1B78002BDFD0013F384616
:10236C00FFF798FFDAE714B9034B1B7803B92C4637
:10237C002046BDE8F08100BFFA090020FB090020CF
:10238C000001002008B5034B01221A70024805F029
:10239C00CCFB08BDFB0900205491000008B5024895
:1023AC00FFF730FF08BD00BF5491000010B50C467C
:1023BC00084605F0A3F90F222146034805F0DEFB81
:1023CC00204605F0BFF910BD5491000070B584B0E3
:1023DC002C4B1C7D04F01F0301229A4061092A4BEF
:1023EC0003EB8103D043BFF35B8F53E8001F01EA7B
:1023FC00000543E80056002EF7D1BFF35B8F0A426D
:10240C003DD004EB44039A00204B134493E807009F
:10241C0004AB03E907001E4B63B105F006FD4FF05A
:10242C002003EFF3118683F31288BFF36F8F194BE0
:10243C001D680AE0002383F31188BFF36F8FEEE76A
:10244C002B460DB12B686BB11D465DB1AA68002AF5
:10245C00F6D00C4B1B7D03EB430399000B4B585CE4
:10246C009047EDE786F31188BFF36F8F074804EBB5
:10247C004404A2008118002383504B608B6004B08D
:10248C0070BD00BFBC0900203404002038040020BB
:10249C00377E00002C040020F0B589B00546554B62
:1024AC001C7D04F01F0301229A406109524B03EB7F
:1024BC008103BFF35B8F53E8001F41EA020043E83E
:1024CC000006002EF7D1BFF35B8F0A4217D004EB46
:1024DC0044034A4A12F82330002B00F08880B5F1EF
:1024EC00FF3F1CD103F040FF4FF02003EFF31186A8
:1024FC0083F31288BFF36F8F414B1D682AE004EB06
:10250C0044063E4B03EB86066F462A462146384668
:10251C0005F073FB97E8070086E80700D7E704EBA4
:10252C00440302EB83039B68590CD803354E364A9F
:10253C00002380194FF0000646EB0101FDF78AFFDE
:10254C000121281A06F033FBCCE72B460DB12B6882
:10255C006BB11D465DB16A68002AF6D0254B1B7D18
:10256C0003EB4303254911F823009047EDE786F36D
:10257C001188BFF36F8F04F01F0301219940630989
:10258C00224A02EB8303BFF35B8F53E8002F0A430D
:10259C0043E800200028F8D1BFF35B8F04EB440321
:1025AC00164A02EB830393E8070008AB03E9070024
:1025BC00174B0BB105F026FCFFF708FF04F0D2F81F
:1025CC00012004F01F020123934064090A4A02EB24
:1025DC008404DB43BFF35B8F54E8002F1A4044E8BC
:1025EC0000210029F8D1BFF35B8F09B0F0BD0020AA
:1025FC00E7E700BFBC090020440400203804002099
:10260C002C0400203F420F0040420F0034040020F5
:10261C00117E0000014910220A60704710ED00E0A5
:10262C0072B6404080F31188BFF36F8FBFF34F8FAA
:10263C0030BF62B6BFF36F8F704700BF72B64940B0
:10264C0081F3118820BF80F3118862B6704700BFF8
:10265C0070B582B004461F4D1F4BED1AED080126D4
:10266C004FF0000366F302036FF3C50365F38F139A
:10267C00ADF800308368426801681848FFF7F6F936
:10268C004FF0000366F302036FF3C50365F38F137A
:10269C00ADF8003063692269E1681148FFF7E6F98B
:1026AC004FF0000266F302026FF3C50265F38F125E
:1026BC00E1690C48FFF718FA4FF0000266F30202CA
:1026CC006FF3C50265F38F12A1690748FFF70CFA87
:1026DC0002B070BD708E0000488E00006891000042
:1026EC0098910000C8910000D891000043B2002BD3
:1026FC0008DB00F01F005B09012202FA00F0024A1D
:10270C0042F82300704700BF00E100E043B2002B09
:10271C000DDB00F01F005B09012202FA00F02033F0
:10272C00034A42F82300BFF34F8FBFF36F8F7047FC
:10273C0000E100E04209054B53F8222000F01F0095
:10274C00012303FA00F01040704700BF00E100E0E5
:10275C00013143B2002B08DB4901C9B203F16043DC
:10276C0003F5614383F80013704700F00F00490133
:10277C00C9B2014B1954704714ED00E030BFFFF79C
:10278C00FDBF00BF08B50B4B0B4A22F07F029A60CD
:10279C00BFF34F8FBFF36F8FD3F8882022F47002F2
:1027AC00C3F8882003F0A0FA04F04AF900F0B6FC54
:1027BC0003F0A6FA00ED00E0000000000A4A93685E
:1027CC00C3F8A80009490968C3F8AC1008494B685C
:1027DC0043F080534B60002383F31188BFF36F8F5A
:1027EC009368D3F8AC007047BC0900207C980000BB
:1027FC0000ED00E013498A684FF030001044EFF30D
:10280C00098C80E8F01F202080F31288BFF36F8FB3
:10281C000D4F4FF00066CA698A603E60D2F8A8007E
:10282C000023C2F8A83080F3118804B5104600F0DC
:10283C0017FDBDE8044002F1300090E8F01F8CF366
:10284C0009887047BC09002004ED00E01EF0040F5D
:10285C000CBFEFF30880EFF30980816911F8021CBB
:10286C000229FFD001B505F0D9F901BD10B4A2F1D0
:10287C0020040D4921F0010142F8081C42F8203CCB
:10288C00019B42F81C3C029B42F8183C039B42F80B
:10289C00143C4FF0807342F8043C04650023C0F8EC
:1028AC00A83010BC704700BF5D740000164B9A68CE
:1028BC00DAB110F1160F1AD010B4D2F89830A3F187
:1028CC002004844205D8834208D98B4208D80021C1
:1028DC0000E0002131B9002010BC70470021F9E75D
:1028EC000121F7E7D2F89800F6E700207047D2F8FC
:1028FC0098308B4294BF0021012109B90020704708
:10290C00D2F89800704700BFBC09002008B50D46EE
:10291C001446084B986000F0A3FC204685F3098808
:10292C00002163B681F31188BFF36F8F002200235F
:10293C0004F08EFDBC09002001B572B60B4A9069FB
:10294C0000281EBF0021916105F088FF62B6EFF3ED
:10295C000580A0F110004FEAC0000549014409C9E7
:10296C009847BDE80140034908470000BC09002016
:10297C00108D000085290000044B9968D8698842A5
:10298C0003D003494FF080520A607047BC09002005
:10299C0004ED00E008B54E4B4E4A9B1ADB084FF095
:1029AC000001012262F302016FF3C50163F38F1181
:1029BC004948FFF70BF9494B9B6A13F0007F21D173
:1029CC00464B9B6A13F0807F2DD1444B9B6A13F4CA
:1029DC00002F39D1414B9B6A13F4802F45D13F4BCB
:1029EC009B6A13F4003F51D13C4B9B6A13F4803F1C
:1029FC005DD13A4A936A6FEA03436FEA13439362D9
:102A0C00002008BD324B334A9B1ADB084FF0000103
:102A1C00012262F302016FF3C50163F38F11304899
:102A2C00FFF7D4F8CCE72A4B2A4A9B1ADB084FF065
:102A3C000001012262F302016FF3C50163F38F11F0
:102A4C002848FFF7C3F8C0E7214B224A9B1ADB0842
:102A5C004FF00001012262F302016FF3C50163F331
:102A6C008F112148FFF7B2F8B4E7194B194A9B1A9A
:102A7C00DB084FF00001012262F302016FF3C50184
:102A8C0063F38F111948FFF7A1F8A8E7104B114A0F
:102A9C009B1ADB084FF00001012262F302016FF375
:102AAC00C50163F38F111248FFF790F89CE7084BB0
:102ABC00084A9B1ADB084FF00001012262F3020165
:102ACC006FF3C50163F38F110A48FFF77FF890E7A6
:102ADC00708E0000488E00000892000000ED00E0AF
:102AEC00209200003492000050920000709200007E
:102AFC0098920000B492000008B500220A70084BAE
:102B0C0008495B1ADB084FF00001012060F3020159
:102B1C0062F3C50163F38F110348FFF757F808BD43
:102B2C00708E0000488E0000E092000070B50546E3
:102B3C000E4614465E4B5F4A9B1ADB084FF00001B1
:102B4C00012262F302016FF3C50163F38F115A483E
:102B5C00FFF73CF8594B9B6A13F4805F24D1574B19
:102B6C009B6A13F4006F30D1544B9B6A13F4007FB3
:102B7C003CD1524B9B6A13F4806F65D14F4B9B6ACF
:102B8C0013F4807F71D14D4B9B6A13F4005F7DD1A0
:102B9C004A4A936A43F47F4393620121284605F025
:102BAC004FF82070002070BD414B424A9B1ADB0845
:102BBC004FF00001012262F302016FF3C50163F3D0
:102BCC008F113F48FFF702F8C9E7394B394A9B1A76
:102BDC00DB084FF00001012262F302016FF3C50123
:102BEC0063F38F113748FEF7F1FFBDE7304B314AE5
:102BFC009B1ADB084FF00001012262F302016FF314
:102C0C00C50163F38F113048FEF7E0FF2B4B996B36
:102C1C009B6A13F4004FACD0254B264A9B1ADB0859
:102C2C004FF00002012060F302026FF3C50263F360
:102C3C008F122648FEF758FF002E9AD01F4A936A2F
:102C4C0023F40043936294E7194B1A4A9B1ADB084E
:102C5C004FF00001012262F302016FF3C50163F32F
:102C6C008F111B48FEF7B2FF88E7114B114A9B1AD4
:102C7C00DB084FF00001012262F302016FF3C50182
:102C8C0063F38F111348FEF7A1FF81E7084B094A44
:102C9C009B1ADB084FF00001012262F302016FF373
:102CAC00C50163F38F110C48FEF790FF70E700BF6E
:102CBC00708E0000488E00000493000000ED00E0D0
:102CCC001C930000309300004493000060930000BC
:102CDC007893000094930000AC930000F8B505467F
:102CEC000C461646644B654A9B1ADB084FF00001F4
:102CFC00012262F302016FF3C50163F38F11604887
:102D0C00FEF764FF5F4B9B6A13F0100F32D15D4BE3
:102D1C009B6A13F0080F3ED15A4B9B6A13F0020FBB
:102D2C004AD16FF01507574B9B6A13F0010F75D101
:102D3C00544B9B6A13F0200F40F08180514B9B6ADF
:102D4C0013F0100F04D14F4B9C6A14F0020405D001
:102D5C004C4B5C6814F4006440F08280494A936ADE
:102D6C0043F0FF0393620121284604F069FF3070A1
:102D7C002046F8BD404B414A9B1ADB084FF000013E
:102D8C00012262F302016FF3C50163F38F113E4818
:102D9C00FEF71CFFBBE7384B384A9B1ADB084FF099
:102DAC000001012262F302016FF3C50163F38F117D
:102DBC003648FEF70BFFAFE72F4B304A9B1ADB0868
:102DCC004FF00001012262F302016FF3C50163F3BE
:102DDC008F112F48FEF7FAFE2A4B5F6B9B6A13F09C
:102DEC00800F02D16FF015079DE7234B234A9B1AE6
:102DFC00DB084FF00002012161F302026FF3C50200
:102E0C0063F38F1239462348FEF76EFE002C8AD0EE
:102E1C001C4A936A23F08003936284E7164B174A8B
:102E2C009B1ADB084FF00001012262F302016FF3E1
:102E3C00C50163F38F111848FEF7C8FE78E70E4BF7
:102E4C000E4A9B1ADB084FF00001012262F30201CB
:102E5C006FF3C50163F38F111048FEF7B7FE6DE7F2
:102E6C0029463846FFF722FD044600283FF476AF8A
:102E7C0080F30988022471E7708E0000488E0000F0
:102E8C00DC93000000ED00E0F493000030930000B0
:102E9C00289400004094000058940000AC9300006B
:102EAC0070B505460C46474B474A9B1ADB084FF05A
:102EBC000001012262F302016FF3C50163F38F116C
:102ECC004248FEF783FE00232370414BDE6A16F066
:102EDC00020609D13E4BDB6A002B17DB3C4BD86A50
:102EEC0010F0804024D170BD364B374A9B1ADB085A
:102EFC004FF00001012262F302016FF3C50163F38D
:102F0C008F113448FEF762FE0020ECE72D4B2E4A61
:102F1C009B1ADB084FF00001012262F302016FF3F0
:102F2C00C50163F38F112C48FEF750FE3046DAE7EB
:102F3C00244B254A9B1ADB084FF00001012262F357
:102F4C0002016FF3C50163F38F112448FEF73EFEB7
:102F5C00AB6933F8022C4DF602739A420ED003F192
:102F6C00604303F626631B78DBB91D4B1B78F3B962
:102F7C001C4B1B889BB203BB3046B4E7114B124A67
:102F8C009B1ADB084FF00002012161F302026FF380
:102F9C00C50263F38F1229681348FEF7A5FD286854
:102FAC00A1E7224601212846FFF798FE9BE722461F
:102FBC0001212846FFF7BAFD95E72846FFF7EAFC02
:102FCC0091E700BF708E0000488E000078940000DE
:102FDC0000ED00E090940000B4940000C494000054
:102FEC0029ED00E02AED00E0E494000008B50A4663
:102FFC000B480C4BC01AC0084FF00003012161F3C1
:10300C0002036FF3C50360F38F130F2A05DC064927
:10301C00103A0648FEF79EFD08BD0549F8E700BFCB
:10302C00708E0000488E0000009500003495000062
:10303C001895000070B58AB02B4B5D68C5F3080578
:10304C00002383F31188BFF36F8F02F07F43B3F13A
:10305C007F4F2AD102F00C03082B10D012F0080F6E
:10306C0020D00C4600260DF127022946204604F0FC
:10307C00E9FD05469DF82730D3B10AB070BD1B4B56
:10308C001B4A9B1ADB084FF00001012262F302017C
:10309C006FF3C50163F38F111648FEF797FD0026F9
:1030AC003446E0E704460126DDE700263446DAE73D
:1030BC002022214601A804F061FE4EB1089BC3F307
:1030CC0008025AB96FEA53236FEA4323089305E0C9
:1030DC00089B23F4FF7323F00103089301A92846EE
:1030EC0004F090FDC9E700BF00ED00E0708E000019
:1030FC00488E000048950000024A536943F01003C3
:10310C005361704700ED00E0EFF30880EFF30981A5
:10311C0001B57246FFF78EFF01BD00BF002206E02D
:10312C0002F00F01094B0B44202119760132262A9B
:10313C000ADC53B2002BF3DB03F1604303F561436C
:10314C00202183F80013F1E7704700BFFCEC00E08E
:10315C00002080F31488BFF36F8F05F085FD0020ED
:10316C000D490860BFF34F8F0C4880F3088800F0BE
:10317C0029F8202080F3118809484FF40261401887
:10318C0080F30988EFF314800221084380F314883C
:10319C00BFF36F8FFFF7F6FA94ED00E0201D0020CF
:1031AC00A01E0020064B1868C0F3072000238342A2
:1031BC0005DA034A9360002111610133F7E7704788
:1031CC0090ED00E010B572B6002484F31388FFF77D
:1031DC00E9FF234608E003F120010E4A4FF0FF30CF
:1031EC0042F821000133DBB2072BF4D9002308E0AD
:1031FC0003F16001074A4FF0FF3042F82100013320
:10320C00DBB2072BF4D962B6BFF34F8FBFF36F8FCE
:10321C0010BD00BF00E100E008B5084B9B6883427D
:10322C0002D003F0E5FB08BDEFF30583002BF8D0CB
:10323C00034A536843F080535360F2E7BC09002003
:10324C0000ED00E008B5034B034A0121034804F0EC
:10325C004EFD08BD00000120000000207895000004
:10326C0008B5D0F89830203B044803602023436015
:10327C00034B8360012104F03EFD08BD480400208F
:10328C0000000B15064A90600B6823F01F030343E4
:10329C0043F01003D3608B6843F001031361704754
:1032AC0090ED00E010B50446072803D8FFF7EAFFBD
:1032BC00204610BD094B0A4A9B1ADB084FF000024E
:1032CC00012161F302026FF3C50263F38F12014611
:1032DC000448FEF709FC6FF01500EAE7688E000061
:1032EC00488E0000849500002DE9F04780460F467B
:1032FC009A461646002409E02946F0B204F0D8FCA0
:10330C00064610F1160F25D001360134BC4221DAE5
:10331C0004EB440508EB85056A68002AF5D0BAF180
:10332C00000FE9D0284604F0B2FC0028E4D10B4B86
:10333C000B4A9B1ADB084FF00002012161F30202D9
:10334C006FF3C50263F38F1221460648FEF7CCFBE0
:10335C006FF015063046BDE8F08700BF688E0000A0
:10336C00488E0000AC95000010B5034C0123227868
:10337C00FFF7BAFF207010BDFC09002008B5002330
:10338C00084A1278FFF7B0FF10F1160F08D0034669
:10339C00072B05DC044A9360002111610133F7E728
:1033AC0008BD00BFFC09002090ED00E0034B052296
:1033BC005A60BFF34F8FBFF36F8F704790ED00E0F3
:1033CC00BFF35F8F014B00225A60704790ED00E015
:1033DC0038B50E4B1D68082D15D8FFF7F1FF0024EA
:1033EC00A5420AD9094B596804EB440293001944CD
:1033FC002046FFF747FF0134F2E7054B1D70FFF73E
:10340C00D5FF002038BD4FF0FF30FBE7E095000002
:10341C00FC090020014B1860704700BF28000020F9
:10342C004FF02002EFF3118382F31288BFF36F8FFA
:10343C00044A0121C2F8401583F31188BFF36F8F42
:10344C000020704700E00140C0B24FF08043C3F849
:10345C001C05BFF34F8F0549CA6802F4E062044BA8
:10346C001343CB60BFF34F8F00BFFDE700ED00E0CF
:10347C000400FA0530B108B58001034B43F0010399
:10348C00984708BD704700BFF08E00000048704799
:10349C00A4040020034BC01A8010034B03FB00F064
:1034AC00704700BF64040020B76DDBB638B5054625
:1034BC000C46FFF7EFFF01464022034804F039FDAC
:1034CC0001462846A04738BDC88C000030B583B0F3
:1034DC0005460C46FFF7DEFF0146402300932346CA
:1034EC00054A064804F03FFD011E01DB03B030BD68
:1034FC002846A047FAE700BFBB7F0000C88C00003D
:10350C0008B510B101280DD008BD0021084804F001
:10351C0097FC836813F0070FF6D10021044804F0E0
:10352C00F6FCF1E70121024804F0F1FCECE700BFE6
:10353C00C88C000010B54FF02003EFF3118483F317
:10354C001288BFF36F8F134A136843F002031360A2
:10355C0013F0010F08D1002384F31188BFF36F8F90
:10356C009BB904F02CFD10BD4FF08043D3F80C2414
:10357C00D3F80C3412F0010F01D10023ECE7FFF764
:10358C0085FF04F0B1FC0123E6E70021024804F0BA
:10359C00BEFCE8E7B4040020C88C000008B50A4B58
:1035AC00BFF35B8F53E8002F22F0020143E80010B9
:1035BC000028F7D1BFF35B8F12F0010F00D008BDCC
:1035CC0004F002FDFBE700BFB404002000B585B099
:1035DC00CDF800D0CDF804D000230293012303933F
:1035EC006B46074A04F0DBFC002805DB4FF48042F5
:1035FC000023684602F010FE05B05DF804FB00BF26
:10360C00E97F000008B5074B1B781BB1002001F0C7
:10361C00CBFA08BD4FF4A57005F0F8FA014B012266
:10362C001A70F3E7FD09002070B50646002201214F
:10363C001046FFF78DF80020FFF758F8114801F0FD
:10364C009FFA114B98421AD104F03DFE002403E07E
:10365C000123AB601C44E4B2012C0ED82146304649
:10366C0004F0EEFB05462146304604F0F6FB074914
:10367C0003F076FE0028EBDA00E0002070BD6FF05E
:10368C000400FBE70D3500000000AD0B5C9600005C
:10369C0070B50546012807D14FF08043D3F81C3490
:1036AC0003F00303012B58D005F09FF828B92E4BDB
:1036BC001B78002B41D0002300E001231C46002B7B
:1036CC003DD04FF02003EFF3118683F31288BFF344
:1036DC006F8F24B94FF080430222C3F808234FF0B8
:1036EC008042D2F8183403F00303D2F8182412F4F1
:1036FC00803F2BD100221AB1012B29D0012D27D0CC
:10370C00FCB13046FEF79AFF4FF08043D3F81835E2
:10371C00002BE4D1154B1B68002BE0D0134B00227F
:10372C001A601B6801234FF08042C2F81835104A0A
:10373C00C2F880310F4A1360D1E70123BEE700269F
:10374C00C7E72120002103F021F9DDE70122D2E7B0
:10375C0024B186F31188BFF36F8F70BD4FF0804397
:10376C000222C3F80423F8E7FF09002004010040FB
:10377C0000E100E00800004010B50446104B0121A8
:10378C00BFF35B8F53E8002F43E800100028F9D1FA
:10379C00BFF35B8F1AB1631E012B0CD910BD094806
:1037AC0004F05BFB084900234B60CB6001238B606A
:1037BC0003F0F2FDEFE72046FFF76AFFEEE700BFEC
:1037CC00B8040020C88C00005404002010B5044C30
:1037DC002046FDF713F92046FFF71CFE002010BD14
:1037EC00F1370000F0B583B007468DF807000226CC
:1037FC0006E0134B01221A701EE004F0F4FB013EAC
:10380C00104D4FF0FF324FF0FF33284602F012FC00
:10381C0001220DF10701002002F076F8044628463B
:10382C0002F092FC002CE4D1054B1B7823B1002E46
:10383C00E3D1034B00221A70384603B0F0BD00BF31
:10384C00FE090020000100201F4B03401F4A934239
:10385C0032D016D8062B2BD006D9B3F5801F0DD13C
:10386C0001230B7000207047FBB1022B03D1042302
:10387C000B70002070476FF0150070476FF015004B
:10388C007047134A93421BD0B3F5A00F03D1032307
:10389C000B7000207047B3F5800F03D102230B701F
:1038AC00002070476FF015007047002008707047BB
:1038BC0006230B700020704707230B700020704705
:1038CC0005230B70002070470600F0000600100066
:1038DC000200400008B9024870470020704700BF42
:1038EC00E08C0000F0B585B00E46194643681B7B92
:1038FC0006F01F0545EA4315B2F5005F22D00746D6
:10390C001446002302930393104604F0A9FB8DF890
:10391C0008007B689968F14011F0010F02D1B4F5F1
:10392C00A03F14D0002302AA1946284601F0B2FB8E
:10393C00194B98422CD10121284601F075FD00202D
:10394C0005B0F0BD284601F0C7FD0020F8E705F0F2
:10395C001F0303F5E0734FF0A04252F8233013F02D
:10396C00010FDFD10DF10701284601F001FD0B4BD2
:10397C00984203D00DF107030393D3E70DF1070031
:10398C0001F04AFD044B9842F4D06FF00B00D7E7DE
:10399C006FF00400D4E700BF0000AD0B0400AD0BCA
:1039AC0030B583B004460DF1070101F0E1FC05468A
:1039BC00204601F0BBFD0B4B98420FD19D4205D028
:1039CC00084B984207D1002003B030BD9DF807008A
:1039DC0001F01AFDF4E76FF00400F5E76FF0040056
:1039EC00F2E700BF0000AD0B2DE9F04387B0D0F833
:1039FC00048098F80C3001F01F0545EA4315002AA5
:103A0C0044D00C4617460026039604960DF1170178
:103A1C00204601F0ADFC8146334603AA31462846C8
:103A2C0001F038FB304B98425BD1994536D017F4F6
:103A3C00007F43D00DF103013846FFF705FF064622
:103A4C0040BB9DF803308DF8043017F4807F0CBF19
:103A5C00012300238DF80530384604F0CEFA8DF89A
:103A6C00060017F4006F1ED0D8F80430012101FABB
:103A7C0004F4C3F80845002201A9284601F0BAFB5A
:103A8C00194B984206D06FF0150603E02846FFF755
:103A9C0087FF0646304607B0BDE8F0839DF8170057
:103AAC0001F0B2FCC3E717F4806FE4D0D8F804201F
:103ABC00012303FA04F4C2F80C45DCE7384604F0A1
:103ACC009CFA8DF8080000231A4602A9284601F03A
:103ADC00E1FA054B984201D10026DBE76FF01506A1
:103AEC00D8E76FF01506D5E70000AD0B08B501F06F
:103AFC0081FC08B1002008BD01F052FC084B984233
:103B0C000AD10021074801F02DFC002205210620D6
:103B1C00FEF71EFE0020EEE76FF00400EBE700BF9F
:103B2C000000AD0BFD8000002DE9F04186B00C4685
:103B3C000769D0F8048097F85DC0BCF1000F03D082
:103B4C003B688B4200F0F980A38813F4006F5CD1C2
:103B5C0013F0010F6CD113F0080F7DD1C3F3451393
:103B6C00082B40F08C802268754B9A4240F29A8068
:103B7C0001AD08F108060FCE0FC533682B60236822
:103B8C00704A934240F2A1806F4A934240F2A08067
:103B9C006E4A934240F29F806D4A934240F29E805F
:103BAC006C4A934240F29D806B4A934280F09C8019
:103BBC004FF080430393A38813F0020F00F097801B
:103BCC0013F0040F00F0988003238DF81030A388B5
:103BDC0013F0100F00F0948001238DF81130BCF11C
:103BEC00000F40F08F803B465C4A01A9404601F033
:103BFC00E9FC5B4B984240F08C80012387F85D30E8
:103C0C003C60002006B0BDE8F081564B564A9B1A2A
:103C1C00DB084FF00001012262F302016FF3C501D2
:103C2C0063F38F115148FDF7D1FF6FF08500E9E781
:103C3C004C4B4D4A9B1ADB084FF00002012161F3FB
:103C4C0002026FF3C50263F38F1201684848FDF757
:103C5C004BFF6FF01500D5E7424B434A9B1ADB082C
:103C6C004FF00001012262F302016FF3C50163F30F
:103C7C008F114048FDF7AAFF6FF01500C2E7394BD2
:103C8C00394A9B1ADB084FF00001012262F3020152
:103C9C006FF3C50163F38F113748FDF797FF6FF092
:103CAC001500AFE72F4B304A9B1ADB084FF0000191
:103CBC00012262F302016FF3C50163F38F112F48E8
:103CCC00FDF784FF6FF015009CE74FF0007371E770
:103CDC004FF080636EE74FF000636BE74FF080535B
:103CEC0068E74FF0005365E74FF0004362E713F0CD
:103CFC00040F03D0012368E7022366E7002364E77F
:103D0C0000236AE7404601F0B7FC002387F85D30DA
:103D1C0069E7144B144A9B1ADB084FF0000201218F
:103D2C0061F302026FF3C50263F38F12014614486C
:103D3C00FDF7DAFE6FF0040064E7002062E700BFD5
:103D4C0047E801008FD003001FA107003F420F007E
:103D5C007F841E00FF083D0000127A0039410000EC
:103D6C000000AD0B888E0000488E00009C96000071
:103D7C00B8960000DC960000FC9600002C97000022
:103D8C0060970000F8B50646002201210320FEF7DB
:103D9C00DFFC3769BC6811E023F4805213F0010F8B
:103DAC0027D0012303FA01FC2B6843EA0C032B6098
:103DBC00DEF80030984700283ADB0834BB68FA6814
:103DCC0003EBC2039C4232D2206804F09EFCC0B1CB
:103DDC0020682179637943F4B053D0F808E0056981
:103DEC0013F4406FD8D013F0010FD5D083F4406397
:103DFC00D2E7012303FA01FC2B6823EA0C032B60A6
:103E0C00D6E7244A244BD21AD2084FF000030121E2
:103E1C0061F302036FF3C50362F38F1321682279F8
:103E2C0009681E48FDF796FE6FF0120000E00020B6
:103E3C0000281EDB34692368C3B19B68B3B11A68D0
:103E4C00A2B1986804F0E2FE23689B68186819799F
:103E5C0003691A6801238B401A420BD100235BB112
:103E6C00012303FA01F18368DB689847A36953B116
:103E7C000020F8BD0123F2E7012303FA01F1836866
:103E8C001B699847F2E7636004F1100002F0A0F997
:103E9C00EEE700BF888E0000488E00008897000077
:103EAC0030B585B00469A26C002A4FD0236D002B6D
:103EBC004ED0934228BF1346002B55D0A365616C9E
:103ECC000091002946D0002A46D1002A46D01A4635
:103EDC000192E26C0292002A42D0226D002A41D15A
:103EEC0002B90023039300226946406801F01EFCCE
:103EFC00234B984228D06FF004052368E3B19A68ED
:103F0C00D2B11168C1B19B8813F4805F14D1906851
:103F1C0004F07CFE23689B681868197903691A6899
:103F2C0001238B401A4221D100230BB3012303FA46
:103F3C0001F18368DB689847256304F1200002F0E7
:103F4C0047F9002384F85C3005B030BD236DB3E72E
:103F5C001346B1E70022B8E70122B6E70022B7E723
:103F6C000022BDE70122BBE70025C6E70123DCE701
:103F7C00012303FA01F183681B699847DCE700BF52
:103F8C000000AD0B2DE9F84307460E4691469846C6
:103F9C00046925468B8813F4005F04D0A36913B918
:103FAC006368994208D004F110004FF0FF324FF0D3
:103FBC00FF3302F031F9666031463846FFF7B4FD45
:103FCC00064640B123689B8813F4005F00F0A18083
:103FDC003046BDE8F883012384F85C30B9F1000F5A
:103FEC0010D0D9F80030636373B1D9F80430A363EF
:103FFC00AB6B73B16A6B516841B908326A63013BB0
:10400C00AB63F5E74B46EEE70023F0E7A1641368DA
:10401C0000E0A3646364B8F1000F10D0D8F800304E
:10402C00E36373B1D8F8043023642A6C72B1EB6B80
:10403C00596841B90833EB63013A2A64F5E7434602
:10404C00EEE70023F0E721651B6801E00023236500
:10405C00E364002323632368C3B19B68B3B11A687C
:10406C00A2B11046197913691A6801238B401A42C0
:10407C0000D101269EB3012303FA01F18368DB68AA
:10408C00984723689B68986804F0C0FD3846FFF792
:10409C0007FF236DA26C9A4238BF1A464FF4FA53AD
:1040AC0003FB02F3254655F8202B1268B3FBF2F301
:1040BC00C833590CD80340F2E7364FF47A72002318
:1040CC0080194FF0000646EB0101FCF7C3F90246DC
:1040DC000B46284602F0A0F840B9266B72E7012384
:1040EC0003FA01F183681B699847CAE70C4B0D4A28
:1040FC009B1ADB084FF00001012262F302016FF3FF
:10410C00C50163F38F110848FDF760FD6FF073066E
:10411C0058E70023636004F1100002F059F857E7E8
:10412C00888E0000488E0000AC9700000378002BAE
:10413C006DD110B50C468A6D8B6CCBB19A4207D8F9
:10414C009B1A8B641BB34B6C93B11A444A640FE0FB
:10415C002F4B304A9B1ADB084FF00001012262F30F
:10416C0002016FF3C50163F38F112B48FDF72EFD90
:10417C00A26D236D002B30D09A421ED89B1A23655A
:10418C00002B2ED0E36C43B31A44E26425E04B6B56
:10419C0008334B638B6B013B8B63A36B53B1626B2B
:1041AC00516821B908326263013BA363F5E7A1644E
:1041BC00136800E0A3646364DAE7154B154A9B1A95
:1041CC00DB084FF00001012262F302016FF3C5011D
:1041DC0063F38F111048FDF7F9FC606DFFF760FE7B
:1041EC0010BDE36B0833E363236C013B2364236C46
:1041FC0053B1E26B516821B90832E263013B23648D
:10420C00F5E72165136800E02365E364E5E7704793
:10421C00888E0000488E0000D497000021F07F416A
:10422C0000F5A870014B43F82010704700100140B6
:10423C0000F5A870014B53F82000704700100140A6
:10424C004FF480338340024AC2F84433704700BFB6
:10425C00001001404FF480338340024AC2F84833C7
:10426C00704700BF00100140014BD3F804057047A4
:10427C000010014010B501238340DC43104ABFF30A
:10428C005B8F52E8001F01EA040C42E800CEBEF13D
:10429C00000FF6D1BFF35B8F4FF4803202FA00F0BF
:1042AC0002F1804202F58052C2F80803BFF35F8F1F
:1042BC00BFF36F8F0B4214BF0120002010BD00BF55
:1042CC00CC04002070B5044603F090FF05464FF473
:1042DC008033A340174AD2F80423134205D1002699
:1042EC00284603F08CFF304670BD0123A340DB430E
:1042FC00114ABFF35B8F52E8001F01EA030042E84A
:10430C000006002EF7D1BFF35B8F59B904F15003AF
:10431C009B009BB203F1804303F588331B6813B1F8
:10432C00012300E001231E46002BD9D0204603F0C8
:10433C004EFFD5E700100140C804002001B97047BA
:10434C0001238340114ABFF35B8F52E8001F1943CE
:10435C0042E8001CBCF1000FF7D1BFF35B8F4FF4A8
:10436C00803383400A4AC2F80433BFF35B8F094B96
:10437C001B68BFF35B8F23FA00F010F0010FDED047
:10438C00054B4FF40032C3F80021D8E7CC040020D1
:10439C0000100140C804002000E100E0F8B5074619
:1043AC0014461E461046194603F01DFF0546154BD4
:1043BC001A68A01A1C605E60A5F50013B3F5400FD7
:1043CC0008D3002402F048FC3846FFF731FFA8421E
:1043DC000CD0F8BD0C4B19680B0A0A06521943F1A4
:1043EC0000030A49C1E900230124EBE71CB138465C
:1043FC00FFF726FFEDE74FF400013846FFF70EFFFD
:10440C00F5E700BF28020020D00400201002002095
:10441C0038B50D4B1B681D0A1C06BFF35F8FFFF7E9
:10442C0023FF0346201845F10001B3F5801F0AD283
:10443C00064BD3E90023994208BF904203D210F1F6
:10444C00807041F1000138BDD00400201002002022
:10445C002DE9F843064614461D461046194603F04E
:10446C00C2FE0746FFF7D4FFA94208BFA0421ED2E6
:10447C00B4EB000865EB01094FF0807200234B454B
:10448C0008BF42452ED3194B03EB0613D3E9022385
:10449C00AB4208BFA24218D03946304603F0B4FEF6
:1044AC00394603F090FE241845F100050DE0012378
:1044BC00B3400F4ABFF35B8F52E8001F194342E829
:1044CC0000100028F8D1BFF35B8F084B320103EBCF
:1044DC000616C6E9024508999950099B736000209D
:1044EC00BDE8F8836FF01500FAE700BF1802002052
:1044FC00C804002030B583B000231E4AC2F808352A
:10450C00002B25DD1B4C0225C4F804531A4B4FF429
:10451C000032C3F88021002201211120FEF718F986
:10452C001120FEF7E3F80123144A13602360144AA8
:10453C00136000240194134B0093134A002320466C
:10454C0003F09DFE2846FFF717F9204603B030BD57
:10455C000E4A02EB03124FF0FF304FF0FF31C2E96D
:10456C0002014FF480329A400249C1F8042301330E
:10457C00C6E700BF0010014000E100E00810014058
:10458C00CC040020A9430000FFFF7F00180200208C
:10459C002DE9F04782B00446FFF794FE10B902B043
:1045AC00BDE8F087FFF734FF06460F4603F01EFE0A
:1045BC008246134B03EB0413D3E902894F4508BF22
:1045CC0046450BD20026504603F019FE002EE6D0CD
:1045DC00009542464B462046B047E0E7084A230187
:1045EC0002EB0411D6584D680020D0504FF0FF322A
:1045FC004FF0FF33C1E902232046FFF72BFEE2E721
:10460C001802002010B50D4BD3F8043313F0020F31
:10461C000AD00B4B1B683BB1094B00221A601B687C
:10462C00084A1368013313600024002C00DD10BD10
:10463C002046FFF7ADFF0134F7E700BF0010014043
:10464C0004110140D004002010B582B0B0F1FF3F3E
:10465C0007D0441E002C07DD114B9C4205DD114C8C
:10466C0003E000F50000F4E70024FFF7D1FE0E4B49
:10467C00D3E90023801AB0F5000F00D300240444C2
:10468C000134B4F5000F00D3064C0020019007490B
:10469C000091121943F1000303F0F1FD02B010BDBB
:1046AC00FEFF7F00FFFF7F0028020020A9430000CF
:1046BC0008B5FFF7ADFE024B1B68C01A08BD00BF62
:1046CC002802002008B5FDF7E1FA094B094A9B1AAC
:1046DC00DB084FF00001012262F302016FF3C50108
:1046EC0063F38F110448FDF771FA0020FEF7ACFE5E
:1046FC00588E0000488E000030980000064B1B6856
:10470C00B3F1FF3F03D0062B04D000207047034BBE
:10471C001B78F8E70120704730010010E00F00F023
:10472C00094B1A7808331B68C3F30313062A01D00C
:10473C0000207047033B002B04D8DFE803F0010096
:10474C000120704700207047E00F00F0064B1B68FB
:10475C00B3F1FF3F03D0062B04D000207047034B6E
:10476C001B78F8E70120704730010010E00F00F0D3
:10477C00094B1A7808331B68C3F30313062A01D0BC
:10478C0000207047033B002B04D8DFE803F0010046
:10479C000120704700207047E00F00F0064B1B68AB
:1047AC00B3F1FF3F03D0062B04D000207047034B1E
:1047BC001B78F8E70120704730010010E00F00F083
:1047CC00094B1A7808331B68C3F30313062A01D06C
:1047DC0000207047033B002B04D8DFE803F00100F6
:1047EC000120704700207047E00F00F0094B1A7849
:1047FC0008331B68C3F30313062A01D0002070474B
:10480C00033B002B04D8DFE803F0010001207047C4
:10481C0000207047E00F00F00D4B1A68B2F1FF3F1B
:10482C0005D00C4B1B68062A08D0002070470A4B99
:10483C001A7808331B68C3F30313F4E7033B012B0B
:10484C0004D8DFE803F00101002070470120704715
:10485C003001001034010010E00F00F0064B1B6813
:10486C00B3F1FF3F03D0062B04D000207047034B5D
:10487C001B78F8E70120704730010010E00F00F0C2
:10488C00064B1B68B3F1FF3F03D0062B04D000206E
:10489C007047034B1B78F8E701207047300100107C
:1048AC00E00F00F0084B1B68084A1268062B01D079
:1048BC0000207047052A03D8032A03D30020704731
:1048CC0001207047012070473001001034010010A6
:1048DC00084B1B68084A1268062B01D00020704751
:1048EC00062A03D8032A03D30020704701207047FF
:1048FC00012070473001001034010010014B024AB6
:10490C001A6070478C0000200090D00308B5FFF7A8
:10491C00F5FE28B15B4B1B68C3F304235A4A1360A2
:10492C00FFF7FEFE10B1594B594A1A60FFF70EFF04
:10493C0028B1584B1B68C3F34233574A1360FFF737
:10494C0017FF20B1554AD36823F08073D360FFF76B
:10495C0025FF40B14FF080430022C3F80C21C3F86F
:10496C001021C3F83825FFF72BFF10B14C4B032255
:10497C001A60FFF73BFF58B14A4B05221A60783397
:10498C0001221A60703B00221A60043B3F221A601D
:10499C00FFF742FF002846D04FF08052D2F80414A3
:1049AC00414BC3F82015D2F80814C3F82415D2F8DB
:1049BC000C14C3F82815D2F81014C3F82C15D2F81F
:1049CC001414C3F83015D2F81814C3F83415D2F8EF
:1049DC001C14C3F84015D2F82014C3F84415D2F8AF
:1049EC002414C3F84815D2F82814C3F84C15D2F87F
:1049FC002C14C3F85015D2F83014C3F85415D2F84F
:104A0C003414C3F86015D2F83814C3F86415D2F80E
:104A1C003C14C3F86815D2F84014C3F86C15D2F8DE
:104A2C004424C3F87025FFF719FF28B11F4B1B68EE
:104A3C0003F04F031E4A1360FFF722FF60B14FF0E3
:104A4C008043D3F8003413F0010F05D04FF08043AE
:104A5C006FF00102C3F80024FFF724FF20B1154AC0
:104A6C00136843F480631360FFF732FF38B14FF0E3
:104A7C001023D3F808224FF08043C3F85825FFF7D2
:104A8C003DFF08BD240300104035014074C00740B1
:104A9C000DF0ADBA440200103C050040F0ED00E012
:104AAC00A00500401056004000C000405802001005
:104ABC00E40E00403C17004030B40468B4FA84F3B0
:104ACC00D3F11F0315D401229A4024EA0202BFF34A
:104ADC005B8F50E8005FA54204D140E8002CBCF18C
:104AEC00000FF6D1BFF35B8FE7D10B70024830BCDF
:104AFC0070470248FBE700BF0000AD0B0200AD0B96
:104B0C0010B403680C4623FA01F111F0010F14D113
:104B1C0002680123A3401343BFF35B8F50E8001FCF
:104B2C00914204D140E8003CBCF1000FF6D1BFF338
:104B3C005B8FEDD1024810BC70470248FBE700BF09
:104B4C000000AD0B0400AD0B0B4BD96841F080722B
:104B5C00DA600A4B186840F001021A605A68074B79
:104B6C005B689B1AB3F50A5FF9D3044B186003F525
:104B7C005D43F033D9607047F0ED00E0001000E0C9
:104B8C00064B1B793BB9054B186001221A710022A8
:104B9C005A71034870470348704700BFD404002083
:104BAC000000AD0B0C00AD0B08B510B1012827D0DF
:104BBC0008BD4FF08042D2F8183403F00303D2F84A
:104BCC00182412F4803F13D14FF080430022C3F815
:104BDC001825114B00221A601B684FF080430222EB
:104BEC00C3F80423FFF7B0FF0C4B01221A60DFE778
:104BFC00012BE9D14FF080430122C3F81825E8E7D7
:104C0C00074B00221A601B684FF080430122C3F847
:104C1C0004231A60CCE700BF0401004008000040E8
:104C2C000001004030B583B0044618B1012813D000
:104C3C0003B030BD4FF080430222C3F8082303F5C4
:104C4C00827300221A601B68394B01221A60012CF6
:104C5C000FD042F2107552E001234FF08042C2F89F
:104C6C00083302F58072002111601268314A13601A
:104C7C00EDE701238DF8073042F2107518E04FF084
:104C8C008042D2F8183403F00303CDF80730D2F881
:104C9C00183413F4803F20D10023002B42D09DF810
:104CAC000730012B3ED1012003F009FB013D39D027
:104CBC00002CE4D0012C01D00023EEE74FF0804211
:104CCC00D2F80C3403F001038DF80730D2F80C3411
:104CDC0013F4803F03D10023DFE70123DDE7012339
:104CEC00DBE74FF08043D3F8183413F4803F15D131
:104CFC000023BBB1012003F0E2FA013D12D0002CDD
:104D0C00EFD0012C01D00023F3E74FF08043D3F810
:104D1C000C3413F4803F03D10023EAE70123E8E7C6
:104D2C000123E6E7012C83D1034B00225A717FE764
:104D3C000C00004004000040D404002008B51B4BBC
:104D4C001B6883B1194B00221A601B684FF080431B
:104D5C000122C3F80823164B5B7923B9144B5A7103
:104D6C001B6800209847134B1B689BB1114B00220A
:104D7C001A601B684FF08043D3F81824D3F818340A
:104D8C0012F0030F07D101234FF08042C2F81835FF
:104D9C000832136008BD4FF080430222C3F8082389
:104DAC00034B1B6801209847F4E700BF000100404B
:104DBC00D4040020040100400830034B33F81000E9
:104DCC0000F00100704700BF900000200830034B3A
:104DDC0033F81000C0F34010704700BF9000002063
:104DEC000830044B33F8100010F01C0018BF0120E1
:104DFC00704700BF900000200830034B33F81000C0
:104E0C00C0F34000704700BF900000200830024BF8
:104E1C0033F81000400B704790000020002204E093
:104E2C004FF0FF3383420FD001321F2A0AD802F110
:104E3C000803064931F8133013F4807FF0D0C3F324
:104E4C004323EFE7002070470120704790000020BB
:104E5C00002313B14FF0FF307047074A52F833204C
:104E6C00824201D00133F4E7034A02EBC3025268D9
:104E7C008A42F7D118467047900000200830064B44
:104E8C0033F8100010F4807F04D0C0F3432003EB00
:104E9C00C0007047002070479000002070B5044699
:104EAC000D46FFF7EBFF20B1066842682946204605
:104EBC00B047044B9B6823B1024AD268294620466E
:104ECC00984770BD9000002000F108020E4B33F89B
:104EDC00123013F4807F16D010B5C3F34324104660
:104EEC0023F4F853084A22F810302046FFF796FFB7
:104EFC0000B110BD0448002340F834302146543032
:104F0C00FFF7FEFDF5E770479000002010B5044652
:104F1C00FFF75CFF40B12046FFF778FF00F5A27069
:104F2C00064B002243F820202046FFF7CDFF083423
:104F3C00034B002223F8142010BD00BF006000407A
:104F4C009000002070B582B006460C461546FFF75F
:104F5C00BBFF24B329462046FFF77AFF031E13DB61
:104F6C00104A42F8334002EBC3014D605B029BB226
:104F7C0006F1080032F810100B4343F4807322F84A
:104F8C001030094802B070BD0DF107010748FFF75A
:104F9C0093FD054B9842F5D19DF80730E0E70248A8
:104FAC00F0E700BF900000200000AD0BE4000020F3
:104FBC00F0B583B0002301A808E04FF0A042D2F86E
:104FCC00201540F8041BC2F820150133002BF4D037
:104FDC0038E002AB03EB850353F8040C38B390FABA
:104FEC00A0F0B0FA80F000EB451000F10802174B6E
:104FFC0033F81210C60800F0070301AF012404FABD
:10500C0003F2BB5D23EA0203BB5500F01F074FF010
:10501C00A04607F5E07356F82320C2F30142C1F312
:10502C00820103F076F9BC40C6F82045D1E7013582
:10503C00002DCED0064B00221A601B6801A803F08D
:10504C00B6F908B10025F3E703B0F0BD90000020DD
:10505C007C61004038B50446CCB194FAA4F3B3FAA1
:10506C0083F301229A4024EA0204094A03F5A2734D
:10507C0052F82350C5F3042552F82300C0F3014025
:10508C0003F040F901462846FFF708FFE4E738BD76
:10509C00006000402DE9F843044615461E4659B3FE
:1050AC000F4603F019F9002840F0948004F01F0219
:1050BC0002F5E0714FF0A04353F82130002F3CD0A3
:1050CC000C2141F0030123EA0103002F37D039787A
:1050DC0089000B4302F5E0724FF0A04141F82230F9
:1050EC00404A04F1080132F8113023F002039BB25C
:1050FC0043F0010322F81130B5B195F80080D5F8D2
:10510C0004902046FFF778FED8B1B9F1000F63D1B7
:10511C00344B04F1080233F8120020F01C0080B26A
:10512C0040EA880023F81200002E59D072683168CA
:10513C002046FFF707FFBDE8F8830021C1E70021F7
:10514C00C7E7284B04F1080233F8127027F0200748
:10515C00FF04FF0C23F81270B9F1000FD8D0B8F18E
:10516C00030F3BD86B681D78B8F1000F06D105F51D
:10517C00A2751D4B002243F82520C9E7404603F0D9
:10518C00C2F8194B05F5A27253F8221021F0030155
:10519C0043F8221053F8221021F4473121F44071C6
:1051AC0043F8221053F822C0210201F4F8510004F4
:1051BC0000F4403001434CEA010143F822106D0326
:1051CC00ADB204F108032F4347F02007054A22F83B
:1051DC0013709DE70548AEE70448ACE70348AAE71F
:1051EC000348A8E790000020006000400400AD0BCD
:1051FC000000AD0BF8B50446164600294DD00D46FF
:10520C0003F079F828B12046FFF7E0FD002840F0C4
:10521C0096802046FFF7E4FD18B16B78012B00F067
:10522C009080A81C04F01F0202F5E0714FF0A0431F
:10523C0053F821106F1C74D0022343F00103002893
:10524C0071D04FF00C0C43EA0C03002D6ED04FF4D0
:10525C00E06C43EA0C0321EA0301002F69D06B7860
:10526C005B0043F00103002865D0A878800003435D
:10527C00002D62D02878000203430B4302F5E07244
:10528C004FF0A04141F82230324A04F1080132F8C3
:10529C00113043F0030322F81130002E53D0204676
:1052AC0003F029F8002850D1327802F5A2712A4B6C
:1052BC0043F82100274904F1080031F8103023F09D
:1052CC002003DB04DB0C21F81030717800293ED070
:1052DC0096F802C0204D02F5A27655F8260020F46F
:1052EC00981020F4F85045F8260055F82670200246
:1052FC0000F4F850090401F4403101434FEA0C501A
:10530C0000F480100143394345F82610520392B241
:10531C0008341A4342F020020E4B23F814200F4895
:10532C0012E0002389E74FF0000C8CE74FF0000CE3
:10533C008FE7002395E7002099E700209CE70848B9
:10534C0002E0074800E00548F8BD0548FCE70348C3
:10535C00FAE700BF90000020006000400000AD0B99
:10536C000400AD0B014B9860D96070479000002091
:10537C0038B504460D46FFF729FD40B104F108008D
:10538C00044B33F810305B0B2B70034838BD0348CB
:10539C00FCE700BF900000200000AD0B0400AD0B3B
:1053AC000F4B93F858300BB10E48704710B50C4C9E
:1053BC004022002104F1100002F004FD0620FDF74C
:1053CC0095F9094B00221A601B68084B4FF00042FC
:1053DC00C3F80423012384F858306365044810BDD6
:1053EC00900000200500AD0B7C6100400060004087
:1053FC000000AD0B034B93F85800003818BF012088
:10540C00704700BF9000002008B501460148FFF727
:10541C0077FB08BDE000002008B501460148FFF706
:10542C004BFB08BDE000002038B504460D46FFF7E5
:10543C00CDFC08B3204602F05EFFE8B12046FFF732
:10544C00E5FC830003F580739BB203F1804303F505
:10545C00C04300221A601B681D4A00F5A27152F865
:10546C00213043F0010342F8213065B3012303FAE4
:10547C0000F0C2F8040326E004F10803154A32F8E0
:10548C001330C3F38203042B0ED0052B1CD004F075
:10549C001F034FF0A042D2F8102522FA03F313F0A9
:1054AC00010F13D0032100E0032104F01F044FF07F
:1054BC00A04204F5E07452F8243023F4403343EA5C
:1054CC00014342F8243038BD0221EEE70221ECE71B
:1054DC00006000409000002010B50446FFF776FCF9
:1054EC00A0B1204602F007FF80B12046FFF78EFCEA
:1054FC00012282400C4BC3F8082300F5A27053F82C
:10550C00202022F0030243F820200BE004F01F04BB
:10551C004FF0A04204F5E07452F8243023F44033E9
:10552C0042F8243010BD00BF0060004010B50446A6
:10553C00FFF742FC08B9094810BD2046FFF7CCFF25
:10554C002046FFF7E3FC04F01F0404F5E0744FF071
:10555C00A043022243F824200148EDE70400AD0BE0
:10556C000000AD0B38B501204FF4807300210D46BF
:10557C0003E0400004339BB20131072914D803F136
:10558C00804202F5C0421268002AF2D00B4AD2F8CF
:10559C0004231042EDD003F1804202F5C0420024F6
:1055AC00146012680543E4E7054B1B681BB92846D9
:1055BC00FFF750FD38BDFFF7FBFCF8E7006000403B
:1055CC007C610040F8B506460D460479076804EB8B
:1055DC008400264901EBC001097F09B12448F8BDBC
:1055EC00224804EB840C00EBCC0140F83C204B60CF
:1055FC00EB7B81F82530EB788B776B79CB77294671
:10560C00384602F0EEFEAB68C7F824352A7B6B7B7C
:10561C00003B18BF0123022A21D0032A22D0012AE1
:10562C001AD0C7F854350123C7F8003504EB8403AE
:10563C000E4A52F8333023B1306840F30730FDF78F
:10564C0055F80A4B04EB840203EBC202002151779C
:10565C00012313770748C2E743F00203E1E743F065
:10566C000403DEE743F00603DBE700BFDC040020A5
:10567C000500AD0B0000AD0B38B50479056804EBE3
:10568C008402294B53F8323033B145F30730FDF720
:10569C003DF80423C5F808330023C5F8003504EBA6
:1056AC008403214A02EBC30393F82530A3BBD5F83E
:1056BC00083503F01F0303F5E0734FF0A0420221FD
:1056CC0042F82310D5F81035B3F1FF3F05D003F0A5
:1056DC001F0303F5E07342F82310D5F80C35B3F132
:1056EC00FF3F08D003F01F0303F5E0734FF0A04217
:1056FC00022142F8231004EB84030B4A02EBC30390
:10570C009B7FFF2B08D003F01F0303F5E0734FF0D2
:10571C00A042022142F8231004EB8404024B03EB59
:10572C00C4040023237738BDDC0400202DE9F041AC
:10573C00047904EB8403214F07EBC3077B7F002B19
:10574C0039D106460D46964604EB84031B4A52F8A3
:10575C0033300BB101227A7704EB840C174B03EB3B
:10576C00CC0C0CF10C0895E80F0088E80F00002316
:10577C008CF824309CF81E30FF2B08D003F01F034C
:10578C00012202FA03F34FF0A042C2F80C35BEF12D
:10579C00000F09D004EB8404084B03EBC404002372
:1057AC0063770748BDE8F0812A463946306802F035
:1057BC00F3FE0448F6E70448F4E700BFDC040020DD
:1057CC000300AD0B0000AD0B0B00AD0B08B502498F
:1057DC00024802F025FF08BDDC0400200030004028
:1057EC0010B5114C032323616361104AA261104B65
:1057FC00E3614FF4806323620023A3626362E3627C
:10580C0022660C4A62661022A2662367E36663670F
:10581C000949E01D02F073FA0849204602F06FFABC
:10582C002023A37110BD00BF040500205098000078
:10583C00BC050020AC0500205C98000060980000BE
:10584C002DE9F84304460E46154600EB40032D4A5D
:10585C0002EBC302936A576ABB424BD800EB40027F
:10586C00284901EBC202D2F82080A8EB070909F104
:10587C00FF32954204D913449D4216D900203EE0D4
:10588C00DFF88080631C03EB430308EBC303586809
:10589C002A463146384402F071FA3D4404EB440484
:1058AC0008EBC4046562012029E0431C03EB4303AD
:1058BC00144A02EBC30358684A463146384402F096
:1058CC005DFAA7EB08077F1907D104EB44040D4BD5
:1058DC0003EBC4046762012011E0631C03EB430378
:1058EC00084A02EBC3033A4606EB0901586802F07A
:1058FC0045FAEAE7DB1B013BAB42C1D20020BDE815
:10590C00F88300BF04050020F8B50F461646184B67
:10591C00451C05EB450503EBC50500EB400003EB0F
:10592C00C000C46A012C11D0022C1CD014B100246C
:10593C002046F8BD284602F082FE8642F8D8324650
:10594C003946284602F087FE3446F1E7284602F035
:10595C0076FE3446864228BF0446224639462846FF
:10596C0002F079FEE4E7284602F097FE0446DFE7F2
:10597C0004050020064B00EB400203EBC202926AC6
:10598C0000EB400003EBC000406A801A704700BF78
:10599C0004050020034B044A934201D21833FAE762
:1059AC00704700BFC88C0000108D000070B5064613
:1059BC00114B53F8204009E0404217E0EB68187097
:1059CC00EA68537843F0010353700834731C0A4A95
:1059DC0052F82330A3420DD96568236828469847AE
:1059EC00002DF2D00028EBD00028E5DBFF28E5DD08
:1059FC00FF20E3E770BD00BF6898000038B505468E
:105A0C0028B303782BB3144C00E01834134B9C428E
:105A1C0008D0204602F079FE0028F6D02368AB426D
:105A2C00F3D112E00C4C00E018340C4B9C420BD020
:105A3C00204602F06AFE0028F6D02168284602F0C3
:105A4C0093F90028F0D100E00024204638BD04462C
:105A5C00FBE70024F9E700BFC88C0000108D0000A4
:105A6C0004280CD8DFE800F0030D050709000648F0
:105A7C007047064870470648704706487047064806
:105A8C0070470648704700BFD0980000A4980000EB
:105A9C00B4980000C0980000809800009098000016
:105AAC0030B108B502F0A7FE20B1037823B108BDD0
:105ABC00024870470148FAE70048F8E7E098000010
:105ACC002DE9F04182B005460E464FF02003EFF36E
