:10000000601D0020014D0000E99D0000B94C00007A
:10001000B94C0000B94C0000B94C000000000000D1
:10002000000000000000000000000000F14300009C
:10003000B94C00000000000099430000B94C0000DA
:10004000DD440000DD440000DD440000DD4400002C
:10005000DD440000DD440000DD440000DD4400001C
:10006000DD440000DD440000DD440000DD4400000C
:10007000DD440000DD440000DD440000DD440000FC
:10008000DD440000DD440000DD440000DD440000EC
:10009000DD440000DD440000DD440000DD440000DC
:1000A000DD440000DD440000DD440000DD440000CC
:1000B000DD440000DD440000DD440000DD440000BC
:1000C000DD440000DD440000DD440000DD440000AC
:0C00D000DD440000DD440000DD440000C1
:0400DC00FFFFFFFF24
:1000E00081F0004102E000BF83F0004330B54FEAE9
:1000F00041044FEA430594EA050F08BF90EA020F56
:100100001FBF54EA000C55EA020C7FEA645C7FEAE8
:10011000655C00F0E2804FEA5454D4EB5555B8BF0B
:100120006D420CDD2C4480EA020281EA030382EA7C
:10013000000083EA010180EA020281EA0303362D0E
:1001400088BF30BD11F0004F4FEA01314FF4801CE1
:100150004CEA113102D0404261EB410113F0004FF3
:100160004FEA03334CEA133302D0524263EB4303AA
:1001700094EA050F00F0A780A4F10104D5F1200E48
:100180000DDB02FA0EFC22FA05F2801841F10001A3
:1001900003FA0EF2801843FA05F359410EE0A5F177
:1001A00020050EF1200E012A03FA0EFC28BF4CF0A8
:1001B000020C43FA05F3C01851EBE37101F000455E
:1001C00007D54FF0000EDCF1000C7EEB00006EEB6B
:1001D0000101B1F5801F1BD3B1F5001F0CD34908F5
:1001E0005FEA30004FEA3C0C04F101044FEA44524C
:1001F00012F5800F80F09A80BCF1004F08BF5FEAD3
:10020000500C50F1000041EB045141EA050130BDB2
:100210005FEA4C0C404141EB0101013C28BFB1F5C4
:10022000801FE9D291F0000F04BF01460020B1FA0F
:1002300081F308BF2033A3F10B03B3F120020CDAE2
:100240000C3208DD02F1140CC2F10C0201FA0CF0C0
:1002500021FA02F10CE002F11402D8BFC2F1200C25
:1002600001FA02F120FA0CFCDCBF41EA0C019040DB
:10027000E41AA2BF01EB0451294330BD6FEA040424
:100280001F3C1CDA0C340EDC04F11404C4F120020F
:1002900020FA04F001FA02F340EA030021FA04F321
:1002A00045EA030130BDC4F10C04C4F1200220FA78
:1002B00002F001FA04F340EA0300294630BD21FAB6
:1002C00004F0294630BD94F0000F83F4801306BF7C
:1002D00081F480110134013D4EE77FEA645C18BF70
:1002E0007FEA655C29D094EA050F08BF90EA020F07
:1002F00005D054EA000C04BF1946104630BD91EAFF
:10030000030F1EBF0021002030BD5FEA545C05D101
:100310004000494128BF41F0004130BD14F5800440
:100320003CBF01F5801130BD01F0004545F0FE41B4
:1003300041F470014FF0000030BD7FEA645C1ABFE9
:10034000194610467FEA655C1CBF0B46024650EA20
:10035000013406BF52EA033591EA030F41F400214C
:1003600030BD00BF90F0000F04BF0021704730B5D2
:100370004FF4806404F132044FF000054FF00001A7
:1003800050E700BF90F0000F04BF0021704730B568
:100390004FF4806404F1320410F0004548BF40423D
:1003A0004FF000013EE700BF42004FEAE2014FEA92
:1003B00031014FEA02701FBF12F07F4393F07F4F6D
:1003C00081F06051704732F07F4208BF704793F070
:1003D0007F4F04BF41F40021704730B54FF4607483
:1003E00001F0004521F000411CE700BF50EA010286
:1003F00008BF704730B54FF000050AE050EA01022F
:1004000008BF704730B511F0004502D5404261EB9E
:1004100041014FF4806404F132045FEA915C3FF4DF
:10042000D8AE4FF003025FEADC0C18BF03325FEA7C
:10043000DC0C18BF033202EBDC02C2F1200300FA2D
:1004400003FC20FA02F001FA03FE40EA0E0021FA52
:1004500002F11444BDE600BF70B54FF0FF0C4CF440
:10046000E06C1CEA11541DBF1CEA135594EA0C0FF2
:1004700095EA0C0F00F0DEF82C4481EA030621EA2D
:100480004C5123EA4C5350EA013518BF52EA033568
:1004900041F4801143F4801338D0A0FB02CE4FF01A
:1004A0000005E1FB02E506F00042E0FB03E54FF04A
:1004B0000006E1FB03569CF0000F18BF4EF0010E42
:1004C000A4F1FF04B6F5007F64F5407404D25FEA3E
:1004D0004E0E6D4146EB060642EAC62141EA5551F1
:1004E0004FEAC52040EA5E504FEACE2EB4F1FD0C33
:1004F00088BFBCF5E06F1ED8BEF1004F08BF5FEAB1
:10050000500E50F1000041EB045170BD06F0004662
:1005100046EA010140EA020081EA0301B4EB5C040F
:10052000C2BFD4EB0C0541EA045170BD41F4801107
:100530004FF0000E013C00F3AB8014F1360FDEBF2C
:10054000002001F0004170BDC4F10004203C35DA08
:100550000C341BDC04F11404C4F1200500FA05F38B
:1005600020FA04F001FA05F240EA020001F000422C
:1005700021F0004110EBD37021FA04F642EB0601A2
:100580005EEA430E08BF20EAD37070BDC4F10C04CC
:10059000C4F1200500FA04F320FA05F001FA04F290
:1005A00040EA020001F0004110EBD37041F100017C
:1005B0005EEA430E08BF20EAD37070BDC4F1200587
:1005C00000FA05F24EEA020E20FA04F301FA05F2EF
:1005D00043EA020321FA04F001F0004121FA04F297
:1005E00020EA020000EBD3705EEA430E08BF20EA67
:1005F000D37070BD94F0000F0FD101F000464000A1
:1006000041EB010111F4801F08BF013CF7D041EA22
:10061000060195F0000F18BF704703F00046520026
:1006200043EB030313F4801F08BF013DF7D043EAF7
:100630000603704794EA0C0F0CEA135518BF95EAAD
:100640000C0F0CD050EA410618BF52EA4306D1D134
:1006500081EA030101F000414FF0000070BD50EA53
:10066000410606BF1046194652EA430619D094EADD
:100670000C0F02D150EA013613D195EA0C0F05D1C7
:1006800052EA03361CBF104619460AD181EA03011B
:1006900001F0004141F0FE4141F470014FF00000D3
:1006A00070BD41F0FE4141F4780170BD70B54FF06E
:1006B000FF0C4CF4E06C1CEA11541DBF1CEA1355EE
:1006C00094EA0C0F95EA0C0F00F0A7F8A4EB0504D0
:1006D00081EA030E52EA03354FEA013100F08880C7
:1006E0004FEA03334FF0805545EA131343EA126390
:1006F0004FEA022245EA111545EA10654FEA002645
:100700000EF000419D4208BF964244F1FD0404F5FD
:10071000407402D25B084FEA3202B61A65EB030559
:100720005B084FEA32024FF480104FF4002CB6EB16
:10073000020E75EB030E22BFB61A754640EA0C0096
:100740005B084FEA3202B6EB020E75EB030E22BFD6
:10075000B61A754640EA5C005B084FEA3202B6EB17
:10076000020E75EB030E22BFB61A754640EA9C00D6
:100770005B084FEA3202B6EB020E75EB030E22BFA6
:10078000B61A754640EADC0055EA060E18D04FEA64
:10079000051545EA16754FEA06164FEAC30343EA04
:1007A00052734FEAC2025FEA1C1CC0D111F4801FD1
:1007B0000BD141EA00014FF000004FF0004CB6E7CA
:1007C00011F4801F04BF01430020B4F1FD0C88BF69
:1007D000BCF5E06F3FF6AFAEB5EB030C04BFB6EB74
:1007E000020C5FEA500C50F1000041EB045170BD67
:1007F0000EF0004E4EEA113114EB5C04C2BFD4EB94
:100800000C0541EA045170BD41F480114FF0000E17
:10081000013C90E645EA060E8DE60CEA135594EA93
:100820000C0F08BF95EA0C0F3FF43BAF94EA0C0F96
:100830000AD150EA01347FF434AF95EA0C0F7FF40B
:1008400025AF104619462CE795EA0C0F06D152EA5F
:1008500003353FF4FDAE1046194622E750EA410643
:1008600018BF52EA43067FF4C5AE50EA41047FF454
:100870000DAF52EA43057FF4EBAE12E74FF0FF3CB9
:1008800006E000BF4FF0010C02E000BF4FF0010C8A
:100890004DF804CD4FEA410C7FEA6C5C4FEA430C03
:1008A00018BF7FEA6C5C1BD001B050EA410C0CBF52
:1008B00052EA430C91EA030F02BF90EA020F0020B4
:1008C000704710F1000F91EA030F58BF994208BF1B
:1008D00090422CBFD8176FEAE37040F001007047D8
:1008E0004FEA410C7FEA6C5C02D150EA013C07D12F
:1008F0004FEA430C7FEA6C5CD6D152EA033CD3D07A
:100900005DF8040B704700BF8446104662468C4673
:100910001946634600E000BF01B5FFF7B7FF0028A6
:1009200048BF10F1000F01BD4DF808EDFFF7F4FFCF
:100930000CBF012000205DF808FB00BF4DF808ED5A
:10094000FFF7EAFF34BF012000205DF808FB00BF7D
:100950004DF808EDFFF7E0FF94BF012000205DF89F
:1009600008FB00BF4DF808EDFFF7CEFF94BF012054
:1009700000205DF808FB00BF4DF808EDFFF7C4FF4D
:1009800034BF012000205DF808FB00BF4FEA4102A0
:10099000B2F1E04324BFB3F5001CDCF1FE5C0DD9DD
:1009A00001F0004C4FEAC0024CEA5070B2F1004F27
:1009B00040EB830008BF20F00100704711F0804F2A
:1009C00021D113F13872BCBF01F00040704741F4EF
:1009D00080114FEA5252C2F11802C2F1200C10FAF3
:1009E0000CF320FA02F018BF40F001004FEAC123D7
:1009F0004FEAD32303FA0CFC40EA0C0023FA02F37B
:100A00004FEA4303CCE77FEA625307D150EA013350
:100A10001EBF4FF0FE4040F44000704701F0004020
:100A200040F0FE4040F40000704700BF80F00040FE
:100A300002E000BF81F0004142001FBF5FEA4103B6
:100A400092EA030F7FEA226C7FEA236C6AD04FEAB6
:100A50001262D2EB1363C1BFD218414048404140FB
:100A6000B8BF5B42192B88BF704710F0004F40F4AD
:100A7000000020F07F4018BF404211F0004F41F4C9
:100A8000000121F07F4118BF494292EA030F3FD095
:100A9000A2F1010241FA03FC10EB0C00C3F12003A8
:100AA00001FA03F100F0004302D5494260EB400037
:100AB000B0F5000F13D3B0F1807F06D340084FEAA2
:100AC000310102F10102FE2A51D2B1F1004F40EB97
:100AD000C25008BF20F0010040EA030070474900FF
:100AE00040EB0000013A28BFB0F5000FEDD2B0FA9C
:100AF00080FCACF1080CB2EB0C0200FA0CF0AABFBF
:100B000000EBC25052421843BCBFD040184370475C
:100B100092F0000F81F4000106BF80F40000013262
:100B2000013BB5E74FEA41037FEA226C18BF7FEA39
:100B3000236C21D092EA030F04D092F0000F08BF7B
:100B40000846704790EA010F1CBF0020704712F062
:100B50007F4F04D1400028BF40F00040704712F1A1
:100B600000723CBF00F50000704700F0004343F006
:100B7000FE4040F4000070477FEA226216BF08463C
:100B80007FEA23630146420206BF5FEA412390EAFF
:100B9000010F40F4800070474FF0000304E000BFF5
:100BA00010F0004348BF40425FEA000C08BF7047A6
:100BB00043F0964301464FF000001CE050EA01026A
:100BC00008BF70474FF000030AE000BF50EA01027F
:100BD00008BF704711F0004302D5404261EB41016C
:100BE0005FEA010C02BF84460146002043F0B64391
:100BF00008BFA3F18053A3F50003BCFA8CF2083AB6
:100C0000A3EBC25310DB01FA02FC634400FA02FCBE
:100C1000C2F12002BCF1004F20FA02F243EB0200C5
:100C200008BF20F00100704702F1200201FA02FC27
:100C3000C2F1200250EA4C0021FA02F243EB02001A
:100C400008BF20EADC7070474FF0FF0C1CEAD0525E
:100C50001EBF1CEAD15392EA0C0F93EA0C0F6FD01F
:100C60001A4480EA010C400218BF5FEA41211ED0FD
:100C70004FF0006343EA501043EA5111A0FB0131E9
:100C80000CF00040B1F5000F3EBF490041EAD371BE
:100C90005B0040EA010062F17F02FD2A1DD8B3F13A
:100CA000004F40EBC25008BF20F00100704790F0A9
:100CB000000F0CF0004C08BF49024CEA502040EAFB
:100CC00051207F3AC2BFD2F1FF0340EAC2507047C1
:100CD00040F400004FF00003013A5DDC12F1190FFF
:100CE000DCBF00F000407047C2F10002410021FA71
:100CF00002F1C2F1200200FA02FC5FEA310040F189
:100D0000000053EA4C0308BF20EADC70704792F001
:100D1000000F00F0004C02BF400010F4000F013A39
:100D2000F9D040EA0C0093F0000F01F0004C02BF34
:100D3000490011F4000F013BF9D041EA0C018FE7A3
:100D40000CEAD15392EA0C0F18BF93EA0C0F0AD0A9
:100D500030F0004C18BF31F0004CD8D180EA0100CF
:100D600000F00040704790F0000F17BF90F0004F68
:100D7000084691F0000F91F0004F14D092EA0C0F4A
:100D800001D142020FD193EA0C0F03D14B0218BFDD
:100D9000084608D180EA010000F0004040F0FE4023
:100DA00040F40000704740F0FE4040F440007047BF
:100DB0004FF0FF0C1CEAD0521EBF1CEAD15392EA3E
:100DC0000C0F93EA0C0F69D0A2EB030280EA010C2E
:100DD00049024FEA402037D04FF0805343EA1111C7
:100DE00043EA10130CF000408B4238BF5B0042F125
:100DF0007D024FF4000C8B4224BF5B1A40EA0C00CA
:100E0000B3EB510F24BFA3EB510340EA5C00B3EBFB
:100E1000910F24BFA3EB910340EA9C00B3EBD10FE9
:100E200024BFA3EBD10340EADC001B0118BF5FEA3B
:100E30001C1CE0D1FD2A3FF650AF8B4240EBC25064
:100E400008BF20F0010070470CF0004C4CEA502025
:100E50007F32C2BFD2F1FF0340EAC250704740F474
:100E600000004FF00003013A37E792F0000F00F066
:100E7000004C02BF400010F4000F013AF9D040EAE4
:100E80000C0093F0000F01F0004C02BF490011F478
:100E9000000F013BF9D041EA0C0195E70CEAD15370
:100EA00092EA0C0F08D142027FF47DAF93EA0C0F57
:100EB0007FF470AF084676E793EA0C0F04D14B023B
:100EC0003FF44CAF08466EE730F0004C18BF31F0ED
:100ED000004CCAD130F000427FF45CAF31F00043E7
:100EE0007FF43CAF5FE700BF4FF0FF3C06E000BF80
:100EF0004FF0010C02E000BF4FF0010C4DF804CDA3
:100F00004FEA40024FEA41037FEA226C18BF7FEAB2
:100F1000236C11D001B052EA530C18BF90EA010FB4
:100F200058BFB2EB030088BFC81738BF6FEAE17043
:100F300018BF40F0010070477FEA226C02D15FEADF
:100F4000402C05D17FEA236CE4D15FEA412CE1D04B
:100F50005DF8040B704700BF844608466146FFE712
:100F60000FB5FFF7C9FF002848BF10F1000F0FBDF4
:100F70004DF808EDFFF7F4FF0CBF012000205DF8ED
:100F800008FB00BF4DF808EDFFF7EAFF34BF012072
:100F900000205DF808FB00BF4DF808EDFFF7E0FF0B
:100FA00094BF012000205DF808FB00BF4DF808ED5C
:100FB000FFF7D2FF94BF012000205DF808FB00BFBF
:100FC0004DF808EDFFF7C8FF34BF012000205DF8A1
:100FD00008FB00BF4FEA4002B2F1FE4F0FD34FF0C3
:100FE0009E03B3EB12620DD94FEA002343F0004396
:100FF00010F0004F23FA02F018BF404270474FF044
:101000000000704712F1610F01D1420205D110F0CA
:10101000004008BF6FF0004070474FF0000070477D
:1010200053B94AB9002908BF00281CBF4FF0FF314F
:101030004FF0FF3000F06CB9ADF1080C6DE904CE53
:1010400000F006F8DDF804E0DDE9022304B07047A3
:101050002DE9F047089E0D4604468E46002B40F0D1
:1010600082808A42174646D9B2FA82F24AB1C2F168
:10107000200105FA02F320FA01F1974041EA030E3C
:1010800094404FEA1748230CBEFBF8FCB9B208FBAA
:101090001CEE43EA0E430CFB01F098420AD9FB1800
:1010A0000CF1FF3580F01681984240F21381ACF1CB
:1010B000020C3B441B1AA4B2B3FBF8F008FB10333C
:1010C00044EA034400FB01F1A14209D93C1900F1B3
:1010D000FF3380F00181A14240F2FE8002383C449F
:1010E000641A40EA0C4000211EB1D4400023C6E936
:1010F0000043BDE8F08702B9FFDEB2FA82F2002AAF
:101100004FD1CB1B4FEA174E1FFA87F80121B3FBD3
:10111000FEFC250C0EFB1C3345EA034508FB0CF3D3
:10112000AB4207D97D190CF1FF3002D2AB4200F27D
:10113000E7808446ED1AA3B2B5FBFEF00EFB105516
:1011400043EA054408FB00F8A04507D93C1900F123
:10115000FF3302D2A04500F2D7801846A4EB080462
:1011600040EA0C40C0E78B4208D9002E00F0AF8067
:101170000021C6E900050846BDE8F087B3FA83F10F
:1011800000294BD1AB4202D3824200F2B780841ACD
:1011900065EB030301209E46002EAAD0C6E9004E4F
:1011A000A7E7C2F1200C01FA02F3974020FA0CF0F5
:1011B0004FEA174E21FA0CFC1843BCFBFEF1050C5C
:1011C0000EFB11CC1FFA87F845EA0C4501FB08F32A
:1011D000AB4204FA02F409D97D1901F1FF3C80F019
:1011E0008B80AB4240F2888002393D44EB1A85B2D5
:1011F000B3FBFEF00EFB103345EA034500FB08F39A
:10120000AB4207D97D1900F1FF3C71D2AB426FD9D7
:1012100002383D44EB1A40EA014178E7C1F1200C65
:101220008B4022FA0CF71F4320FA0CF405FA01F365
:101230004FEA174E25FA0CF51C43230CB5FBFEF9BB
:101240001FFA87F80EFB195543EA054509FB08FA12
:10125000AA4502FA01F200FA01F308D97D1909F151
:10126000FF3047D2AA4545D9A9F102093D44A5EB73
:101270000A05A4B2B5FBFEF00EFB105544EA054486
:1012800000FB08F8A04507D93C1900F1FF352DD225
:10129000A0452BD902383C4440EA0940A4EB08049D
:1012A000A0FB02894C45C6464D4619D316D05EB107
:1012B000B3EB0E0264EB050404FA0CFCCA404CEAE2
:1012C0000202CC40C6E900240021BDE8F087314687
:1012D00030460EE7AC46EDE6184601E74345E6D258
:1012E000B8EB020E69EB07050138E0E72846D3E7C3
:1012F00060468FE78146BAE7614677E708464BE7E5
:10130000ACF1020C3D4415E702383C4426E700BF2F
:10131000704700BF4FEA410C7FEA6C5C02D150EA93
:10132000013C0AD14FEA430C7FEA6C5C02D152EADD
:10133000033C02D14FF0000070474FF001007047AE
:1013400010F8012B11F8013B012A28BF9A42F7D06F
:10135000D01A7047034613F8012B002AFBD1181A44
:10136000013870470000000084B02DE9F04F89B0CB
:10137000019013A880E80E001398FFF715F8804637
:1013800089461498FFF710F882468B461598FFF7A8
:101390000BF804460D461698FFF706F806460F466A
:1013A00052465B46CDE9028940464946FFF754F86C
:1013B0008046894632463B4620462946FFF74CF890
:1013C00002460B4640464946FEF790FECDE9040131
:1013D00052465B4650465946FFF73EF880468946DE
:1013E00022462B4620462946FFF736F80A46014694
:1013F000CDE906121346024640464946FEF776FE00
:1014000002460B46FEF772FE02460B4600204A4992
:10141000FEF76AFE80468946DDE9040102460B4676
:10142000FEF764FE42464B4607F096FB0022434B14
:10143000FFF712F83EA3D3E90023FFF737F9FFF7D0
:10144000A5FA019A106022462B46DDE90201FFF75A
:1014500003F88046894632463B4650465946FEF7D9
:10146000FBFF02460B4640464946FEF73DFE02465C
:101470000B46FEF73BFE07F017FB00222F4BFEF753
:10148000EBFF2BA3D3E90023FFF710F9FFF77EFA58
:101490000199486032463B46DDE90201FEF7DCFF78
:1014A0008046894622462B4650465946FEF7D4FFD1
:1014B00002460B4640464946FEF718FE04460D46D6
:1014C00032463B4630463946FEF7C6FF02460B46DB
:1014D000DDE90601FEF70AFE02460B46FEF706FEB0
:1014E00002460B4600201449FEF7FEFD8046894661
:1014F00022462B4620462946FEF7F8FD42464B463B
:1015000007F02AFB00220D4BFEF7A6FF08A3D3E944
:101510000023FFF7CBF8FFF739FA019B98601846D4
:1015200009B0BDE8F04F04B0704700BFAFF30080D2
:101530001F85EB51B81E09400000F03F0080664057
:10154000F8B504460F46154603F10040FEF72CFFA0
:101550000022134BFEF7CAFD07F000FB0EA3D3E9F0
:101560000023FEF779FFFFF711FA014620604FF0E4
:101570007C50FFF71DFC064605F100403146FFF7A1
:1015800063FB606039463046FFF75EFBA0600023D6
:10159000E3602046F8BD00BF1B0DE02D90A0E63FA4
:1015A0000000F03F0000000082B000B587B00DF1F0
:1015B000180C0CE9070008AA42F8043F5CE9020194
:1015C0008DE80300039B07CA07F09FFEFEF7ECFEC1
:1015D00007A3D3E90023FFF7BBF928B9064807B0F2
:1015E0005DF804EB02B070470448F8E7AFF3008001
:1015F000B81E85EB51B8EE3F0000204100002042AC
:101600002DE9F04FCA4B21F000479F4287B00C46AE
:10161000054616DD07F1404707F5801703463B43B3
:1016200000F00C8102460B46FEF75EFD02460B46BB
:10163000FFF73CF803460A461846114607B0BDE8D6
:10164000F08FBC4B9F420E460FDCB7F1795F80F202
:1016500079819BA3D3E90023FEF748FDB64B002216
:10166000FFF78AF9002840F027812846214607F035
:1016700099FB02460B460020AF49FEF735FDAF4B04
:101680000022FEF7E9FE90A3D3E9002304460D46AD
:10169000FEF7E2FE8EA3D3E90023FEF727FD2246E4
:1016A0002B46FEF7D9FE8CA3D3E90023FEF71CFDE1
:1016B00022462B46FEF7D0FE89A3D3E90023FEF78E
:1016C00015FD22462B46FEF7C7FE87A3D3E900236C
:1016D000FEF70AFD22462B46FEF7BEFE84A3D3E9A1
:1016E0000023FEF703FD22462B46FEF7B5FE82A33C
:1016F000D3E900238046894620462946CDE9028960
:10170000FEF7AAFE7EA3D3E90023FEF7EDFC2246F6
:101710002B46FEF7A1FE7CA3D3E90023FEF7E6FCEF
:1017200022462B46FEF798FE79A3D3E90023FEF765
:10173000DBFC22462B46FEF78FFE7F4B0022FEF796
:10174000D5FC02460B4692469B4620462946CDE9EB
:1017500004AB07F063FADFF8E8C1674580468946C5
:1017600000F389808B464FF0000A02460B46CDE914
:1017700000ABFEF7BBFCDDE9042382468B46DDE9C6
:101780000201FEF793FF02460B4650465946FEF70C
:1017900063FEDDE9002382468B4610461946FEF7BC
:1017A0005BFE02460B4620462946FEF79DFCDDE91E
:1017B000002304460D4640464946FEF797FC024684
:1017C0000B4620462946FEF771FF02460B46FEF700
:1017D0008DFC02460B4650A1D1E90001FEF784FCC6
:1017E00002460B4650465946FEF77EFCDDE90023D3
:1017F00004460D4610461946FEF778FC02460B4695
:1018000047A1D1E90001FEF76FFC02460B462046D6
:101810002946FEF769FC02460B4641A1D1E90001C9
:10182000FEF762FC03460A46002E3FF705AF02F1C1
:1018300000421846114607B0BDE8F08F3AA3D3E93D
:101840000023FEF709FE02460B46284621461D46A8
:10185000144631A3D3E90023FEF7FEFD02460B46F2
:1018600020462946FEF742FC03460A461846114622
:1018700007B0BDE8F08F52465B46DDE90201FEF796
:1018800015FF42464B46FEF7E7FD42464B46FEF744
:101890002DFC02460B46FEF729FC1FA3D3E90023CB
:1018A000FEF722FC02460B461FA1D1E90001FEF71C
:1018B0001BFC03460A46B7E72B462246BCE600BFA0
:1018C0009C7500883CE4377E09F7FD0DE13D023F41
:1018D00088B20175E0EF493F3B8F68B52882A43F8D
:1018E0005544880E55C1C93F7D6FEB0312D6D43FD6
:1018F000555555555555C53F82922EB1C5B8B33F84
:1019000059018D1B6C06E63FC88A599CE52A0040A8
:101910004B2D8A1C273A0340075C143326A6913CC2
:10192000182D4454FB21E93F182D4454FB21F93F65
:10193000FFFFEF3FFFFFDF3F0000F03F0000E03F11
:101940003233EF3F02460B46FEF786FD38A3D3E95C
:10195000002306460F46FEF77FFD37A3D3E9002399
:10196000FEF7C4FB32463B46FEF776FD34A3D3E9CF
:101970000023FEF7B9FB32463B46FEF76DFD32A36E
:10198000D3E90023FEF7B2FB32463B46FEF764FD87
:101990002FA3D3E90023FEF7A7FB32463B46FEF711
:1019A0005BFD2DA3D3E90023FEF7A0FB32463B46A7
:1019B000FEF752FD2AA3D3E900238046894630462C
:1019C0003946FEF749FD28A3D3E90023FEF78CFB37
:1019D00032463B46FEF740FD25A3D3E90023FEF740
:1019E00085FB32463B46FEF737FD23A3D3E90023B0
:1019F000FEF77AFB32463B46FEF72EFD204B0022D7
:101A0000FEF774FB02460B4640464946FEF74EFE83
:101A10002A462346FEF720FD2A462346FEF766FBAC
:101A200003460A461846114607B0BDE8F08F00BFCE
:101A300009F7FD0DE13D023F88B20175E0EF493F36
:101A40003B8F68B52882A43F5544880E55C1C93FD5
:101A50007D6FEB0312D6D43F555555555555C53FAF
:101A600082922EB1C5B8B33F59018D1B6C06E63F7B
:101A7000C88A599CE52A00404B2D8A1C273A03400E
:101A80000000F03F000000002DE9F84F1F465342D0
:101A90005F4E134327F0004949EAD373B34294469B
:101AA0000D4686463BD84442044321F0004A4AEAA8
:101AB000D474B44203468B4631D807F1404404F550
:101AC000801414433BD0BC1704F002045AEA030309
:101AD00044EAD1742BD059EA020334D0B14545D041
:101AE000B24530D0AAEB0909B9F1747F4FEA295306
:101AF00038DA002F46DA3C3344DA00200021012C8A
:101B000058D0022C49D084B135A3D3E90023FEF785
:101B1000EBFA35A3D3E90023FEF7E6FA05E07246B7
:101B200060462B463946FEF7E1FABDE8F88F022CF5
:101B300010D0032CF9D12EA1D1E90001F5E7BDE8C1
:101B4000F84F00F06DB8BBF1000F07DB2AA1D1E917
:101B50000001EAE724A1D1E90001E6E728A1D1E9E3
:101B60000001E2E724A1D1E90001C8E7CA4504F178
:101B7000FF3423D0022C29D8264B03EBC404D4E92C
:101B80000001D2E7624670463B462946FEF78EFDCD
:101B900007F008F900F044F8B1E711A3D3E90023F6
:101BA000FEF7A2FA02460B460FA1D1E90001FEF7AB
:101BB0009BFABAE701F100431946B6E7022C08D8B0
:101BC000154B03EBC404D4E90001AEE7002000216B
:101BD000ABE70DA1D1E90001A7E700BFAFF300809B
:101BE000075C143326A6A13C182D4454FB21094060
:101BF000182D4454FB2109C0182D4454FB21F93FF2
:101C0000182D4454FB21F9BF182D4454FB21E93F02
:101C10000000F07F40B0000028B00000000000008D
:101C20002DE9F04FC64B83B021F000469E4204469A
:101C300001918A4611DDC34B9E4200F3B88000F04B
:101C4000B380C14BC14AC24CBAF1000FD8BF134692
:101C50002046194603B0BDE8F08FBE4B9E4200F30C
:101C6000C180A3F1DE739E4240F3AE804FF0FF3B94
:101C7000019B224619462046FEF7EEFB02460B4624
:101C800080468946FEF7E8FB95A3D3E90023064684
:101C90000F46FEF7E1FB94A3D3E90023FEF726FAF3
:101CA00032463B46FEF7D8FB91A3D3E90023FEF76B
:101CB0001DFA32463B46FEF7CFFB8FA3D3E9002344
:101CC000FEF714FA32463B46FEF7C6FB8CA3D3E977
:101CD0000023FEF70BFA32463B46FEF7BDFB8AA314
:101CE000D3E90023FEF702FA42464B46FEF7B4FB67
:101CF00087A3D3E900238046894630463946FEF75C
:101D0000ABFB85A3D3E90023FEF7EEF932463B4651
:101D1000FEF7A2FB82A3D3E90023FEF7E5F93246E2
:101D20003B46FEF799FB80A3D3E90023FEF7DCF9DD
:101D300032463B46FEF790FB7DA3D3E90023FEF736
:101D4000D3F932463B46FEF787FBBBF1FF3F024625
:101D50000B466ED040464946FEF7C8F97E4E019BC1
:101D60002246FEF779FB7D4B06EBCB064FEACB0B09
:101D70009B44DBE90023FEF7B7F92246019BFEF7FF
:101D8000B3F90B460246D6E90001FEF7ADF9BAF108
:101D9000000F04460B46BFF65BAF01F1004320463F
:101DA000194603B0BDE8F08F00283FF44AAF019B0D
:101DB000224620461946FEF799F904460B4620466E
:101DC000194603B0BDE8F08F5BA3D3E90023FEF70B
:101DD0008DF9634B0022FEF7CFFD00283FF446AF9C
:101DE000534635E706F0DEFF5E4B9E4204460D4645
:101DF00034DCA3F550239E4259DC02460B46FEF725
:101E000075F9574B0022FEF76FF9002206460F4680
:101E100020464FF080432946FEF768F902460B46FC
:101E200030463946FEF742FC4FF0000B0446019164
:101E30001EE740464946FEF759F9019B2246FEF748
:101E40000BFB02460B4620460199FEF74DF904466E
:101E50000B462046194603B0BDE8F08F424B9E4228
:101E60001ADA424B0022FEF73FF9404B06460F4676
:101E7000002220462946FEF7EFFA394B0022FEF7F2
:101E800035F902460B4630463946FEF70FFC4FF057
:101E9000020B04460191EBE602460B460020344952
:101EA000FEF704FC4FF0030B04460191E0E62C4BD7
:101EB0000022FEF719F92A4B06460F46204600225B
:101EC0002946FEF713F902460B4630463946FEF71F
:101ED000EDFB4FF0010B04460191C9E6AFF3008022
:101EE00011DA22E33AAD903FEB0D76244B7BA93F0C
:101EF000513DD0A0660DB13F6E204CC5CD45B73FDA
:101F0000FF8300922449C23F0D5555555555D53F85
:101F10002F6C6A2C44B4A2BF9AFDDE522DDEAD3F79
:101F20006D9A74AFF2B0B33F711623FEC671BC3F19
:101F3000C4EB98999999C93F9C7500883CE4377E19
:101F4000FFFF0F440000F07FFB21F93FFB21F9BFA9
:101F5000182D4454FFFFDB3F58B0000078B000005C
:101F60000000F03FFFFFF23F008003400000F83F19
:101F70000000F0BF2DE9F0418CB07949794807F0B5
:101F800074FA794805F012FB784D6861784C794B0A
:101F9000E41AE40801264FF0000166F302016FF332
:101FA000C50164F38F11744801F0DEFB4FF00001AE
:101FB000022363F302016FF3C50164F38F116F48CD
:101FC00001F0D2FB4FF00001032363F302016FF332
:101FD000C50164F38F116A4801F0C6FB4FF000029F
:101FE000042363F302026FF3C50264F38F126549A1
:101FF000654801F047FB6869297C8768046906FA2F
:1020000001F32268134323603B6840F201229847A2
:102010005E4805F0CBFAE86030B15D4807F025FA7C
:10202000524806F09BFF23E058495A4807F01DFA32
:102030000CB0BDE8F08100212046FEF7A3FF002888
:1020400069D100212046FEF7BBFF38B1524B5D68D5
:1020500000212846FEF796FF00286BD1002120467C
:10206000FEF790FF00286CD10020002106F06CFAEA
:102070004A4E31463D4800F001F9494B494A136048
:102080003768D6F80480484D08AC06937369059309
:1020900033690493F3680393B068FEF79BFF00B2C3
:1020A00002904046FEF796FF00B201903846FEF7D8
:1020B00091FF00B2009095E80E00204607F0D9F895
:1020C00094E8070085E80700384EAB686A6829681D
:1020D0002046FFF735FA94E80F0086E80F002E4DF2
:1020E000009396E80E002046FFF73EF994E80700BB
:1020F00085E80700AC6800212046FEF761FF002854
:1021000099D06D6800212846FEF75AFF002892D02A
:10211000274B1D60A8E7204B5D6800212846FEF78D
:102120004FFF00288DD029462248FEF783FC204B24
:10213000186099E729461F48FEF77CFC1C4B186085
:1021400092E7154B5C6800212046FEF71BFF002834
:102150008AD019492046FEF76FFC154B186083E7BB
:1021600098B00000A4B00000B8B00000000000204B
:1021700070AF000070AF0000C0B00000DCB0000025
:10218000F8B0000074B1000018B100003CB10000CC
:1021900060B1000044B1000098030020A4030020B7
:1021A0000BD7233ABC030020C0030020D00300203B
:1021B000CC030020000034430000B44310B50C46AB
:1021C0000A46412106F0FAFD033C092C16D8DFE847
:1021D00004F005150915150D15151511094B0A4AB9
:1021E0001A6010BD074B094A1A60FAE7054B084A06
:1021F0001A60F6E7034B074A1A60F2E7014B024AFE
:102200001A60EEE718000020A9F51C3AA9F59C3ADF
:10221000D3F51C3BBDF59C3B10B50C460A4643214B
:1022200006F0CCFD042C18D8DFE804F0130F0B07E0
:1022300003000C4B0C4A1A6010BD0A4B0B4A1A6083
:10224000FAE7084B0A4A1A60F6E7064B094A1A6091
:10225000F2E7044B084A1A60EEE7024B034A1A60A1
:10226000EAE700BF1C000020F8C1793BF8C1F93B48
:102270008DC1793C8DC1F93C8DC1793D00296DD06E
:102280002DE9F04184B00D4600230193029303939E
:102290000C2301AA194606F005FE06469DF80530F6
:1022A0001B021BB29DF804009DF807703F023FB26D
:1022B0009DF8062017439DF80940240224B29DF89A
:1022C000082014431843FEF76BFC254BD3F800801D
:1022D0004146FEF7B9FCE8603846FEF761FC01466E
:1022E0004046FEF7B1FC28612046FEF759FC014646
:1022F0004046FEF7A9FC68619DF80B301B021BB23B
:102300009DF80A009DF80D703F023FB29DF80C2029
:1023100017439DF80F40240224B29DF80E20144369
:102320001843FEF73DFC0F4BD3F800804146FEF703
:102330008BFC28603846FEF733FC01464046FEF72A
:1023400083FC68602046FEF72BFC01464046FEF702
:102350007BFCA860F0B204B0BDE8F081FF207047BC
:102360001C000020180000202DE9F04182B08046BA
:102370000C4615461E464FF07C510898FEF764FC4B
:10238000074604F100403946FEF75EFC044605F1BD
:1023900000403946FEF758FC054606F10040394634
:1023A000FEF752FC064621462046FEF74DFC074646
:1023B00029462846FEF748FC01463846FEF73CFB16
:1023C000074631463046FEF73FFC01463846FEF7E9
:1023D00033FBFDF7E9FF00220A4BFEF73DF802460A
:1023E0000B4600200849FDF77FFEFEF7CFFA0146B5
:1023F00000962B462246404606F0E5FD404602B0D8
:10240000BDE8F0810000E03F0000F03F10B50A4C4D
:10241000A4EB50040949FEF717FC2146FEF714FC13
:102420002146FEF711FC01460548FEF703FB214655
:10243000FEF70AFC10BD00BF12141F5F12D3363F17
:10244000FF51D83F014B1860704700BF20000020AB
:1024500010B584B00446019002910021039101A9B6
:10246000054800F03DF9039B029A934201DA0022ED
:10247000E254039804B010BD3B9400002DE9F043F2
:1024800083B0044608461546238B13F0080F05D188
:1024900003F0070600230093019369E0012909D0A6
:1024A00043F02003238385F31188BFF36F8F03B0BC
:1024B000BDE8F08343F010032383F4E7204607F0E0
:1024C00017F857E0D4F814904A466946204607F0BA
:1024D00028F800275AE023691F680621204606F0E5
:1024E000E0FF4FF0000951E023695F6804212046B6
:1024F00006F0D7FF4FF0000948E023699F680521E7
:10250000204606F0CEFF4FF000093FE0002246E0F3
:10251000002244E043F00803238385F31188BFF3CE
:102520006F8F002944D1009B2BB14B464246694630
:10253000204607F06CF817B125492046B8474FF000
:102540002003EFF3118583F31288BFF36F8F238B82
:1025500023F008032383238B13F0100F2ED023F0D6
:10256000100323830120268B06F0070600289AD04B
:102570000228A3D0002896D00128A3D00328AAD0EF
:102580000428B1D00528B8D00027B946238B03F022
:102590000708B045BAD0A268002AB9D00122114676
:1025A000002AB7D1009A002AB4D1002FB2D1D2E7C5
:1025B0004A464146204606F07CFFB4E713F0200F60
:1025C00004D023F0200323830220CCE70020CAE7B5
:1025D0003D96000010B404460268002013780749B5
:1025E000595C11F0040F06D000EB8000013203EBC0
:1025F00040003038F2E7226010BC70474ABB000050
:102600002DE9F04F83B004460D4601929A46DDF85D
:102610003080D378314A13F802B00BF0030B6F2BE4
:102620000FD006D9702B0FD0782B10D14FF0100996
:1026300023E0582B02D04FF00A091EE04FF010099A
:102640001BE04FF0080918E04FF0100915E04FF0BB
:102650000A0912E0D2B23032D2B208F8012D324665
:102660003B4620462946FEF7DBFCBD4208BFB4428C
:1026700018D3D04516D904460D464E4600274A4683
:102680003B4620462946FEF7CBFC092AE2D9BBF19E
:10269000010F03D0D2B25732D2B2DEE7D2B2373214
:1026A000D2B2DAE7019B1B7813F0200F05D0B9F105
:1026B000080F06D0B9F1100F09D0404603B0BDE8AD
:1026C000F08F019A937843F008039370F5E7019A2D
:1026D000937843F010039370EFE700BF4ABB00000C
:1026E0002DE9F04F93B006460D4692460393002421
:1026F0009AF80000002800F0D684252808D00AF1B6
:10270000010A2946B0470028C0F2CE840134EFE721
:102710000023069307930B93089309930A930AF1F6
:1027200001089AF80130252B01D001272CE00AF18D
:1027300002088DF82330A8E19DF8203043F004030F
:102740008DF82030FFB108F101081CE09DF8203021
:1027500043F008038DF82030F4E79DF8203043F073
:1027600010038DF82030EDE79DF8203043F0200372
:102770008DF82030E6E79DF8203043F040038DF8D7
:102780002030DFE700274FB398F80030203B102BB4
:10279000F8D801A252F823F05B270000852700003B
:1027A0008527000069270000852700008527000095
:1027B0008527000085270000852700008527000069
:1027C000852700004D2700008527000039270000DD
:1027D0008527000085270000772700009DF820301E
:1027E00003F04403442B6DD0CDF814809DF82030C5
:1027F00043F080038DF8203098F800302A2B68D001
:1028000005A8FFF7E7FE059B984512D09DF82030FC
:1028100043F080038DF820300990C3F34003002873
:1028200060DB002213439DF8202063F341028DF802
:102830002020059B05931B782E2B14BF002301231A
:102840009DF8212063F341028DF82120002B4BD00D
:10285000059B5A1C05925B782A2B48D005A8FFF7E8
:10286000B9FE0A909DF82030C3F34003002847DBEF
:10287000002213439DF8202063F341028DF82020AD
:10288000DDF8148098F800304C3B2E2B00F2DC80F1
:10289000DFE803F0CADADADADADADADADADADADA56
:1028A000DADADADADADADADADADADADADADADADA88
:1028B00038DA6ADA51DADADADADADADAC0DADADA2D
:1028C000DADAB6009DF820306FF386138DF82030E9
:1028D0008AE79DF8213043F001038DF8213043460B
:1028E0000133A7E701229DE7DDF81480CAE79DF8D0
:1028F000213043F004038DF8213002F10108C1E7D3
:102900000122B6E708F1010298F80130682B08D0DF
:102910009DF82130022161F3C6038DF821309046E5
:102920002BE09DF82130012262F3C6038DF821309F
:1029300008F1020821E008F1010298F801306C2B3F
:1029400008D09DF82130032161F3C6038DF82130B2
:10295000904612E09DF82130042262F3C6038DF800
:10296000213008F1020808E09DF82130052262F3C9
:10297000C6038DF8213008F1010818F8013B8DF8E5
:102980002330A3F14102372A00F25081DFE812F030
:1029900026014E014E014E012601260126014E015F
:1029A0004E014E014E014E014E014E014E014E01AF
:1029B0004E014E014E014E014E014E014E011301DA
:1029C0004E014E014E014E014E014E014E014E018F
:1029D00026014E01130163002601260126014E0146
:1029E00063004E014E014E014E012F0113013F01C4
:1029F0004E014E013F014E0113014E014E011301E4
:102A00009DF82130062262F3C6038DF8213008F1CB
:102A10000108B2E79DF82130072262F3C6038DF862
:102A2000213008F10108A8E79DF82130082262F35F
:102A3000C6038DF8213008F101089DF8203043F0DD
:102A400002038DF8203098E79DF821306FF3C6031C
:102A50008DF8213091E79DF82220012161F30202D7
:102A60008DF822209DF8212002F07802402A00F003
:102A7000AA80632B00F0AE809DF82030C3F34002A3
:102A8000174367F341038DF820309DF8213013F090
:102A9000010F00F0DA80039B1A1D03921F68002FBC
:102AA000C0F2CB809DF8213013F0040F00F0DF80DE
:102AB000039B1A1D0392D3F800B0BBF1000FC0F2C4
:102AC000CD80002309930A939DF8223003F0070379
:102AD0009DF82110C1F3C301012B00F0D180022B1E
:102AE00000F01681042B00F06781032B00F07E813B
:102AF0009DF8209019F00303029340F07D819DF82A
:102B00002330253B532B00F23382DFE813F08101A1
:102B1000310231023102310231023102310231021D
:102B2000310231023102310231023102310231020D
:102B300031023102310231023102310231023102FD
:102B400031023102310231023102310231023102ED
:102B500031023102310231023102310231023102DD
:102B600031023102310231023102310231023102CD
:102B700031023102C7013102310231023102310228
:102B800031023102310231023102A101AB013102C5
:102B9000310231023102AB01310231023102310224
:102BA0000802C701EA01310231028F013102C70177
:102BB00031023102C7019DF82220022161F3020295
:102BC0008DF822204EE79DF8201041F001018DF88C
:102BD00020104EE7171E18BF01274DE79DF8223041
:102BE000042262F302038DF82230012744E79DF8A6
:102BF0002230032262F302038DF822309DF8213047
:102C000003F07803402B7FF437AF012734E79DF8BA
:102C10002230032262F302038DF822309DF8213026
:102C200013F0780F3FF428AF012725E79DF82030F7
:102C300043F001038DF820301EE79DF8203043F06B
:102C400004038DF820307F422CE79DF92030002BC3
:102C500002DB4FF0FF3725E7099F23E79DF821307E
:102C60006FF341038DF821304FF0FF3B29E713F05C
:102C7000020F02D0DDF828B023E74FF0FF3B20E73A
:102C8000CB1E042B04D8DFE803F00B1D29353500DB
:102C9000039B1A1D03921A68D317CDE9062306E099
:102CA000039B1A1D03921A68D317CDE90623012945
:102CB00028D002297FF41CAFBDF91820D317CDE925
:102CC000062315E7039B073323F0070303F10802EC
:102CD0000392D3E90023CDE90623E8E7039B0733FA
:102CE00023F0070303F108020392D3E90023CDE99F
:102CF0000623DCE7039B1A1D03921A68D317CDE95C
:102D00000623D4E79DF81830069300230793EFE6D7
:102D1000CB1E042B04D8DFE803F00B1F3541410024
:102D2000039B1A1D03921B680693002307931EE062
:102D30009DF82330632B07D0039B1A1D03921B6859
:102D400006930023079312E0039B1A1D03921B684E
:102D50000693002307930AE0039B073323F007033E
:102D600003F108020392D3E90023CDE906230129E8
:102D70001CD002297FF4BCAEBDF8183006930023A6
:102D80000793B5E6039B073323F0070303F108021B
:102D90000392D3E90023CDE90623E8E7039B1A1D3C
:102DA00003921B68069300230793E0E79DF8183011
:102DB0000693002307939BE608290BD0039B073358
:102DC00023F0070303F108020392D3E90023CDE9BE
:102DD00006238DE6039B073323F0070303F1080264
:102DE0000392D3E90023CDE9062381E6039B1A1D54
:102DF00003921B6806937BE64346524629463046BB
:102E000006F0ACFC0028C0F24F810444C2466FE4D7
:102E100029462520B0470028C0F246810134DDF85C
:102E200008900DF1460B4FF0000AA7E0DDF818A05E
:102E3000BBF1000F08DB5946504607F09EFF0AEB36
:102E4000000BDDF8089099E05046FEF783FAF6E7AC
:102E5000069B8DF83030DDF808900DF1310B0DF147
:102E6000300A8BE019F0080F05D119F0100904D0D1
:102E70004FF0200901E04FF02B09DDE90623002A7D
:102E800073F1000102DBCDE9062309E0524263EB56
:102E90004303CDE906234FF02D0901E0DDF808904A
:102EA0000DF1460300930CAB08AADDE90601FFF71C
:102EB000A7FB8246BBF1000FC0F290800DF14603E4
:102EC000A3EB0A039DF820206FF386128DF82020D3
:102ED0009B4540F28680ABEB030309930DF1460B53
:102EE0004CE0069830B9DDF80890DFF8C4B1ABF1DA
:102EF000050A43E00DF1460300930CAB08AA00213C
:102F0000FFF77EFB82469DF8223043F010038DF8D8
:102F1000223078238DF82330DDF80890CAE7069A2E
:102F20009DF82130C3F3C303072B06D8DFE803F075
:102F3000040C0E1012171C1E1460DDF808900DF121
:102F4000460B4FF0000A19E01470F6E71480F4E71E
:102F50001460F2E72046E117C2E90001EDE72046E0
:102F6000E117C2E90001E8E71460E6E71460E4E76E
:102F7000DDF808900DF1460B4FF0000ABAF1000F92
:102F800000F08E80ABEB0A02B9F1000F00D00132E5
:102F90009DF8221011F0100F26D00232099B134425
:102FA00011F0400F01D00A9A1344002F32DDFF1AAE
:102FB0009DF8203013F0040F2CD113F0400F18D0DF
:102FC000B9F1000F18D029464846B04700286BDBFE
:102FD0000134DDF80890302302930FE00DF1460B29
:102FE000CCE70DF1460BC9E711F0080FD6D001323E
:102FF000D4E72023029301E0302302933B465F1E77
:10300000002B07DD29460298B04700284CDB01342D
:103010003B46F4E7B9F1000F05D029464846B047D2
:10302000002841DB01349DF82230C3F30012C3F3C2
:10303000C003134305D029463020B047002833DBB6
:1030400001349DF8223013F0100F06D029469DF868
:103050002300B047002827DB0134099B03F1FF3927
:10306000002B07DD29463020B04700281CDB013447
:103070004B46F3E75B4652462946304606F06EFB68
:10308000002811DB0444002F07DD29462020B0472B
:10309000002809DB0134013FF5E7C246FFF728BBF2
:1030A000C246FFF725BB204613B0BDE8F08F00BF36
:1030B00081B10000054B984204D3054B984203D3DD
:1030C000002070470020704701207047A0AD00002D
:1030D0004CBC000008B5064B186018B1054B1B68C6
:1030E000092B00DC08BD044804F050FEFAE700BFDD
:1030F00010040020E00300201801002008B5024859
:1031000004F044FE08BD00BF1801002008B50348C4
:1031100006F04DFB003818BF012008BDEC0300206D
:1031200030B589B000220F490F4807F0D5FD0F4D8B
:1031300000220023CDE90623002404940E230393E8
:103140000294019400940A4B4FF4407209492846B6
:1031500007F0C2FB0849284604F05CFC204609B091
:1031600030BD00BFFD3000002801002060010020BC
:1031700081380000400A002084B1000070B403468A
:1031800000200546044601E084F0010413F8012BF9
:103190009AB18D4211D2252AF6D0002CF6D0084ED5
:1031A000965D16F0030FF1D0732A02D0013500248A
:1031B000ECE70122AA401043F8E770BC704700BF5B
:1031C0004ABB0000184BBFF35B8F53E8002F511C24
:1031D00043E800100028F8D1BFF35B8F1ABB70B52D
:1031E000002409E0114B03EB06135B680422196805
:1031F000284600F089FB01340D4B0C4A9B1AB4EBB6
:10320000231F0FDA2646094D05EB04152B7B002BF7
:10321000F1D02301054AD3589B69002BE2D0284600
:103220009847DFE770BD7047E8030020B8AF0000A3
:10323000C8AF000038B108B5044A1060084600F075
:10324000DFFD002008BD6FF015007047240000204E
:1032500008B500230A4A13700A4A13604FF400416C
:103260000948FFF7E7FF00F071FB084806F091FA04
:10327000042328220649074807F0CBFA08BD00BFFF
:10328000290A0020E4030020C7970000EC03002077
:1032900000270020F403002010B54FF02003EFF3C7
:1032A000118483F31288BFF36F8F044806F081FA0C
:1032B00084F31188BFF36F8F10BD00BFEC030020B3
:1032C00008B5054B1B781BB1034B01221A7008BDD2
:1032D000024804F05BFDF7E7280A002018010020EF
:1032E0000C4BBFF35B8F53E8002F013243E8002102
:1032F0000029F8D1BFF35B8F074BBFF35B8F53E817
:10330000002F013A43E800210029F8D1BFF35B8F79
:10331000704700BFE4030020E0030020064B0020BC
:103320000246BFF35B8F53E8000F43E800210029FA
:10333000F9D1BFF35B8F7047E403002038B5FFF786
:10334000EDFF0546002400E001340B4B0B4A9B1AAD
:10335000B4EB231F0FDA094800EB041043685B79D4
:10336000002BF1D02301054AD3581B69002BEBD069
:1033700029469847E8E738BDC8AF0000B8AF00005D
:10338000034B18680028D4BF00200120704700BFFD
:10339000E403002070B582B00446FFF78BFE10BB3B
:1033A0000022002301A9114804F0DEFA08B1104CF4
:1033B00019E0019B0122BFF35B8F53E8001F43E834
:1033C00000200028F9D1BFF35B8F019D2E1D1F2225
:1033D0002146304607F0BEFC7E2385F823300023CB
:1033E00085F824303446204602B070BDF403002036
:1033F0008CB1000038B1074A904206D3A032904207
:1034000005D300207047002070470020704701203E
:10341000704700BF00270020037A13F0010F00D08F
:1034200070472DE9F04383B0064606F067FA074679
:10343000304606F04EFA01463846FFF79FFE054635
:1034400004E0012303FA04F425EA04056DB3B5FA98
:1034500085F4C4F11F042146304606F03DFA81464A
:10346000FFF728FE0028ECD14846FFF7C3FF0028ED
:10347000E7D10F4B9945E4D07189C1F3891100F070
:1034800033FA02460B4B0C495B1ADB08012161F34E
:1034900002086FF3C50863F38F18ADF800803B4650
:1034A0002146064800F0B0F8CBE703B0BDE8F08352
:1034B0008CB1000088AF000070AF0000A8B1000020
:1034C000F8B5064619BB144B1B780BB1002403E07A
:1034D000FFF7A2FFFAE70134104B114A9B1AB4EB35
:1034E000231F14DA0E4D05EB04156B685B79002B76
:1034F000F1D03146284606F064F90028EBD02701C8
:10350000074BDB595B68314628469847E3E730466E
:1035100006F0F6F9F8BD00BF290A0020C8AF000088
:10352000B8AF000010B50446114B1B7803B9D0B1F9
:10353000FFF7B2FE034680B15CB90E4ABFF35B8F62
:1035400052E8001F013942E800100028F8D1BFF30B
:103550005B8F21461846FFF7B3FF14B9FFF710FF42
:1035600010B9FFF7D3FD10BDFFF7E8FEF9E700BF84
:10357000280A0020E003002010B582B01D4BBFF3E5
:103580005B8F53E8002F511C43E800100028F8D14E
:10359000BFF35B8F184B1B783BB9184B1B6803B10B
:1035A0009AB10A2A1CD002B010BD4FF02003EFF3ED
:1035B000118483F31288BFF36F8F0020FFF7B2FFEF
:1035C00084F31188BFF36F8FEDE700220023CDE96C
:1035D00000234FF400420023094805F0E7F9E2E731
:1035E000002BE0D0064807F083FB064804F0CEFB32
:1035F000D9E700BFE0030020290A002010040020C2
:1036000028010020180100202DE9F04180460F46D6
:1036100016461D4600F0BEF9044640B10123436042
:10362000002202814FF0000362F3000303724CB1E9
:10363000C4F81080637A032262F307136372676130
:10364000A661E561C4B1BDF8183063810B4B1B68FE
:103650009847E0604FF02003EFF3118583F3128861
:10366000BFF36F8F2146064806F097F885F311885F
:10367000BFF36F8FFFF780FFBDE8F08124000020CB
:10368000EC030020F8B506460D46174600F082F917
:10369000044640B101234360002101814FF0000343
:1036A00061F30003037234B12661637A012262F38D
:1036B000071363726561B4B167810B4B1B68984750
:1036C000E0604FF02003EFF3118583F31288BFF31E
:1036D0006F8F2146054806F060F885F31188BFF327
:1036E0006F8FFFF749FFF8BD24000020EC03002096
:1036F0002DE9F04107460E461546984600F04AF976
:10370000044640B101234360002202814FF00003D0
:1037100062F3000303723CB12761637A022262F311
:10372000071363726661A561BCB1A4F80A800C4BF3
:103730001B689847E0604FF02003EFF3118583F397
:103740001288BFF36F8F2146064806F026F885F3EE
:103750001188BFF36F8FFFF70FFFBDE8F08100BF47
:1037600024000020EC03002070B505460E4600F052
:1037700011F9044640B101234360002202814FF059
:10378000000362F30003037204B12561B4B16681E2
:103790000B4B1B689847E0604FF02003EFF3118557
:1037A00083F31288BFF36F8F2146064805F0F5FFBB
:1037B00085F31188BFF36F8FFFF7DEFE70BD00BF8A
:1037C00024000020EC03002030B5A3B002460B46D5
:1037D0000025812101A8FEF73BFE0246812828BF73
:1037E000812201A9284606F09EF8B8B10446458119
:1037F0000B4B1B689847E0604FF02003EFF31185F7
:1038000083F31288BFF36F8F2146064805F0C5FF8A
:1038100085F31188BFF36F8FFFF7AEFE23B030BD85
:1038200024000020EC030020124B1B7803B17047EA
:1038300010B5FFF7C7FC002400E001340E4B0F4A1F
:103840009B1AB4EB231F0CDA0C4800EB04104368FE
:103850005B79002BF1D02301084AD3585B69984764
:10386000EBE70020FFF75EFE0028FAD1014B0122B2
:103870001A7010BD290A0020C8AF0000B8AF0000C0
:1038800008B5FFF79FFC04F08BFEFFF723FC06E072
:103890004FF0FF324FF0FF33044804F09BFA002052
:1038A000FFF740FE0028FAD1F2E700BF1801002020
:1038B00000B583B004380190BFF35B8F50E8003F40
:1038C0005A1E40E800210029F8D1BFF35B8F012B7D
:1038D00002D003B05DF804FB01A9024806F0A7FF7F
:1038E000F7E700BFF4030020054B064A9B1AB1EB33
:1038F000D30F02D252F8310070470020704700BF4A
:10390000B8AF000070AF000008B5074BC31A1B1119
:1039100001334268137143681960436801225A7188
:10392000FFF7CEFC08BD00BFB8AF000010B582B0F5
:103930000190019B33B11C6801A9034806F077FF91
:103940000194F6E702B010BD1404002008B520234E
:103950001A460249024806F05CFF08BDA027002075
:103960001404002010B582B0002301930120FFF75A
:10397000D9FD0446FFF7B4FC0022002301A9044846
:1039800003F0F2FF08B1002CF0D1019802B010BD95
:103990001404002000B583B00023019305F019FF43
:1039A00050B10022002301A9074803F0DDFF30B920
:1039B000019803B05DF804FB00220023F3E7FFF752
:1039C000D1FF0190F4E700BF14040020F0B583B0EC
:1039D0000190044605F07DFF237A13F0010F01D119
:1039E000064650BB019B1A7A12F0020F28D101A99A
:1039F000154806F01CFF03B0F0BD019805F07EFFEE
:103A00003146FFF7BBFB074688B9EBE72846FFF7CF
:103A10004FFF0134B442E5D22146019805F05CFF26
:103A20000546FFF7E7FC0028F3D0002FE5D027FA82
:103A300004F313F0010FECD0E8E700273C46E9E778
:103A40005869FFF773FFD2E7140400200EB400B5E5
:103A500082B0014603AB53F8042B01930348FEF7F1
:103A60003FFE02B05DF804EB03B07047F99C000024
:103A7000F0B585B011F0440F05D01A4B1C6834B96D
:103A8000002005B0F0BD1849FFF7E0FFF9E7174B3C
:103A90001968B2FBF1F1B1FBF4F5154AA2FB05324E
:103AA000D20A4FF4616606FB1256124BA3FB067353
:103AB0005B0904FB15114FF47A7505FB01F1B1FBAD
:103AC000F4F707FB141105FB01F1B1FBF4F40294C8
:103AD0000197C3EB0311A6EB810100910649FFF7A3
:103AE000B5FFCEE730040020ECB100003404002024
:103AF000C5B3A29189888888F8B1000061B108B582
:103B00002AB1064A52F8232012B9054A00E0044AB5
:103B10000449FFF79BFF08BD704700BF78B2000063
:103B200014B200001CB2000011F0100F0BD108B548
:103B300011F0200F03D00449FFF788FF08BD0349A7
:103B4000FFF784FFFAE7704748B7000020B2000093
:103B50002DE9F04105460F46164698460699FFF7AF
:103B6000E3FF0024444505DA24492846FFF76EFFA9
:103B70000134F7E7002409E020492846FFF766FFF3
:103B80000BE01F492846FFF761FF01340F2C0CDCC6
:103B9000002C02DD14F0070FEED0B442F1D23A5DF2
:103BA00018492846FFF752FFEFE717492846FFF765
:103BB0004DFF002409E011492846FFF747FF0BE0BD
:103BC00012492846FFF742FF01340F2C13DC002C6A
:103BD00002DD14F0070FEED0B44207D23A5D0C4B71
:103BE000D35C13F0970FEBD12E22E9E70349284667
:103BF000FFF72CFFE8E7BDE8F08100BF48B2000006
:103C00002CB2000024B2000030B2000034B2000038
:103C10004ABB00002DE9F041804616461D46BDF91D
:103C2000187059B90024002F1CDB86B10123079AB4
:103C3000934013F0100F18D10D4E09E00D4B079A69
:103C400053F822200C49FFF701FF0446EBE7084E2A
:103C500039462846FFF748FE024631464046FFF700
:103C6000F5FE04442046BDE8F081044EF0E700BFB5
:103C700038B20000B4B2000044B2000040B200000C
:103C80002DE9F04F85B005460C46164603939DF886
:103C9000388001F0020B01F0010AC1F3C00905F000
:103CA00096FDE8B1024613492846FFF7CFFE0746C6
:103CB000BBF1000F16D142465146284605F09CFE46
:103CC000CDF80480BDF9403000939DF83C30324679
:103CD00049462846FFF79EFF384405B0BDE8F08FFF
:103CE0000027E5E7039A21462846FFF7C1FE07446F
:103CF000E1E700BF4CB200002DE9F04389B0074670
:103D00000E469146984605F0F9FD02460E493046AA
:103D1000FFF79CFE002410250395234603AA0DEB14
:103D20000501384605F053FE039A52B1CDF80080E4
:103D30004B460DEB05013046FFF70AFF039D2C446F
:103D4000E9E709B0BDE8F0831CB20000F0B583B02C
:103D500006460C4600273D460DE0A268134413F8C2
:103D6000017C0A2F14BF00270127204605F0B7FF6A
:103D7000019B1D4473B1E36801932B4601AAA1681E
:103D8000304605F024FE6368019A1A60019B002BFF
:103D9000EBD0E2E70FB903B0F0BD02492046FFF7D0
:103DA00055FEF8E750B2000070B582B004460568D1
:103DB00042F20F738B4228BF0B460E4A052168461C
:103DC00005F061FB064663685B680B220A492846DA
:103DD00005F005FE63685B6832466946284605F0D3
:103DE000FEFD63685B681B220449284605F0F7FD69
:103DF00002B070BD54B20000A8B200008CB2000046
:103E0000074B01221A60074B984205D94008044A23
:103E100013685B001360F6E7034B1860704700BF40
:103E20003404002040420F0030040020014B0122E6
:103E30001A7070472A0A002008B518B9084B0022EA
:103E40001A7008BD074B1B7823B141F2883006F089
:103E50003DFFF6E7A420002104F076FBF1E700BF68
:103E60002A0A00202B0A002038B504460A4B0122FA
:103E70001A700A4B1B7803B938BD002003F052FBBF
:103E80000028F9D0044B1B78002BF5D0651E204686
:103E9000FFF7D2FF2C46F0E72A0A00202B0A002069
:103EA0002DE9F04106460D4604270DE02A4631462D
:103EB000002003F09DFA04461CE03846FFF7D4FFCB
:103EC0001CBB164B1B7803B3154B1B78002BEDD195
:103ED000DFF850804FF0FF324FF0FF33404603F0E1
:103EE00087FE2A463146002003F082FA0446404607
:103EF00003F008FF002CE0D1084B1B78002BDFD02B
:103F0000013F3846FFF798FFDAE714B9034B1B78F7
:103F100003B92C462046BDE8F08100BF2A0A0020E4
:103F20002B0A00200401002008B5034B01221A705F
:103F3000024805F0D4FE08BD2B0A0020F4B20000B0
:103F400008B50248FFF730FF08BD00BFF4B200001B
:103F500010B50C46084605F0AFFC0F222146034879
:103F600005F0E6FE204605F0CBFC10BDF4B20000E3
:103F700070B584B02C4B1C7D04F01F0301229A40C5
:103F800061092A4B03EB8103D043BFF35B8F53E8F6
:103F9000001F01EA000543E80056002EF7D1BFF3E9
:103FA0005B8F0A423DD004EB44039A00204B13443C
:103FB00093E8070004AB03E907001E4B63B105F06B
:103FC00094FF4FF02003EFF3118683F31288BFF3C1
:103FD0006F8F194B1D680AE0002383F31188BFF32C
:103FE0006F8FEEE72B460DB12B686BB11D465DB1AF
:103FF000AA68002AF6D00C4B1B7D03EB4303990003
:104000000B4B585C9047EDE786F31188BFF36F8F39
:10401000074804EB4404A2008118002383504B603E
:104020008B6004B070BD00BFEC0900206404002068
:1040300068040020EB9E00005C040020F0B589B00D
:104040000546554B1C7D04F01F0301229A4061096F
:10405000524B03EB8103BFF35B8F53E8001F41EA30
:10406000020043E80006002EF7D1BFF35B8F0A423F
:1040700017D004EB44034A4A12F82330002B00F017
:104080008880B5F1FF3F1CD103F04CFF4FF02003B7
:10409000EFF3118683F31288BFF36F8F414B1D68D6
:1040A0002AE004EB44063E4B03EB86066F462A46A5
:1040B0002146384605F07BFE97E8070086E80700B2
:1040C000D7E704EB440302EB83039B68590CD80346
:1040D000354E364A002380194FF0000646EB0101A9
:1040E000FCF79EFF0121281A06F0C1FDCCE72B4604
:1040F0000DB12B686BB11D465DB16A68002AF6D020
:10410000254B1B7D03EB4303254911F82300904702
:10411000EDE786F31188BFF36F8F04F01F030121D1
:1041200099406309224A02EB8303BFF35B8F53E894
:10413000002F0A4343E800200028F8D1BFF35B8F2B
:1041400004EB4403164A02EB830393E8070008AB31
:1041500003E90700174B0BB105F0B4FEFFF708FFAA
:1041600004F0DEF8012004F01F02012393406409EB
:104170000A4A02EB8404DB43BFF35B8F54E8002F51
:104180001A4044E800210029F8D1BFF35B8F09B041
:10419000F0BD0020E7E700BFEC0900207404002018
:1041A000680400205C0400203F420F0040420F00E2
:1041B00064040020C59E0000014910220A60704777
:1041C00010ED00E072B6404080F31188BFF36F8FAE
:1041D000BFF34F8F30BF62B6BFF36F8F704700BF22
:1041E00072B6494081F3118820BF80F3118862B60E
:1041F000704700BF70B582B004461F4D1F4BED1ACB
:10420000ED0801264FF0000366F302036FF3C503C8
:1042100065F38F13ADF80030836842680168184871
:10422000FFF7F2F94FF0000366F302036FF3C503E3
:1042300065F38F13ADF8003063692269E1681148B6
:10424000FFF7E2F94FF0000266F302026FF3C502D6
:1042500065F38F12E1690C48FFF714FA4FF0000282
:1042600066F302026FF3C50265F38F12A169074876
:10427000FFF708FA02B070BD98AF000070AF000001
:1042800008B3000038B3000068B3000078B3000042
:1042900043B2002B08DB00F01F005B09012202FA89
:1042A00000F0024A42F82300704700BF00E100E03E
:1042B00043B2002B0DDB00F01F005B09012202FA64
:1042C00000F02033034A42F82300BFF34F8FBFF3BF
:1042D0006F8F704700E100E04209054B53F8222040
:1042E00000F01F00012303FA00F01040704700BFE8
:1042F00000E100E0013143B2002B08DB4901C9B203
:1043000003F1604303F5614383F80013704700F045
:104310000F004901C9B2014B1954704714ED00E078
:1043200030BFFFF7FDBF00BF08B50B4B0B4A22F0B3
:104330007F029A60BFF34F8FBFF36F8FD3F888204F
:1043400022F47002C3F8882003F0ACFA04F056F9A6
:1043500000F0BCFC03F0B2FA00ED00E00000000049
:104360000A4A9368C3F8A80009490968C3F8AC1061
:1043700008494B6843F080534B60002383F3118856
:10438000BFF36F8F9368D3F8AC007047EC0900203F
:104390001CBA000000ED00E013498A684FF03000BD
:1043A0001044EFF3098C80E8F01F202080F312887E
:1043B000BFF36F8F0D4F4FF00066CA698A603E6091
:1043C000D2F8A8000023C2F8A83080F3118804B501
:1043D000104600F01DFDBDE8044002F1300090E8F9
:1043E000F01F8CF309887047EC09002004ED00E011
:1043F0001EF0040F0CBFEFF30880EFF30980816912
:1044000011F8021C0229FFD001B505F0E1FC01BD45
:1044100010B4A2F120040D4921F0010142F8081C5A
:1044200042F8203C019B42F81C3C029B42F8183C9D
:10443000039B42F8143C4FF0807342F8043C04653F
:104440000023C0F8A83010BC704700BF4997000097
:10445000164B9A68DAB110F1160F1AD010B4D2F8D0
:104460009830A3F12004844205D8834208D98B42B6
:1044700008D8002100E0002131B9002010BC7047AD
:104480000021F9E70121F7E7D2F89800F6E70020CC
:104490007047D2F898308B4294BF0021012109B9AE
:1044A00000207047D2F89800704700BFEC09002048
:1044B00008B50D461446084B986000F0A9FC20464C
:1044C00085F30988002163B681F31188BFF36F8FEC
:1044D0000022002305F038F9EC09002001B572B67E
:1044E0000B4A906900281EBF0021916106F016FA60
:1044F00062B6EFF30580A0F110004FEAC000054955
:10450000014409C99847BDE8014003490847000034
:10451000EC09002038AE00001D450000044B9968EE
:10452000D869884203D003494FF080520A6070472F
:10453000EC09002004ED00E008B54E4B4E4A9B1AF2
:10454000DB084FF00001012262F302016FF3C501A5
:1045500063F38F114948FFF707F9494B9B6A13F042
:10456000007F21D1464B9B6A13F0807F2DD1444BB5
:104570009B6A13F4002F39D1414B9B6A13F4802FAF
:1045800045D13F4B9B6A13F4003F51D13C4B9B6A92
:1045900013F4803F5DD13A4A936A6FEA03436FEAAE
:1045A00013439362002008BD324B334A9B1ADB0849
:1045B0004FF00001012262F302016FF3C50163F3C2
:1045C0008F113048FFF7D0F8CCE72A4B2A4A9B1AC4
:1045D000DB084FF00001012262F302016FF3C50115
:1045E00063F38F112848FFF7BFF8C0E7214B224A39
:1045F0009B1ADB084FF00001012262F302016FF306
:10460000C50163F38F112148FFF7AEF8B4E7194BEA
:10461000194A9B1ADB084FF00001012262F30201E4
:104620006FF3C50163F38F111948FFF79DF8A8E7F1
:10463000104B114A9B1ADB084FF00001012262F374
:1046400002016FF3C50163F38F111248FFF78CF875
:104650009CE7084B084A9B1ADB084FF00001012237
:1046600062F302016FF3C50163F38F110A48FFF78C
:104670007BF890E798AF000070AF0000A8B300008F
:1046800000ED00E0C0B30000D4B30000F0B30000C0
:1046900010B4000038B4000054B4000008B5002283
:1046A0000A70084B08495B1ADB084FF00001012033
:1046B00060F3020162F3C50163F38F110348FFF752
:1046C00053F808BD98AF000070AF000080B4000040
:1046D00070B505460E4614465E4B5F4A9B1ADB08D2
:1046E0004FF00001012262F302016FF3C50163F391
:1046F0008F115A48FFF738F8594B9B6A13F4805FC3
:1047000024D1574B9B6A13F4006F30D1544B9B6AF2
:1047100013F4007F3CD1524B9B6A13F4806F65D138
:104720004F4B9B6A13F4807F71D14D4B9B6A13F4FE
:10473000005F7DD14A4A936A43F47F43936201212B
:10474000284605F057FB2070002070BD414B424ABF
:104750009B1ADB084FF00001012262F302016FF3A4
:10476000C50163F38F113F48FEF7FEFFC9E7394BE0
:10477000394A9B1ADB084FF00001012262F3020163
:104780006FF3C50163F38F113748FEF7EDFFBDE707
:10479000304B314A9B1ADB084FF00001012262F3D3
:1047A00002016FF3C50163F38F113048FEF7DCFFA0
:1047B0002B4B996B9B6A13F4004FACD0254B264AC8
:1047C0009B1ADB084FF00002012060F302026FF336
:1047D000C50263F38F122648FEF754FF002E9AD0CD
:1047E0001F4A936A23F40043936294E7194B1A4AD1
:1047F0009B1ADB084FF00001012262F302016FF304
:10480000C50163F38F111B48FEF7AEFF88E7114B1C
:10481000114A9B1ADB084FF00001012262F30201EA
:104820006FF3C50163F38F111348FEF79DFF81E716
:10483000084B094A9B1ADB084FF00001012262F382
:1048400002016FF3C50163F38F110C48FEF78CFF73
:1048500070E700BF98AF000070AF0000A4B4000084
:1048600000ED00E0BCB40000D0B40000E4B40000EF
:1048700000B5000018B5000034B500004CB50000CC
:10488000F8B505460C461646644B654A9B1ADB088C
:104890004FF00001012262F302016FF3C50163F3DF
:1048A0008F116048FEF760FF5F4B9B6A13F0100F9B
:1048B00032D15D4B9B6A13F0080F3ED15A4B9B6A75
:1048C00013F0020F4AD16FF01507574B9B6A13F094
:1048D000010F75D1544B9B6A13F0200F40F081807B
:1048E000514B9B6A13F0100F04D14F4B9C6A14F08C
:1048F000020405D04C4B5C6814F4006440F08280E4
:10490000494A936A43F0FF0393620121284605F068
:1049100071FA30702046F8BD404B414A9B1ADB08C3
:104920004FF00001012262F302016FF3C50163F34E
:104930008F113E48FEF718FFBBE7384B384A9B1AE9
:10494000DB084FF00001012262F302016FF3C501A1
:1049500063F38F113648FEF707FFAFE72F4B304A5E
:104960009B1ADB084FF00001012262F302016FF392
:10497000C50163F38F112F48FEF7F6FE2A4B5F6BDC
:104980009B6A13F0800F02D16FF015079DE7234B50
:10499000234A9B1ADB084FF00002012161F3020257
:1049A0006FF3C50263F38F1239462348FEF76AFEA0
:1049B000002C8AD01C4A936A23F08003936284E718
:1049C000164B174A9B1ADB084FF00001012262F3D5
:1049D00002016FF3C50163F38F111848FEF7C4FE9F
:1049E00078E70E4B0E4A9B1ADB084FF000010122BC
:1049F00062F302016FF3C50163F38F111048FEF7F4
:104A0000B3FE6DE729463846FFF722FD044600282D
:104A10003FF476AF80F30988022471E798AF000075
:104A200070AF00007CB5000000ED00E094B5000020
:104A3000D0B40000C8B50000E0B50000F8B5000033
:104A40004CB5000070B505460C46474B474A9B1ACB
:104A5000DB084FF00001012262F302016FF3C50190
:104A600063F38F114248FEF77FFE00232370414B12
:104A7000DE6A16F0020609D13E4BDB6A002B17DB1B
:104A80003C4BD86A10F0804024D170BD364B374A79
:104A90009B1ADB084FF00001012262F302016FF361
:104AA000C50163F38F113448FEF75EFE0020ECE78A
:104AB0002D4B2E4A9B1ADB084FF00001012262F3B6
:104AC00002016FF3C50163F38F112C48FEF74CFE12
:104AD0003046DAE7244B254A9B1ADB084FF00001E9
:104AE000012262F302016FF3C50163F38F112448C1
:104AF000FEF73AFEAB6933F8022C4DF602739A4288
:104B00000ED003F1604303F626631B78DBB91D4B1F
:104B10001B78F3B91C4B1B889BB203BB3046B4E730
:104B2000114B124A9B1ADB084FF00002012161F37E
:104B300002026FF3C50263F38F1229681348FEF770
:104B4000A1FD2868A1E7224601212846FFF798FE2B
:104B50009BE7224601212846FFF7BAFD95E7284644
:104B6000FFF7EAFC91E700BF98AF000070AF0000CC
:104B700018B6000000ED00E030B6000054B60000AA
:104B800064B6000029ED00E02AED00E084B60000E4
:104B900008B50A460B480C4BC01AC0084FF000037A
:104BA000012161F302036FF3C50360F38F130F2A32
:104BB00005DC0649103A0648FEF79AFD08BD05498E
:104BC000F8E700BF98AF000070AF0000A0B600008B
:104BD000D4B60000B8B60000F0B58BB02E4B5D68BF
:104BE000C5F30805002383F31188BFF36F8F02F02C
:104BF0007F43B3F17F4F2AD102F00C03082B10D072
:104C000012F0080F20D00C4600270DF1270229468C
:104C1000204605F0F1F806469DF82730D3B10BB0D9
:104C2000F0BD1E4B1E4A9B1ADB084FF0000101220B
:104C300062F302016FF3C50163F38F111948FEF7A8
:104C400093FD00273C46E0E704460127DDE7002707
:104C50003C46DAE701AD20686168A268E3680FC5E9
:104C600020696169A269E3690FC54FB1089BC3F36D
:104C700008025AB96FEA53236FEA4323089305E009
:104C8000089B23F4FF7323F00103089301A9304626
:104C900005F092F8C3E700BF00ED00E098AF000018
:104CA00070AF0000E8B60000024A536943F01003F9
:104CB0005361704700ED00E0EFF30880EFF30981E6
:104CC00001B57246FFF788FF01BD00BF002206E074
:104CD00002F00F01094B0B44202119760132262ADC
:104CE0000ADC53B2002BF3DB03F1604303F56143AD
:104CF000202183F80013F1E7704700BFFCEC00E0CF
:104D0000002080F31488BFF36F8F06F043F8002073
:104D10000D490860BFF34F8F0C4880F3088800F0FE
:104D200029F8202080F3118809484FF402614018C7
:104D300080F30988EFF314800221084380F314887C
:104D4000BFF36F8FFFF7F0FA94ED00E0601D0020D5
:104D5000E01E0020064B1868C0F3072000238342A2
:104D600005DA034A9360002111610133F7E77047C8
:104D700090ED00E010B572B6002484F31388FFF7BD
:104D8000E9FF234608E003F120010E4A4FF0FF300F
:104D900042F821000133DBB2072BF4D9002308E0ED
:104DA00003F16001074A4FF0FF3042F82100013360
:104DB000DBB2072BF4D962B6BFF34F8FBFF36F8F0F
:104DC00010BD00BF00E100E008B5084B9B688342BE
:104DD00002D003F0EBFB08BDEFF30583002BF8D006
:104DE000034A536843F080535360F2E7EC09002014
:104DF00000ED00E008B5034B034A0121034805F02C
:104E000050F808BD000001200000002018B7000085
:104E100008B5D0F89830203B044803602023436055
:104E2000034B8360012105F040F808BD78040020A1
:104E300000000B15064A90600B6823F01F03034324
:104E400043F01003D3608B6843F001031361704794
:104E500090ED00E010B50446072803D8FFF7EAFFFD
:104E6000204610BD094B0A4A9B1ADB084FF000028E
:104E7000012161F302026FF3C50263F38F12014651
:104E80000448FEF7FFFB6FF01500EAE790AF000063
:104E900070AF000024B700002DE9F04780460F46B0
:104EA0009A461646002409E02946F0B204F0DAFFDB
:104EB000064610F1160F25D001360134BC4221DA26
:104EC00004EB440508EB85056A68002AF5D0BAF1C1
:104ED000000FE9D0284604F0B4FF0028E4D10B4BC2
:104EE0000B4A9B1ADB084FF00002012161F302021A
:104EF0006FF3C50263F38F1221460648FEF7C2FB2B
:104F00006FF015063046BDE8F08700BF90AF000097
:104F100070AF00004CB7000010B5034C012322789D
:104F2000FFF7BAFF207010BD2C0A002008B500233F
:104F3000084A1278FFF7B0FF10F1160F08D00346A9
:104F4000072B05DC044A9360002111610133F7E768
:104F500008BD00BF2C0A002090ED00E0034B0522A5
:104F60005A60BFF34F8FBFF36F8F704790ED00E033
:104F7000BFF35F8F014B00225A60704790ED00E055
:104F800038B50E4B1D68082D15D8FFF7F1FF00242A
:104F9000A5420AD9094B596804EB4402930019440D
:104FA0002046FFF747FF0134F2E7054B1D70FFF77E
:104FB000D5FF002038BD4FF0FF30FBE780B7000081
:104FC0002C0A0020014B1860704700BF2800002009
:104FD0004FF02002EFF3118382F31288BFF36F8F3B
:104FE000044A0121C2F8401583F31188BFF36F8F83
:104FF0000020704700E00140C0B24FF08043C3F88A
:105000001C05BFF34F8F0549CA6802F4E062044BE8
:105010001343CB60BFF34F8F00BFFDE700ED00E00F
:105020000400FA0530B108B58001034B43F00103D9
:10503000984708BD704700BF20B000000048704787
:10504000D4040020034BC01A8010034B03FB00F074
:10505000704700BF94040020B76DDBB638B5054635
:105060000C46FFF7EFFF01464022034804F0C1FF62
:1050700001462846A04738BDF0AD000030B583B0EA
:1050800005460C46FFF7DEFF01464023009323460A
:10509000054A064804F0C7FF011E01DB03B030BD1E
:1050A0002846A047FAE700BF6FA00000F0AD00005F
:1050B00008B510B101280DD008BD0021084804F042
:1050C0001FFF836813F0070FF6D10021044804F096
:1050D0007EFFF1E70121024804F079FFECE700BF11
:1050E000F0AD000010B54FF02003EFF3118483F30F
:1050F0001288BFF36F8F134A136843F002031360E3
:1051000013F0010F08D1002384F31188BFF36F8FD0
:105110009BB904F0B4FF10BD4FF08043D3F80C24CA
:10512000D3F80C3412F0010F01D10023ECE7FFF7A4
:1051300085FF04F039FF0123E6E70021024804F06F
:1051400046FFE8E7E4040020F0AD000008B50A4B94
:10515000BFF35B8F53E8002F22F0020143E80010F9
:105160000028F7D1BFF35B8F12F0010F00D008BD0C
:1051700004F08AFFFBE700BFE404002000B585B01F
:10518000CDF800D0CDF804D000230293012303937F
:105190006B46074A04F063FF002805DB4FF48042AA
:1051A0000023684602F016FE05B05DF804FB00BF60
:1051B0009DA0000008B5074B1B781BB1002001F033
:1051C000CBFA08BD4FF4A57005F080FD014B01221C
:1051D0001A70F3E72D0A002070B50646002201215F
:1051E0001046FFF787F80020FFF752F8114801F04A
:1051F0009FFA114B98421AD105F0C5F8002403E03C
:105200000123AB601C44E4B2012C0ED82146304689
:1052100004F076FE05462146304604F07EFE07493E
:1052200004F01AFA0028EBDA00E0002070BD6FF0FD
:105230000400FBE7B15000000000AD0BFCB700001C
:1052400070B50546012807D14FF08043D3F81C34D0
:1052500003F00303012B58D005F027FB28B92E4B90
:105260001B78002B41D0002300E001231C46002BBB
:105270003DD04FF02003EFF3118683F31288BFF384
:105280006F8F24B94FF080430222C3F808234FF0F8
:105290008042D2F8183403F00303D2F8182412F431
:1052A000803F2BD100221AB1012B29D0012D27D00C
:1052B000FCB13046FEF794FF4FF08043D3F8183529
:1052C000002BE4D1154B1B68002BE0D0134B0022C0
:1052D0001A601B6801234FF08042C2F81835104A4B
:1052E000C2F880310F4A1360D1E70123BEE70026E0
:1052F000C7E72120002103F027F9DDE70122D2E7EB
:1053000024B186F31188BFF36F8F70BD4FF08043D7
:105310000222C3F80423F8E72F0A0020040100400A
:1053200000E100E00800004010B50446104B0121E8
:10533000BFF35B8F53E8002F43E800100028F9D13A
:10534000BFF35B8F1AB1631E012B0CD910BD094846
:1053500004F0E3FD084900234B60CB6001238B6020
:1053600004F096F9EFE72046FFF76AFFEEE700BF8B
:10537000E8040020F0AD00008404002010B5044CC7
:105380002046FDF75FF82046FFF71CFE002010BD09
:1053900095530000F0B583B007468DF8070002264C
:1053A00006E0134B01221A701EE004F07CFE013E61
:1053B000104D4FF0FF324FF0FF33284602F018FC3B
:1053C00001220DF10701002002F076F8044628467C
:1053D00002F098FC002CE4D1054B1B7823B1002E81
:1053E000E3D1034B00221A70384603B0F0BD00BF72
:1053F0002E0A0020040100201F4B03401F4A934245
:1054000032D016D8062B2BD006D9B3F5801F0DD17C
:1054100001230B7000207047FBB1022B03D1042342
:105420000B70002070476FF0150070476FF015008B
:105430007047134A93421BD0B3F5A00F03D1032347
:105440000B7000207047B3F5800F03D102230B705F
:10545000002070476FF015007047002008707047FB
:1054600006230B700020704707230B700020704745
:1054700005230B70002070470600F00006001000A6
:105480000200400008B9024870470020704700BF82
:1054900008AE0000F0B585B00E46194643681B7B88
:1054A00006F01F0545EA4315B2F5005F22D0074616
:1054B0001446002302930393104604F031FE8DF846
:1054C00008007B689968F14011F0010F02D1B4F532
:1054D000A03F14D0002302AA1946284601F0B2FBCF
:1054E000194B98422CD10121284601F075FD00206E
:1054F00005B0F0BD284601F0C7FD0020F8E705F033
:105500001F0303F5E0734FF0A04252F8233013F06D
:10551000010FDFD10DF10701284601F001FD0B4B12
:10552000984203D00DF107030393D3E70DF1070071
:1055300001F04AFD044B9842F4D06FF00B00D7E71E
:105540006FF00400D4E700BF0000AD0B0400AD0B0A
:1055500030B583B004460DF1070101F0E1FC0546CA
:10556000204601F0BBFD0B4B98420FD19D4205D068
:10557000084B984207D1002003B030BD9DF80700CA
:1055800001F01AFDF4E76FF00400F5E76FF0040096
:10559000F2E700BF0000AD0B2DE9F04387B0D0F873
:1055A000048098F80C3001F01F0545EA4315002AE5
:1055B00044D00C4617460026039604960DF11701B9
:1055C000204601F0ADFC8146334603AA3146284609
:1055D00001F038FB304B98425BD1994536D017F437
:1055E000007F43D00DF103013846FFF705FF064663
:1055F00040BB9DF803308DF8043017F4807F0CBF5A
:10560000012300238DF80530384604F056FD8DF84F
:10561000060017F4006F1ED0D8F80430012101FAFB
:1056200004F4C3F80845002201A9284601F0BAFB9A
:10563000194B984206D06FF0150603E02846FFF795
:1056400087FF0646304607B0BDE8F0839DF8170097
:1056500001F0B2FCC3E717F4806FE4D0D8F804205F
:10566000012303FA04F4C2F80C45DCE7384604F0E1
:1056700024FD8DF8080000231A4602A9284601F0EF
:10568000E1FA054B984201D10026DBE76FF01506E1
:10569000D8E76FF01506D5E70000AD0B08B501F0AF
:1056A00081FC08B1002008BD01F052FC084B984273
:1056B0000AD10021074801F02DFC00220521062017
:1056C000FEF718FE0020EEE76FF00400EBE700BFE6
:1056D0000000AD0BB1A100002DE9F04186B00C46F1
:1056E0000769D0F8048097F85DC0BCF1000F03D0C3
:1056F0003B688B4200F0F980A38813F4006F5CD103
:1057000013F0010F6CD113F0080F7DD1C3F34513D3
:10571000082B40F08C802268754B9A4240F29A80A8
:1057200001AD08F108060FCE0FC533682B60236862
:10573000704A934240F2A1806F4A934240F2A080A7
:105740006E4A934240F29F806D4A934240F29E809F
:105750006C4A934240F29D806B4A934280F09C8059
:105760004FF080430393A38813F0020F00F097805B
:1057700013F0040F00F0988003238DF81030A388F5
:1057800013F0100F00F0948001238DF81130BCF15C
:10579000000F40F08F803B465C4A01A9404601F073
:1057A000E9FC5B4B984240F08C80012387F85D3028
:1057B0003C60002006B0BDE8F081564B564A9B1A6B
:1057C000DB084FF00001012262F302016FF3C50113
:1057D00063F38F115148FDF7C7FF6FF08500E9E7CC
:1057E0004C4B4D4A9B1ADB084FF00002012161F33C
:1057F00002026FF3C50263F38F1201684848FDF798
:1058000041FF6FF01500D5E7424B434A9B1ADB0876
:105810004FF00001012262F302016FF3C50163F34F
:105820008F114048FDF7A0FF6FF01500C2E7394B1C
:10583000394A9B1ADB084FF00001012262F3020192
:105840006FF3C50163F38F113748FDF78DFF6FF0DC
:105850001500AFE72F4B304A9B1ADB084FF00001D1
:10586000012262F302016FF3C50163F38F112F4828
:10587000FDF77AFF6FF015009CE74FF0007371E7BA
:105880004FF080636EE74FF000636BE74FF080539B
:1058900068E74FF0005365E74FF0004362E713F00D
:1058A000040F03D0012368E7022366E7002364E7BF
:1058B00000236AE7404601F0B7FC002387F85D301B
:1058C00069E7144B144A9B1ADB084FF000020121D0
:1058D00061F302026FF3C50263F38F1201461448AD
:1058E000FDF7D0FE6FF0040064E7002062E700BF20
:1058F00047E801008FD003001FA107003F420F00BF
:105900007F841E00FF083D0000127A00DD5C00006D
:105910000000AD0BB0AF000070AF00003CB800005D
:1059200058B800007CB800009CB80000CCB800005B
:1059300000B90000F8B50646002201210320FEF759
:10594000D9FC3769BC6811E023F4805213F0010FD1
:1059500027D0012303FA01FC2B6843EA0C032B60D8
:10596000DEF80030984700283ADB0834BB68FA6854
:1059700003EBC2039C4232D2206804F026FFC0B180
:1059800020682179637943F4B053D0F808E00569C1
:1059900013F4406FD8D013F0010FD5D083F44063D7
:1059A000D2E7012303FA01FC2B6823EA0C032B60E6
:1059B000D6E7244A244BD21AD2084FF00003012123
:1059C00061F302036FF3C50362F38F132168227939
:1059D00009681E48FDF78CFE6FF0120000E0002001
:1059E00000281EDB34692368C3B19B68B3B11A6811
:1059F000A2B1986805F06AF923689B68186819795C
:105A000003691A6801238B401A420BD100235BB152
:105A1000012303FA01F18368DB689847A36953B156
:105A20000020F8BD0123F2E7012303FA01F18368A6
:105A30001B699847F2E7636004F1100002F0A6F9D1
:105A4000EEE700BFB0AF000070AF000028B9000063
:105A500030B585B00469A26C002A4FD0236D002BAD
:105A60004ED0934228BF1346002B55D0A365616CDE
:105A70000091002946D0002A46D1002A46D01A4675
:105A80000192E26C0292002A42D0226D002A41D19A
:105A900002B90023039300226946406801F01EFC0E
:105AA000234B984228D06FF004052368E3B19A682D
:105AB000D2B11168C1B19B8813F4805F14D1906892
:105AC00005F004F923689B681868197903691A6856
:105AD00001238B401A4221D100230BB3012303FA87
