:10000000A0290020B16100003B1A010069610000D5
:100010006961000069610000696100000000000082
:100020000000000000000000000000000D5800006B
:100030006961000000000000B55700006961000020
:10004000F9580000A7250100F9580000F9580000F0
:10005000F9580000F9580000F9580000F95800005C
:10006000F9580000F9580000C5250100F9580000B2
:10007000F9580000F9580000F9580000F95800003C
:10008000F9580000F9580000F9580000F95800002C
:10009000DF250100F9580000F9580000F958000068
:1000A000F9580000F9580000F9580000F95800000C
:1000B000F9580000F9580000F9580000F9580000FC
:1000C000F9580000F9580000F9580000F9580000EC
:0C00D000F9580000F9580000F958000031
:0400DC00FFFFFFFF24
:1000E00001F0FF01102A2BDB10F0070F08D010F8E9
:1000F000013B013A8B422DD010F0070F42B3F6D1ED
:10010000F0B441EA012141EA014122F007047FF005
:1001100000070023F0E80256083C85EA010586EA5C
:10012000010685FA47F5A3FA87F586FA47F6A5FA98
:1001300087F68EB9EED1F0BC01F0FF0102F00702A4
:1001400032B110F8013B013A83EA010313B1F8D14F
:100150000020704701387047002D06BF3546033830
:10016000073815F0010F07D1013015F4807F02BF69
:10017000013015F4C03F0130F0BC0138704700BFBA
:1001800081F0004102E000BF83F0004330B54FEA48
:1001900041044FEA430594EA050F08BF90EA020FB5
:1001A0001FBF54EA000C55EA020C7FEA645C7FEA48
:1001B000655C00F0E2804FEA5454D4EB5555B8BF6B
:1001C0006D420CDD2C4480EA020281EA030382EADC
:1001D000000083EA010180EA020281EA0303362D6E
:1001E00088BF30BD11F0004F4FEA01314FF4801C41
:1001F0004CEA113102D0404261EB410113F0004F53
:100200004FEA03334CEA133302D0524263EB430309
:1002100094EA050F00F0A780A4F10104D5F1200EA7
:100220000DDB02FA0EFC22FA05F2801841F1000102
:1002300003FA0EF2801843FA05F359410EE0A5F1D6
:1002400020050EF1200E012A03FA0EFC28BF4CF007
:10025000020C43FA05F3C01851EBE37101F00045BD
:1002600007D54FF0000EDCF1000C7EEB00006EEBCA
:100270000101B1F5801F1BD3B1F5001F0CD3490854
:100280005FEA30004FEA3C0C04F101044FEA4452AB
:1002900012F5800F80F09A80BCF1004F08BF5FEA32
:1002A000500C50F1000041EB045141EA050130BD12
:1002B0005FEA4C0C404141EB0101013C28BFB1F524
:1002C000801FE9D291F0000F04BF01460020B1FA6F
:1002D00081F308BF2033A3F10B03B3F120020CDA42
:1002E0000C3208DD02F1140CC2F10C0201FA0CF020
:1002F00021FA02F10CE002F11402D8BFC2F1200C85
:1003000001FA02F120FA0CFCDCBF41EA0C0190403A
:10031000E41AA2BF01EB0451294330BD6FEA040483
:100320001F3C1CDA0C340EDC04F11404C4F120026E
:1003300020FA04F001FA02F340EA030021FA04F380
:1003400045EA030130BDC4F10C04C4F1200220FAD7
:1003500002F001FA04F340EA0300294630BD21FA15
:1003600004F0294630BD94F0000F83F4801306BFDB
:1003700081F480110134013D4EE77FEA645C18BFCF
:100380007FEA655C29D094EA050F08BF90EA020F66
:1003900005D054EA000C04BF1946104630BD91EA5E
:1003A000030F1EBF0021002030BD5FEA545C05D161
:1003B0004000494128BF41F0004130BD14F58004A0
:1003C0003CBF01F5801130BD01F0004545F0FE4114
:1003D00041F470014FF0000030BD7FEA645C1ABF49
:1003E000194610467FEA655C1CBF0B46024650EA80
:1003F000013406BF52EA033591EA030F41F40021AC
:1004000030BD00BF90F0000F04BF0021704730B531
:100410004FF4806404F132044FF000054FF0000106
:1004200050E700BF90F0000F04BF0021704730B5C7
:100430004FF4806404F1320410F0004548BF40429C
:100440004FF000013EE700BF42004FEAE2014FEAF1
:1004500031014FEA02701FBF12F07F4393F07F4FCC
:1004600081F06051704732F07F4208BF704793F0CF
:100470007F4F04BF41F40021704730B54FF46074E2
:1004800001F0004521F000411CE700BF50EA0102E5
:1004900008BF704730B54FF000050AE050EA01028E
:1004A00008BF704730B511F0004502D5404261EBFE
:1004B00041014FF4806404F132045FEA915C3FF43F
:1004C000D8AE4FF003025FEADC0C18BF03325FEADC
:1004D000DC0C18BF033202EBDC02C2F1200300FA8D
:1004E00003FC20FA02F001FA03FE40EA0E0021FAB2
:1004F00002F11444BDE600BF70B54FF0FF0C4CF4A0
:10050000E06C1CEA11541DBF1CEA135594EA0C0F51
:1005100095EA0C0F00F0DEF82C4481EA030621EA8C
:100520004C5123EA4C5350EA013518BF52EA0335C7
:1005300041F4801143F4801338D0A0FB02CE4FF079
:100540000005E1FB02E506F00042E0FB03E54FF0A9
:100550000006E1FB03569CF0000F18BF4EF0010EA1
:10056000A4F1FF04B6F5007F64F5407404D25FEA9D
:100570004E0E6D4146EB060642EAC62141EA555150
:100580004FEAC52040EA5E504FEACE2EB4F1FD0C92
:1005900088BFBCF5E06F1ED8BEF1004F08BF5FEA10
:1005A000500E50F1000041EB045170BD06F00046C2
:1005B00046EA010140EA020081EA0301B4EB5C046F
:1005C000C2BFD4EB0C0541EA045170BD41F4801167
:1005D0004FF0000E013C00F3AB8014F1360FDEBF8C
:1005E000002001F0004170BDC4F10004203C35DA68
:1005F0000C341BDC04F11404C4F1200500FA05F3EB
:1006000020FA04F001FA05F240EA020001F000428B
:1006100021F0004110EBD37021FA04F642EB060101
:100620005EEA430E08BF20EAD37070BDC4F10C042B
:10063000C4F1200500FA04F320FA05F001FA04F2EF
:1006400040EA020001F0004110EBD37041F10001DB
:100650005EEA430E08BF20EAD37070BDC4F12005E6
:1006600000FA05F24EEA020E20FA04F301FA05F24E
:1006700043EA020321FA04F001F0004121FA04F2F6
:1006800020EA020000EBD3705EEA430E08BF20EAC6
:10069000D37070BD94F0000F0FD101F00046400000
:1006A00041EB010111F4801F08BF013CF7D041EA82
:1006B000060195F0000F18BF704703F00046520086
:1006C00043EB030313F4801F08BF013DF7D043EA57
:1006D0000603704794EA0C0F0CEA135518BF95EA0D
:1006E0000C0F0CD050EA410618BF52EA4306D1D194
:1006F00081EA030101F000414FF0000070BD50EAB3
:10070000410606BF1046194652EA430619D094EA3C
:100710000C0F02D150EA013613D195EA0C0F05D126
:1007200052EA03361CBF104619460AD181EA03017A
:1007300001F0004141F0FE4141F470014FF0000032
:1007400070BD41F0FE4141F4780170BD70B54FF0CD
:10075000FF0C4CF4E06C1CEA11541DBF1CEA13554D
:1007600094EA0C0F95EA0C0F00F0A7F8A4EB05042F
:1007700081EA030E52EA03354FEA013100F0888026
:100780004FEA03334FF0805545EA131343EA1263EF
:100790004FEA022245EA111545EA10654FEA0026A4
:1007A0000EF000419D4208BF964244F1FD0404F55D
:1007B000407402D25B084FEA3202B61A65EB0305B9
:1007C0005B084FEA32024FF480104FF4002CB6EB76
:1007D000020E75EB030E22BFB61A754640EA0C00F6
:1007E0005B084FEA3202B6EB020E75EB030E22BF36
:1007F000B61A754640EA5C005B084FEA3202B6EB77
:10080000020E75EB030E22BFB61A754640EA9C0035
:100810005B084FEA3202B6EB020E75EB030E22BF05
:10082000B61A754640EADC0055EA060E18D04FEAC3
:10083000051545EA16754FEA06164FEAC30343EA63
:1008400052734FEAC2025FEA1C1CC0D111F4801F30
:100850000BD141EA00014FF000004FF0004CB6E729
:1008600011F4801F04BF01430020B4F1FD0C88BFC8
:10087000BCF5E06F3FF6AFAEB5EB030C04BFB6EBD3
:10088000020C5FEA500C50F1000041EB045170BDC6
:100890000EF0004E4EEA113114EB5C04C2BFD4EBF3
:1008A0000C0541EA045170BD41F480114FF0000E77
:1008B000013C90E645EA060E8DE60CEA135594EAF3
:1008C0000C0F08BF95EA0C0F3FF43BAF94EA0C0FF6
:1008D0000AD150EA01347FF434AF95EA0C0F7FF46B
:1008E00025AF104619462CE795EA0C0F06D152EABF
:1008F00003353FF4FDAE1046194622E750EA4106A3
:1009000018BF52EA43067FF4C5AE50EA41047FF4B3
:100910000DAF52EA43057FF4EBAE12E74FF0FF3C18
:1009200006E000BF4FF0010C02E000BF4FF0010CE9
:100930004DF804CD4FEA410C7FEA6C5C4FEA430C62
:1009400018BF7FEA6C5C1BD001B050EA410C0CBFB1
:1009500052EA430C91EA030F02BF90EA020F002013
:10096000704710F1000F91EA030F58BF994208BF7A
:1009700090422CBFD8176FEAE37040F00100704737
:100980004FEA410C7FEA6C5C02D150EA013C07D18E
:100990004FEA430C7FEA6C5CD6D152EA033CD3D0D9
:1009A0005DF8040B704700BF8446104662468C46D3
:1009B0001946634600E000BF01B5FFF7B7FF002806
:1009C00048BF10F1000F01BD4DF808EDFFF7F4FF2F
:1009D0000CBF012000205DF808FB00BF4DF808EDBA
:1009E000FFF7EAFF34BF012000205DF808FB00BFDD
:1009F0004DF808EDFFF7E0FF94BF012000205DF8FF
:100A000008FB00BF4DF808EDFFF7CEFF94BF0120B3
:100A100000205DF808FB00BF4DF808EDFFF7C4FFAC
:100A200034BF012000205DF808FB00BF80F00040CB
:100A300002E000BF81F0004142001FBF5FEA4103B6
:100A400092EA030F7FEA226C7FEA236C6AD04FEAB6
:100A50001262D2EB1363C1BFD218414048404140FB
:100A6000B8BF5B42192B88BF704710F0004F40F4AD
:100A7000000020F07F4018BF404211F0004F41F4C9
:100A8000000121F07F4118BF494292EA030F3FD095
:100A9000A2F1010241FA03FC10EB0C00C3F12003A8
:100AA00001FA03F100F0004302D5494260EB400037
:100AB000B0F5000F13D3B0F1807F06D340084FEAA2
:100AC000310102F10102FE2A51D2B1F1004F40EB97
:100AD000C25008BF20F0010040EA030070474900FF
:100AE00040EB0000013A28BFB0F5000FEDD2B0FA9C
:100AF00080FCACF1080CB2EB0C0200FA0CF0AABFBF
:100B000000EBC25052421843BCBFD040184370475C
:100B100092F0000F81F4000106BF80F40000013262
:100B2000013BB5E74FEA41037FEA226C18BF7FEA39
:100B3000236C21D092EA030F04D092F0000F08BF7B
:100B40000846704790EA010F1CBF0020704712F062
:100B50007F4F04D1400028BF40F00040704712F1A1
:100B600000723CBF00F50000704700F0004343F006
:100B7000FE4040F4000070477FEA226216BF08463C
:100B80007FEA23630146420206BF5FEA412390EAFF
:100B9000010F40F4800070474FF0000304E000BFF5
:100BA00010F0004348BF40425FEA000C08BF7047A6
:100BB00043F0964301464FF000001CE050EA01026A
:100BC00008BF70474FF000030AE000BF50EA01027F
:100BD00008BF704711F0004302D5404261EB41016C
:100BE0005FEA010C02BF84460146002043F0B64391
:100BF00008BFA3F18053A3F50003BCFA8CF2083AB6
:100C0000A3EBC25310DB01FA02FC634400FA02FCBE
:100C1000C2F12002BCF1004F20FA02F243EB0200C5
:100C200008BF20F00100704702F1200201FA02FC27
:100C3000C2F1200250EA4C0021FA02F243EB02001A
:100C400008BF20EADC7070474FF0FF0C1CEAD0525E
:100C50001EBF1CEAD15392EA0C0F93EA0C0F6FD01F
:100C60001A4480EA010C400218BF5FEA41211ED0FD
:100C70004FF0006343EA501043EA5111A0FB0131E9
:100C80000CF00040B1F5000F3EBF490041EAD371BE
:100C90005B0040EA010062F17F02FD2A1DD8B3F13A
:100CA000004F40EBC25008BF20F00100704790F0A9
:100CB000000F0CF0004C08BF49024CEA502040EAFB
:100CC00051207F3AC2BFD2F1FF0340EAC2507047C1
:100CD00040F400004FF00003013A5DDC12F1190FFF
:100CE000DCBF00F000407047C2F10002410021FA71
:100CF00002F1C2F1200200FA02FC5FEA310040F189
:100D0000000053EA4C0308BF20EADC70704792F001
:100D1000000F00F0004C02BF400010F4000F013A39
:100D2000F9D040EA0C0093F0000F01F0004C02BF34
:100D3000490011F4000F013BF9D041EA0C018FE7A3
:100D40000CEAD15392EA0C0F18BF93EA0C0F0AD0A9
:100D500030F0004C18BF31F0004CD8D180EA0100CF
:100D600000F00040704790F0000F17BF90F0004F68
:100D7000084691F0000F91F0004F14D092EA0C0F4A
:100D800001D142020FD193EA0C0F03D14B0218BFDD
:100D9000084608D180EA010000F0004040F0FE4023
:100DA00040F40000704740F0FE4040F440007047BF
:100DB0004FF0FF0C1CEAD0521EBF1CEAD15392EA3E
:100DC0000C0F93EA0C0F69D0A2EB030280EA010C2E
:100DD00049024FEA402037D04FF0805343EA1111C7
:100DE00043EA10130CF000408B4238BF5B0042F125
:100DF0007D024FF4000C8B4224BF5B1A40EA0C00CA
:100E0000B3EB510F24BFA3EB510340EA5C00B3EBFB
:100E1000910F24BFA3EB910340EA9C00B3EBD10FE9
:100E200024BFA3EBD10340EADC001B0118BF5FEA3B
:100E30001C1CE0D1FD2A3FF650AF8B4240EBC25064
:100E400008BF20F0010070470CF0004C4CEA502025
:100E50007F32C2BFD2F1FF0340EAC250704740F474
:100E600000004FF00003013A37E792F0000F00F066
:100E7000004C02BF400010F4000F013AF9D040EAE4
:100E80000C0093F0000F01F0004C02BF490011F478
:100E9000000F013BF9D041EA0C0195E70CEAD15370
:100EA00092EA0C0F08D142027FF47DAF93EA0C0F57
:100EB0007FF470AF084676E793EA0C0F04D14B023B
:100EC0003FF44CAF08466EE730F0004C18BF31F0ED
:100ED000004CCAD130F000427FF45CAF31F00043E7
:100EE0007FF43CAF5FE700BF4FF0FF3C06E000BF80
:100EF0004FF0010C02E000BF4FF0010C4DF804CDA3
:100F00004FEA40024FEA41037FEA226C18BF7FEAB2
:100F1000236C11D001B052EA530C18BF90EA010FB4
:100F200058BFB2EB030088BFC81738BF6FEAE17043
:100F300018BF40F0010070477FEA226C02D15FEADF
:100F4000402C05D17FEA236CE4D15FEA412CE1D04B
:100F50005DF8040B704700BF844608466146FFE712
:100F60000FB5FFF7C9FF002848BF10F1000F0FBDF4
:100F70004DF808EDFFF7F4FF0CBF012000205DF8ED
:100F800008FB00BF4DF808EDFFF7EAFF34BF012072
:100F900000205DF808FB00BF4DF808EDFFF7E0FF0B
:100FA00094BF012000205DF808FB00BF4DF808ED5C
:100FB000FFF7D2FF94BF012000205DF808FB00BFBF
:100FC0004DF808EDFFF7C8FF34BF012000205DF8A1
:100FD00008FB00BF53B94AB9002908BF00281CBF4D
:100FE0004FF0FF314FF0FF3000F06CB9ADF1080C5D
:100FF0006DE904CE00F006F8DDF804E0DDE9022337
:1010000004B070472DE9F047089E0D4604468E4611
:10101000002B40F082808A42174646D9B2FA82F20B
:101020004AB1C2F1200105FA02F320FA01F197401A
:1010300041EA030E94404FEA1748230CBEFBF8FC2C
:10104000B9B208FB1CEE43EA0E430CFB01F09842D8
:101050000AD9FB180CF1FF3580F01681984240F256
:101060001381ACF1020C3B441B1AA4B2B3FBF8F0A1
:1010700008FB103344EA034400FB01F1A14209D903
:101080003C1900F1FF3380F00181A14240F2FE8063
:1010900002383C44641A40EA0C4000211EB1D4409E
:1010A0000023C6E90043BDE8F08702B9FFDEB2FACB
:1010B00082F2002A4FD1CB1B4FEA174E1FFA87F856
:1010C0000121B3FBFEFC250C0EFB1C3345EA034556
:1010D00008FB0CF3AB4207D97D190CF1FF3002D2AB
:1010E000AB4200F2E7808446ED1AA3B2B5FBFEF0F6
:1010F0000EFB105543EA054408FB00F8A04507D94C
:101100003C1900F1FF3302D2A04500F2D780184607
:10111000A4EB080440EA0C40C0E78B4208D9002E3B
:1011200000F0AF800021C6E900050846BDE8F08761
:10113000B3FA83F100294BD1AB4202D3824200F2D1
:10114000B780841A65EB030301209E46002EAAD0C7
:10115000C6E9004EA7E7C2F1200C01FA02F397405E
:1011600020FA0CF04FEA174E21FA0CFC1843BCFB96
:10117000FEF1050C0EFB11CC1FFA87F845EA0C4571
:1011800001FB08F3AB4204FA02F409D97D1901F11D
:10119000FF3C80F08B80AB4240F2888002393D44B6
:1011A000EB1A85B2B3FBFEF00EFB103345EA0345A4
:1011B00000FB08F3AB4207D97D1900F1FF3C71D267
:1011C000AB426FD902383D44EB1A40EA014178E75F
:1011D000C1F1200C8B4022FA0CF71F4320FA0CF4CB
:1011E00005FA01F34FEA174E25FA0CF51C43230CC0
:1011F000B5FBFEF91FFA87F80EFB195543EA0545C2
:1012000009FB08FAAA4502FA01F200FA01F308D92B
:101210007D1909F1FF3047D2AA4545D9A9F1020944
:101220003D44A5EB0A05A4B2B5FBFEF00EFB10553C
:1012300044EA054400FB08F8A04507D93C1900F131
:10124000FF352DD2A0452BD902383C4440EA094055
:10125000A4EB0804A0FB02894C45C6464D4619D3B1
:1012600016D05EB1B3EB0E0264EB050404FA0CFC7D
:10127000CA404CEA0202CC40C6E900240021BDE885
:10128000F087314630460EE7AC46EDE6184601E7FA
:101290004345E6D2B8EB020E69EB07050138E0E7FB
:1012A0002846D3E760468FE78146BAE7614677E78D
:1012B00008464BE7ACF1020C3D4415E702383C44CC
:1012C00026E700BF704700BF4FEA410C7FEA6C5C25
:1012D00002D150EA013C0AD14FEA430C7FEA6C5C30
:1012E00002D152EA033C02D14FF0000070474FF0A8
:1012F000010070474FEA410212F5001215D211D5D4
:101300006FF47873B3EB625212D94FEAC12343F002
:10131000004343EA505311F0004F23FA02F018BF84
:10132000404270474FF00000704750EA013005D14D
:1013300011F0004008BF6FF0004070474FF0000010
:10134000704700BF10F8012B11F8013B012A28BF9C
:101350009A42F7D0D01A7047034613F8012B002A9F
:10136000FBD1181A013870472DE9F04F446A99B043
:1013700016461F46CDE90467DDF8948005463CB962
:1013800010200EF0F7FFC0E9014468620460C460F9
:101390006B6A196851B15A684A60012393408B60A7
:1013A000284613F075FD6B6A00221A603B1EB9BF18
:1013B00023F0004305930023C8F80030DDF81490B3
:1013C000A74BBCBF0122C8F8002033EA090319D19A
:1013D000249A42F20F731360C9F31303334300F0EE
:1013E0006D85269B53B99F4B23E09F4B0393083396
:1013F000269A1360039819B0BDE8F08F994B0393B8
:101400000333F5E7DDE90434CDE90C34DDE90C0103
:1014100000220023FFF7D8FA804660B1249A012306
:101420001360269B002B00F04685904B269A136094
:10143000013B0393DEE716AB019317AB00932846FD
:10144000DDE90C2313F05CFFC9F30A548346002C3A
:101450007ED00D9BCDF84C80C3F31303DDE90C0166
:1014600043F07F5141F44011A4F2FF34804B00223D
:10147000FEF78AFE74A3D3E90023FFF73DF874A3B7
:10148000D3E90023FEF782FE064620460F46FEF70C
:10149000C9FF71A3D3E90023FFF72EF802460B46DC
:1014A00030463946FEF772FE06460F46FFF722FF2A
:1014B00000228246002330463946FFF78FFA48B1B2
:1014C0005046FEF7AFFF32463B46FFF77DFA08B9BC
:1014D0000AF1FF3ABAF1160F57D8664B03EBCA036D
:1014E000D3E90023DDE90C01FFF778FA00284ED09C
:1014F0000AF1FF3A00230F93169B1C1B631E0993EE
:1015000045BFC4F101030693002300234CBF099398
:101510000693BAF1000F3CDB099BCDF838A0534489
:10152000099300230A93229B092B00F2B580052B17
:10153000C4BF043B2293229BA3F10203CCBF00242F
:101540000124032B00F2B480DFE803F02D987AA485
:10155000DDE916431C4404F23243202BC3BFC3F120
:10156000400304F2124009FA03F3C3F12003C6BF9B
:1015700026FA00F0184306FA03F0FEF743FF0123B2
:10158000A1F1F871013C139370E70123B3E70F90C9
:10159000B2E7069BA3EB0A030693CAF100030A9382
:1015A00000230E93BFE700230B93239B002B00F334
:1015B00082804FF00109CDF820904B46CDF88C90F9
:1015C0006E6A00227260042202F11400984271686F
:1015D00077D9284613F028FC6B6A30601B680393A8
:1015E000089B0E2B00F2EE80002C00F0EB80BAF18D
:1015F000000F7ADD1F4A0AF00F0302EBC303D3E9A1
:1016000000341AF4807FCDE910344FEA2A145CD0FC
:10161000194BDDE90C01D3E90823FFF797F8CDE971
:10162000040104F00F040327134E002C4FD1DDE911
:101630001023DDE90401FFF789F8CDE904016EE02C
:101640000123B1E7AFF3008061436F63A787D23F07
:10165000B3C8608B288AC63FFB799F501344D33FA1
:101660000000F07FAE740100A574010082740100D7
:101670000000F83F905801006858010000230B93C8
:10168000239B0AEB030909F10103012B0893B8BF5F
:10169000012395E70123F2E70124002322930B9411
:1016A0004FF0FF390022CDF820901223239287E7D4
:1016B00001230B93F4E7DDF88C90CDF820904B4696
:1016C0007EE70131716052007EE70227ACE7E10757
:1016D00008D5DDE91001D6E90023FEF70DFFCDE9BD
:1016E00010010137641008369FE700F0A580CAF1A9
:1016F0000004A44BA44E04F00F0203EBC203D3E991
:101700000023DDE90C01FEF7F7FECDE90401241109
:1017100000230227002C40F08480002B8DD10F9BEA
:10172000002B00F08B80DDE90434CDE91034DDE9D5
:101730001001964B0022FFF751F900287ED0089B3C
:10174000002B7BD0B9F1000F38DDDDE91001904BA3
:101750000022FEF7D1FECDE904010AF1FF3801377E
:101760004C463846FEF75EFEDDE90423FEF7C4FE74
:10177000884B0022FEF70AFDA1F15076CDE9100159
:101780001196002C5DD1DDE90401834B0022FEF7A8
:10179000FBFC02460B46CDE90423109A3346FFF7C3
:1017A0003BF9002840F09782DDE90401109A06F128
:1017B0000043FFF713F9002840F08B82DDE90C3479
:1017C000CDE90434179B002BC0F25181BAF10E0F02
:1017D00000F34D816B4B03EBCA03D3E90034CDE931
:1017E0000634239B002B80F2DB80089B002B00F348
:1017F000D78040F06D82684B0022DDE90601FEF7DC
:101800007BFEDDE90423FFF7FDF8089C264600284F
:1018100040F04382039F312307F8013B0AF1010A9C
:101820003FE2E20705D5D6E90023FEF765FE013762
:101830000123641008366DE7022770E7089CD04644
:101840008FE703994F4B214412910B9903EBC4038B
:10185000DDE9106753E90223002946D04F490020F3
:10186000FEF774FF3B463246FEF78EFCCDE91001D1
:10187000039FDDE90401FFF73DFD0446FEF7D2FDBD
:1018800002460B46DDE90401FEF77EFC30340246D9
:101890000B46CDE9042307F8014BDDE91023FFF7E0
:1018A0009DF8002865D1DDE9042338490020FEF7C2
:1018B0006BFCDDE91023FFF791F8002840F0B680BB
:1018C000129B9F423FF47AAFDDE91001304B0022BA
:1018D000FEF712FE2E4BCDE910010022DDE90401D6
:1018E000FEF70AFECDE90401C3E730463946FEF7AC
:1018F00003FECDE91001129B039C1493DDE9040162
:10190000FFF7F8FC1590FEF78DFD02460B46DDE96A
:101910000401FEF739FC159B303304F8013B129BA0
:101920009C4206460F464FF0000224D11B4BDDE9D6
:101930001001FEF72BFC02460B4630463946FFF7F6
:101940006BF8002871D1DDE9102314490020FEF75F
:101950001BFC02460B4630463946FFF73FF800288D
:101960003FF42CAF149F7B1E149317F8013C302BCF
:10197000F8D0C24649E0064BFEF7BEFDCDE90401B2
:10198000BCE700BF90580100685801000000F03F1C
:101990000000244000001C40000014400000E03F14
:1019A000DDE90489039FDDE9062340464946FEF749
:1019B000CDFEFFF79FFC0446FEF734FDDDE906236C
:1019C000FEF79AFD04F130060B46024649464046B2
:1019D000FEF7DAFB07F8016B039E089BBE1BB342C0
:1019E00038D102460B46FEF7D1FBDDE906238046DF
:1019F0008946FFF711F858BBDDE906234046494602
:101A0000FEF7E2FF08B1E10722D42846594613F059
:101A10003FFA00233B70249B0AF101001860269BCB
:101A2000002B3FF4E7AC1F60E4E427463B461F462B
:101A300013F8012D392A07D1039A9A42F7D1039955
:101A4000302208F101080A701A7801321A7090E702
:101A5000D046EBE7A14B0022FEF74EFD002200230B
:101A600080468946FEF7B0FF00289CD0CDE70B9A50
:101A7000002A00F0CD80229A012A00F3AF80139A49
:101A8000002A00F0A78003F233430A9C069F069ABF
:101A90001A440692099A01211A442846099213F021
:101AA0009AFA0646002F0CDD099B002B09DDBB428C
:101AB000069AA8BF3B46D21A0692099AFF1AD31A71
:101AC00009930A9BF3B10B9B002B00F0A580002C1F
:101AD00010DD3146224628460FF0A0F85A4601464E
:101AE0000646284613F080FA59468046284613F0E9
:101AF000CFF9C3460A9B1A1B04D0594628460FF05B
:101B00008DF883460121284613F065FA0E9B002BC1
:101B1000044640F383801A46014628460FF07EF8BB
:101B2000229B012B04467CDD4FF00008236904EB67
:101B30008303186913F001FAC0F12000099B1844CF
:101B400010F01F0000F08E80C0F12003042B40F342
:101B50008780C0F11C00069B03440693099B034445
:101B600007440993069B002B05DD59461A46284673
:101B700013F0D6FA8346099B002B05DD21461A4651
:101B8000284613F0CDFA04460F9B002B6CD021465B
:101B9000584613F024FB002866DA002359460A222F
:101BA000284613F08CF90B9B0AF1FF3A8346002B71
:101BB00000F08B81314600230A22284613F07FF97A
:101BC000B9F1000F064600F39180229B022B40F3EF
:101BD0008D8051E0169BC3F1360356E7089B5C1ECF
:101BE0000A9BA342BFBF0A9B0A94E21A0E9BB6BF90
:101BF0009B181C1B0E93089BB8BF0024002BB9BF79
:101C0000069B089A069F089BBCBF9F1A00233EE7CD
:101C10000A9C069F0B9E45E70A9A6EE7229B012BC2
:101C200019DC049BBBB9059BC3F313039BB9059B4C
:101C300023F000431B0D1B0583B1069B0133069364
:101C4000099B013309934FF001080E9B002B7FF491
:101C50006DAF012072E74FF00008F6E79846F4E711
:101C600080D018461C3076E7089B002B38DC229B7E
:101C7000022B35DDDDF82090B9F1000F0DD12146A2
:101C80004B460522284613F01AF9014604465846E9
:101C900013F0A5FA00283FF7BDAD239B039F6FEA21
:101CA000030A4FF000082146284613F0F1F8002EF1
:101CB0003FF4ABAEB8F1000F05D0B04503D04146BC
:101CC000284613F0E5F83146284613F0E1F89CE683
:101CD00000242646E1E7C24626469BE50000244054
:101CE0000B9BDDF82090002B00F0F680002F05DD27
:101CF00031463A46284613F013FA0646B8F1000F6B
:101D000055D07168284613F08FF8326902320746C1
:101D1000920006F10C010C3012F093FE01223946BC
:101D2000284613F0FDF9039B01330893039B4B44B2
:101D30000A93049B03F00103B04609930646089BEF
:101D40002146013B5846049312F0E3FF034630332B
:101D50000690414658460B9313F041FA32468146AD
:101D60002146284613F056FAC2680B9B074602BB71
:101D70000146584613F033FA0B9B02463946284673
:101D8000CDE90B3213F084F8229B0C9A089F43EAAA
:101D90000201099B0B430B9B0DD1392B29D0B9F1C3
:101DA000000F01DD069B3133049A13707BE7304648
:101DB000B9E70122E2E7B9F1000F06DB229941EA17
:101DC0000909099959EA010120D1002AECDD594697
:101DD00001222846089313F0A3F92146834613F005
:101DE000FEF90028089B02DCDED1DA07DCD5392BAE
:101DF000D8D1049A392313703B461F46013B17F88C
:101E0000012C392A50D001321A704CE7002A03DD28
:101E1000392BEED00133C7E7089A0A9902F8013C42
:101E20008A422AD0594600230A22284613F047F84E
:101E3000B04583464FF000034FF00A024146284662
:101E400007D113F03CF880460646089B01330893FF
:101E500075E713F034F83146804600230A222846FD
:101E600013F02DF80646F0E7B9F1000F039ACCBF46
:101E70004F46012717444FF00008594601222846D3
:101E8000089313F04DF92146834613F0A8F9002872
:101E9000B2DC02D1089BDB07AED43B461F4613F8E9
:101EA000012D302AFAD0FEE6039A9A42A5D10AF112
:101EB000010A312379E7134BFFF7BBBA269B002BAE
:101EC0007FF493AA104BFFF7B4BAB9F1000F03DC0B
:101ED000229B022B3FF7D0AE039F2146584612F0BB
:101EE00018FF00F1300307F8013B039ABA1A914535
:101EF000BADD594600230A22284612F0E0FF834645
:101F0000EBE700BF81740100A57401002DE9F84FD3
:101F100005460E461446D0F808A0D0F804B0D0F814
:101F2000108012F4FC2F36D104F03003302B3FD058
:101F300040F202232340022B47D004F00603042B77
:101F400050D014F4406702D014F4007F57D0B7F596
:101F5000406F62D014F4805F05D027B114F0010FF8
:101F600001D084F4406424F48059DBF80030012768
:101F7000B7403B425FD014F0010F6AD0D8F8003070
:101F80001F43C8F80070DAF800304A463146284648
:101F90009847BDE8F88F324F40F2DE22394631488B
:101FA0000FF042F840F2DE2138460FF05FF9BBE750
:101FB0002B4F40F2E12239462A480FF035F840F223
:101FC000E12138460FF052F9B2E7254F40F2E52201
:101FD000394624480FF028F840F2E52138460FF042
:101FE00045F9AAE71E4F40F2E92239461D480FF095
:101FF0001BF840F2E92138460FF038F9A1E7DFF885
:1020000060904FF43B72494616480FF00DF84FF4BC
:102010003B7148460FF02AF999E7DFF844904FF4F6
:102020003C7249460F480EF0FFFF4FF43C714846A2
:102030000FF01CF98EE7DFF828B040F2FD22594678
:1020400008480EF0F1FF40F2FD2158460FF00EF95E
:1020500091E7D8F8003023EA0707C8F8007092E744
:10206000585901008459010030B583B0054600235A
:10207000009301930146684604F084FB20B9294689
:1020800014480EF0D1FF0DE00446024629461248DE
:102090000EF0CAFF1BE01149D1F8042101311048AC
:1020A0000EF0C2FF0D49684604F002FC044658B920
:1020B0000A4B5B7843B1094B1B78012BEBD10949E3
:1020C00009480EF0B1FFEDE7684604F07DFC2046BC
:1020D00003B030BDB85901009C59010070060020C2
:1020E000DC59010071060020D059010010B584B000
:1020F000002005F0EFFD20B300230193039301239B
:102100000293694600F09EFE041E2DDB029B13F035
:10211000030F3BD1039C002C3AD0274B274A9B1A34
:10212000DB084FF00002012161F302026FF3C502E8
:1021300063F38F122146224802F0BAFA204604B017
:1021400010BD1D4B1D4A9B1ADB084FF000010122F8
:1021500062F302016FF3C50163F38F11194802F0B6
:1021600079FB6FF00504E9E7134B144A9B1ADB086F
:102170004FF00002012161F302026FF3C50263F325
:102180008F122146104802F093FAD7E76FF00A0445
:10219000002CBBD1084B094A9B1ADB084FF0000208
:1021A000042161F302026FF3C50263F38F12074942
:1021B000074802F07DFAC1E7745701007457010027
:1021C000305A0100F4590100145A0100705B0100FB
:1021D000505A0100F0B583B040200EF0CBF8FFF765
:1021E00085FF08B103B0F0BD0646A2480BF038FCED
:1021F000002875D0A0480FF08AFB002875D09F4BAF
:102200009F4A9B1ADB084FF00001012262F3020192
:102210006FF3C50163F38F119A4802F01BFB9A48D4
:102220009A4BC36004F0FEFB002840F0AC80984855
:102230000EF0FAFE9548FFF717FF964B00221A6042
:102240005A609A60904BDB68934AFF2193480EF0E6
:10225000A1FC93480BF004FC924C6061217C40F29D
:102260000122FFF753FE90480BF0FAFBE0600028D4
:1022700000F08D808D480EF0D7FE8A480EF046FEA5
:102280004FF4004000210DF073FB854C20460BF00D
:10229000E7FB40F201220721FFF738FE20460BF052
:1022A000DFFB0446436807691B6813F0800F73D097
:1022B0003B6813F0800F7CD1012563681B6813F025
:1022C000800F78D0002D00F08380A368DB68802128
:1022D000204698474FF4004000210DF049FBA2E052
:1022E000644973480EF0A0FE7CE76A46012162480B
:1022F0000FF06FFB80B1614B614A9B1ADB084FF016
:102300000001012262F302016FF3C50163F38F1133
:10231000684802F09FFA82E7584B594A9B1ADB083B
:102320004FF00002032161F302026FF3C50263F371
:102330008F120099604802F0BBF901AA02214E48B1
:102340000FF047FB80B14D4B4D4A9B1ADB084FF015
:102350000001012262F302016FF3C50163F38F11E3
:10236000564802F077FA5AE7019955480EF05CFE9C
:102370000098019BA0FB0301030D43EA0131514882
:102380000EF052FE4BE750480EF04EFE55E7464920
:1023900047480EF049FE25E74C4D40F2BB42294626
:1023A0004B480EF041FE40F2BB4128460EF05EFF66
:1023B0007EE7354681E7454F40F291423946444831
:1023C0000EF032FE40F2914138460EF04FFF79E7B1
:1023D000A3681B698021204698477BE73B4F40F26A
:1023E000BB4239463A480EF01FFE40F2BB41384628
:1023F0000EF03CFF2CE001252FE0344F40F29142DB
:10240000394633480EF010FE40F2914138460EF046
:102410002DFF27E0A3681B69802120469847C5202F
:1024200000210DF0A5FA2B4C21461E4800F006FABB
:102430000021E068FEF79CFD0028F0D018480BF062
:102440000FFB0446436805691B6813F0800FC5D075
:102450002B6813F0800FCED1354663681B6813F0EC
:10246000800FCAD0002DD5D0A368DB68802120461C
:102470009847D4E7685A01008C5A0100745701004C
:1024800074570100905A010018000020105B0100F1
:10249000185B0100B4090020405B0100C009002066
:1024A0004C5B010000000020545B01005C5B0100FC
:1024B000705A0100A45A0100C05A0100D05A01000C
:1024C000EC5A0100FC5A0100285B01005859010038
:1024D00084590100580600202DE9F04389B00446D4
:1024E0008DF807108DF806200DF1070304930125E0
:1024F00005950DF106020692079504AA02920222A2
:102500000392466990F8108072683769126805FA7C
:1025100008F52A421DD03B681D4228D10127736867
:102520001B68012505FA08F52B4222D07FB3B3685A
:10253000DB68294630469847E06883681D680023B9
:1025400002AA2146A847074638B3384609B0BDE875
:10255000F083DFF8CC9040F2BB4249462F480EF0A2
:1025600063FD40F2BB4148460EF080FED3E70027F2
:10257000D5E7DFF8AC8040F29142414627480EF0A3
:1025800053FD40F2914140460EF070FECEE7B36835
:102590001B69294630469847CEE7656994F8108054
:1025A0006B682C691B68012606FA08F6334211D0C5
:1025B00023681E421CD13E466B681B68012404FA46
:1025C00008F4234216D01EB3AB68DB6821462846C8
:1025D0009847BAE7DFF8489040F2BB4249460F48B7
:1025E0000EF022FD40F2BB4148460EF03FFEDFE711
:1025F0000126E1E7DFF8288040F291424146074892
:102600000EF012FD40F2914140460EF02FFEDAE747
:10261000AB681B6921462846984796E78459010014
:102620005859010010B50C460A464121FFF754FFE6
:10263000033C092C16D8DFE804F005150915150D23
:1026400015151511094B0A4A1A6010BD074B094AA6
:102650001A60FAE7054B084A1A60F6E7034B074A87
:102660001A60F2E7014B024A1A60EEE73C000020D4
:10267000A9F51C3AA9F59C3AD3F51C3BBDF59C3B4A
:1026800010B50C460A464321FFF726FF042C18D844
:10269000DFE804F0130F0B0703000C4B0C4A1A6021
:1026A00010BD0A4B0B4A1A60FAE7084B0A4A1A6037
:1026B000F6E7064B094A1A60F2E7044B084A1A602B
:1026C000EEE7024B034A1A60EAE700BF4000002031
:1026D000F8C1793BF8C1F93B8DC1793C8DC1F93C1A
:1026E0008DC1793D2DE9F0438DB004460020ADF851
:1026F0002C0061F07F018DF82C100BA909910120AD
:102700000A9009AD079508900391049005920693ED
:1027100003AB019302230293666994F810807368F7
:1027200037691B6800FA08F52B423AD03B681D4216
:1027300045D1012773681B68012505FA08F52B426E
:102740003FD0002F4BD0B368DB682946304698470E
:10275000E06883681D6801AB07AA2146A8470746C1
:10276000656994F810806B682C691B68012606FA6D
:1027700008F6334239D023681E4244D100266B68E4
:102780001B68012404FA08F423423ED0002E4AD0EC
:10279000AB68DB6821462846984738460DB0BDE84F
:1027A000F083DFF8949040F2BB42494621480EF096
:1027B0003BFC40F2BB4148460EF058FDB6E700270F
:1027C000B8E7DFF8748040F29142414619480EF0B4
:1027D0002BFC40F2914140460EF048FDB1E7B36852
:1027E0001B69294630469847B2E7DFF84C9040F223
:1027F000BB4249460F480EF017FC40F2BB41484629
:102800000EF034FDB7E70126B9E7DFF82C8040F27F
:102810009142414607480EF007FC40F29141404684
:102820000EF024FDB2E7AB681B69214628469847A5
:10283000B3E700BF845901005859010000296DD049
:102840002DE9F04184B00D460023019302930393D8
:102850000C2301AA1946FFF745FF06469DF80530EF
:102860001B021BB29DF804009DF807703F023FB2A7
:102870009DF8062017439DF80940240224B29DF8D4
:10288000082014431843FEF78BF9254BD3F800803A
:102890004146FEF7D9F9E8603846FEF781F901466E
:1028A0004046FEF7D1F928612046FEF779F9014646
:1028B0004046FEF7C9F968619DF80B301B021BB258
:1028C0009DF80A009DF80D703F023FB29DF80C2064
:1028D00017439DF80F40240224B29DF80E201443A4
:1028E0001843FEF75DF90F4BD3F800804146FEF721
:1028F000ABF928603846FEF753F901464046FEF72B
:10290000A3F968602046FEF74BF901464046FEF702
:102910009BF9A860F0B204B0BDE8F081FF207047D9
:10292000400000203C00002038B50446436803F016
:1029300003038160022B03D9032B02D100680DE051
:102940005BB9084D4522294607480EF06DFB45212D
:1029500028460EF08BFC002000E00020002363607E
:1029600038BD00BF805B010084590100014B186035
:10297000704700BF4400002010B584B004460190A9
:1029800002910021039101A9054800F0A1FD039BDC
:10299000029A934201DA0022E254039804B010BD77
:1029A000F90F010038B504460D46838B002A13DB6E
:1029B00003F007035A1F012A1AD9042B4DD02D4CBE
:1029C00040F21B1221462C480EF02EFB40F21B1148
:1029D00020460EF04BFC38BDD0E9000185E803002D
:1029E000002323606360012120460EF039FBF2E7EB
:1029F000D0E9000185E80300002222606260062B16
:102A00000FD0052B1CD1002120460EF029FB2046BB
:102A10000EF04DFB0028DED0A38B43F02003A383F0
:102A2000D9E72B683BB1E28B0132E283002BF9D06E
:102A30001B68002BF6D1022120460EF011FBE6E7C1
:102A40000C4D40F2091229460B480EF0EDFA40F207
:102A5000091128460EF00AFCD5E700210EF000FB14
:102A600020460EF024FB0028B5D0A38B43F02003B2
:102A7000A383B0E7A45B0100845901002DE9F04F66
:102A800083B004461646838B03F0070703F008085B
:102A90000D4631B1B8F1000F11D10023009301931D
:102AA000A7E0DFF8149340F233124946C1480EF014
:102AB000BBFA40F2331148460EF0D8FBEAE7012D8D
:102AC00013D0022D16D1A38B43F02003A38304F16E
:102AD00014000BF0AFFA002800F0768186F311881D
:102AE000BFF36F8F03B0BDE8F08FA38B43F01003EB
:102AF000A383ECE7B04D4FF49E722946AD480EF02B
:102B000093FA4FF49E7128460EF0B0FBDBE72046A7
:102B10000EF0CDFA05466EE0D4F818904A466946A4
:102B20002046FFF73FFF002510E0002F7FD12368EC
:102B3000002B00F0898023691D68002D00F0918032
:102B4000062120460EF08CFA4FF00009A38B03F00B
:102B50000708B84500F00081A268002A00F0FE8056
:102B6000012217461AB9009A002A00F0F98043F0B2
:102B70000803A38304F1140A50460BF05BFA002803
:102B800000F0F28086F31188BFF36F8F002F40F0C2
:102B9000F780009B2BB14B464246694620460EF01B
:102BA000C8FA15B185492046A8474FF02003EFF336
:102BB000118683F31288BFF36F8F50460BF02AFA09
:102BC000002800F0E38050460BF044FAA38B23F07A
:102BD0000803A383A38B13F0100F00F0E28023F00F
:102BE0001003A3830125A78B07F00707002D3FF4EF
:102BF0006EAF022D8BD0002D3FF469AF012D8BD02D
:102C0000032D92D0042D3AD0052D40F09680012F4F
:102C10006BD12368002B75D023699D68002D7ED071
:102C2000052120460EF01CFA4FF000098EE7624D98
:102C30004FF4AB7229465F480EF0F6F94FF4AB71D2
:102C400028460EF013FB72E75B4D40F257122946FF
:102C500058480EF0E9F940F2571128460EF006FBED
:102C600069E7DFF854814FF4AD72414651480EF0E8
:102C7000DBF94FF4AD7140460EF0F8FA60E7022F31
:102C80000BD1E38BB3B923695D6805B304212046FA
:102C90000EF0E6F94FF0000958E7474D40F25D129B
:102CA000294644480EF0C0F940F25D1128460EF066
:102CB000DDFAE6E7404D4FF4AF7229463D480EF08D
:102CC000B3F94FF4AF7128460EF0D0FADBE7DFF826
:102CD000E88040F26112414636480EF0A5F940F214
:102CE000611140460EF0C2FAD0E7334D4FF4B27294
:102CF000294630480EF098F94FF4B27128460EF08C
:102D0000B5FA86E72C4D40F26512294629480EF0A7
:102D10008BF940F2651128460EF0A8FA7CE7DFF83F
:102D200098804FF4B472414622480EF07DF94FF47A
:102D3000B47140460EF09AFA72E71F4D40F26B12E2
:102D400029461C480EF070F940F26B1128460EF02F
:102D50008DFA0025A946F9E6002202E7002200E7E5
:102D6000002D7FF404AF35E7DFF854B0AC225946AC
:102D700010480EF059F9AC2158460EF077FA01E7E9
:102D80004A46414620460EF073F902E70C4D812277
:102D9000294608480EF048F9812128460EF066FAC7
:102DA00011E713F0200F0DD023F02003A383022599
:102DB00019E700BF84590100A45B0100E92D000060
:102DC000C85B010000250EE7054CAC2221460548F2
:102DD0000EF02AF9AC2120460EF048FA7EE600BF3C
:102DE000C85B0100845901002DE9F04104460D46FD
:102DF00000F114064FF02003EFF3118783F31288DC
:102E0000BFF36F8F30460BF005F950B130460BF031
:102E100021F9A5613A4601212046FFF72FFEBDE8C2
:102E2000F081DFF81C808122414604480EF0FCF856
:102E3000812140460EF01AFAE8E700BF84590100EC
:102E4000C85B01002DE9F047044688460EF048F9BA
:102E5000061E53DB04F114074FF02003EFF3118932
:102E600083F31288BFF36F8F38460BF0D3F8E8B1C5
:102E700038460BF0EFF8A58B05F00705E38B4FF60E
:102E8000FF72934250D02E46022D1AD005B3042D66
:102E90001ED0062D1CD0052D4DD0012D31D16FF047
:102EA00004064FF0000A5346524617E0364D812281
:102EB000294636480EF0B8F8812128460EF0D6F99A
:102EC000D6E70133E3834FF0010A00231A4605E0F9
:102ED000B5FA85F35B094FF0000A012242B10022E6
:102EE000C8F8002062686AB3C2F80080C4F80480A1
:102EF0006BB34A4602212046FFF7C0FD3046BDE8CD
:102F0000F087234E40F2C912314620480EF08CF86B
:102F100040F2C91130460EF0A9F96FF004064FF0E7
:102F2000000A53465246D9E76FF00A064FF0000AEE
:102F300053465246D2E76FF085064FF0000A5346DB
:102F40005246CBE7C4F80480C4F80080D0E7384686
:102F50000BF070F868B189F31188BFF36F8FBAF185
:102F6000000FCBD000232A46414620460EF0CEF873
:102F7000C4E7054FAC22394604480EF055F8AC21A1
:102F800038460EF073F9E6E7C85B0100845901008A
:102F9000A45B010010B404460268002013780749BE
:102FA000595C11F0040F06D000EB8000013203EBF6
:102FB00040003038F2E7226010BC704771730100A6
:102FC0002DE9F04F83B004460D4601929A46DDF894
:102FD0003080D378314A13F802B00BF0030B6F2B1B
:102FE0000FD006D9702B0FD0782B10D14FF01009CD
:102FF00023E0582B02D04FF00A091EE04FF01009D1
:103000001BE04FF0080918E04FF0100915E04FF0F1
:103010000A0912E0D2B23032D2B208F8012D32469B
:103020003B4620462946FDF7D5FFBD4208BFB442C6
:1030300018D3D04516D904460D464E4600274A46B9
:103040003B4620462946FDF7C5FF092AE2D9BBF1D8
:10305000010F03D0D2B25732D2B2DEE7D2B237324A
:10306000D2B2DAE7019B1B7813F0200F05D0B9F13B
:10307000080F06D0B9F1100F09D0404603B0BDE8E3
:10308000F08F019A937843F008039370F5E7019A63
:10309000937843F010039370EFE700BF7173010062
:1030A0002DE9F04F89B092461D46002871F10003CA
:1030B00008DB9AF8003013F0080F14D02B23129A73
:1030C000137002E02D23129A13709AF803B0C1F323
:1030D0000A540246C1F3130364B952EA030130D122
:1030E0004FF0000E08E013F0100FEED02023129ADC
:1030F0001370EAE74FF0000E40F2FF718C4223D0CC
:10310000BBF1460F60D04FEAC32C4CEA525CD202AE
:103110002CF0004C0692CDF81CC044EA0200E317E4
:1031200043EA0C0150EA010308D0BEF1000F4FD171
:10313000A4F2FE34079B43F0004307934FF00008CE
:1031400061E04FF0010ED7E7134322D1AD4B1BF8DE
:10315000033003F00303012B11D06923139A13707A
:103160006E2353700332662313998B709AF80030E4
:103170006FF386138AF80030149B1A6092E149239A
:10318000139A13704E2353700332462313998B7096
:10319000ECE79C4B1BF8033003F00303012B09D031
:1031A0006E23139A1370612213994A700A460332F0
:1031B0008B70DBE74E23139A1370412213994A70E8
:1031C0000A4603328B70D1E74FF0660B9BE7013C58
:1031D000069B079A13EB030842EB0209CDE9068927
:1031E000B8F1000F79F10003F1DAA1E74FEA820CA0
:1031F00098004CEA9374C31844EB020206930792BA
:103200008C1C08F1FF3814F1020F26DA0799069B8F
:103210005B0843EAC1734A080693079221460134CA
:10322000B2F1333FF2D2E1E7069B0233079A42F153
:1032300000020693079206A80DF0B8FF013C08F1C2
:103240000108069B079ADE1842EB0207CDE90667E4
:10325000013C002E77F10003F3DA002CE4DCC4F12A
:103260000401079A1C34A1F12000069BCB4002FA0E
:1032700004F4234322FA00F00343CA400693079262
:10328000BBF1670F12D0BBF1470F0FD00027BBF186
:10329000660F29D06C1C102305939C4200DD1C4650
:1032A00000224FF00063CDE9022328E018F1030F5C
:1032B00001DBA84511DDABF1020B5FFA8BFB002DA2
:1032C00000DD013D9AF80030C3F3401713F0200FE2
:1032D00008D1002DDBDD0127D9E7A5EB08054FF06C
:1032E000660BEFE70027D2E718EB0504D3D51023D0
:1032F00005930024D4E702A80DF076FF3446661E3D
:10330000002CF8D1069B029A9B180093079A039B06
:1033100042EB03030193DDE90023CDE90623B3F17A
:10332000805F08BF002A07D2BBF1660F45D1B8F114
:10333000000F3DDD139E0DE006A80DF055FF08F1CE
:103340000108F1E705A906A80DF05AFF06F8010BE0
:1033500008F1FF38B8F1000F02DD059B002BF1DC0E
:10336000CAF80480A0469AF8003013F0200F01D16B
:10337000002D02DD2E2306F8013BB8F1000F33DAF1
:10338000002D31DDC8F10003CAF804309D4201DA96
:10339000CAF80450DAF80430ED1A002BD4BF002329
:1033A00001239AF8022063F345128AF802201BE0F9
:1033B000139E302306F8013BD5E705A906A80DF0BA
:1033C0001FFF139E06F8010B302801D008F1FF38CB
:1033D0009AF8003013F0200F01D1002D04DD139B6B
:1033E0009E1C2E23139A5370002D0DDD059B002B80
:1033F0000ADD05A906A80DF003FF06F8010B013D43
:10340000F2E700BF71730100CAF8085057B10023FA
:10341000CAF8083033461E4613F8012D302AFAD078
:103420002E2A43D0BBF1650F02D0BBF1450F2AD144
:1034300086F800B0B8F1000F3ADBB21C2B23737092
:10344000B8F1630F0DDD204981FB08314FEAE873C5
:10345000C3EB611303F1300102F8011B642101FB8E
:1034600013881A4981FB08314FEAE873C3EBA103C3
:1034700003F13001164606F8021B03EB8303A8EBA9
:10348000430330335370DAF80430002B16DD012487
:103490009AF8023064F386138AF80230149B1E6097
:1034A00000233370139809B0BDE8F08F1E46B9E7CA
:1034B000C8F10008B21C2D237370C1E7DAF8083098
:1034C000002BE5DD0124E3E71F85EB5167666666A7
:1034D0002DE9F04F99B006460D4617460593002496
:1034E00000E001343878002800F09385252807D0C3
:1034F00001372946B0470028F3DA19B0BDE8F08F4C
:1035000000230A930B930F930DF15D0208928DF83F
:103510001F300C930D930E9307F101097B78252B37
:1035200002D04FF0010831E007F102098DF8333085
:10353000AEE19DF8303043F004038DF83030B8F13F
:10354000000F20D009F101091DE09DF8303043F053
:1035500008038DF83030F2E79DF8303043F0100367
:103560008DF83030EBE79DF8303043F020038DF8D4
:103570003030E4E79DF8303043F040038DF83030D0
:10358000DDE74FF00008B8F1000F29D099F80030BE
:10359000203B102BF5D801A252F823F0593500003A
:1035A0008335000083350000673500008335000057
:1035B000833500008335000083350000833500002B
:1035C00083350000833500004B3500008335000053
:1035D0003335000083350000833500007535000069
:1035E0009DF8303003F04403442B6DD0CDF8249087
:1035F0009DF8303043F080038DF8303099F800307A
:103600002A2B68D009A8FFF7C5FC099B994512D061
:103610009DF8303043F080038DF830300D90C3F3C7
:103620004003002860DB002213439DF8302063F341
:1036300041028DF83020099B09931B782E2B14BF73
:10364000002301239DF8312063F341028DF83120DE
:10365000002B4BD0099B5A1C09925B782A2B48D02F
:1036600009A8FFF797FC0E909DF83030C3F3400394
:10367000002847DB002213439DF8302063F341020A
:103680008DF83020DDF8249099F800304C3B2E2B3B
:1036900000F2DC80DFE803F0CADADADADADADADA62
:1036A000DADADADADADADADADADADADADADADADA7A
:1036B000DADADADA38DA6ADA51DADADADADADADA05
:1036C000C0DADADADADAB6009DF830306FF3861352
:1036D0008DF830308AE79DF8313043F001038DF8E2
:1036E00031304B460133A7E701229DE7DDF82490F6
:1036F000CAE79DF8313043F004038DF8313002F110
:103700000109C1E70122B6E709F1010299F8013088
:10371000682B08D09DF83130022161F3C6038DF883
:10372000313091462BE09DF83130012262F3C6031F
:103730008DF8313009F1020921E009F1010299F80F
:1037400001306C2B08D09DF83130032161F3C603A2
:103750008DF83130914612E09DF83130042262F349
:10376000C6038DF8313009F1020908E09DF83130C7
:10377000052262F3C6038DF8313009F1010919F809
:10378000012B8DF83320A2F14103372B00F2858104
:10379000DFE813F03101830183018301310131013D
:1037A000310183018301830183018301830183014B
:1037B00083018301830183018301830183018301E9
:1037C00083011C0183018301830183018301830140
:1037D00083018301310183011C0163003101310147
:1037E000310183016300830183018301830162014D
:1037F0001C01730183018301730183011C01830197
:1038000083011C019DF83130062262F3C6038DF856
:10381000313009F10109B2E79DF83130072262F336
:10382000C6038DF8313009F10109A8E79DF8313060
:10383000082262F3C6038DF8313009F101099DF8C1
:10384000303043F002038DF8303098E79DF8313086
:103850006FF3C6038DF8313091E79DF832300121C6
:1038600061F302038DF832309DF8313003F07803B4
:10387000402B00F0B380632A00F0B7809DF8303011
:10388000C3F3400248EA020868F341038DF8303080
:103890009DF8313013F0010F00F01281059B1A1DC5
:1038A0000592D3F80080B8F1000FC0F200819DF8B6
:1038B000313013F0040F00F01681059B1A1D05929C
:1038C000D3F800A0BAF1000FC0F2048100230D93D9
:1038D0000E939DF8323003F00703042B00F00C81A7
:1038E0009DF8323003F007039DF83110C1F3C30196
:1038F000012B00F01181022B00F05681042B00F007
:10390000A781032B00F0BE819DF8302012F0030F39
:1039100040F0BE819DF83330253B532B00F2CB8124
:10392000DFE813F0C201C901C901C901C901C90118
:10393000C901C901C901C901C901C901C901C90137
:10394000C901C901C901C901C901C901C901C90127
:10395000C901C901C901C901C901C9018A02C90155
:10396000C901C9018A028A028A02C901C901C901C1
:10397000C901C901C901C901C901C901C901C901F7
:10398000C901C901C901C901C9012402C901C9018B
:10399000C901C901C901C901C901C9018A02C90115
:1039A0000E0216028A028A028A02C9011602C9019F
:1039B000C901C901C901660224024E02C901C90137
:1039C000CB01C9012402C901C90124029DF832308A
:1039D000022161F302038DF8323045E79DF8301083
:1039E00041F001018DF8301045E7B3F1000818BF30
:1039F0004FF0010842E79DF83230042161F30203E1
:103A00008DF83230612A1FD0412A1BD000229DF848
:103A1000313062F3C7138DF83130DAB213F0800F12
:103A200042D102F07802182A10D0002A3FF426AFC3
:103A3000402A3FF423AF9DF8303043F001038DF866
:103A400030301BE70122E2E70122E0E7DBB26FF34F
:103A5000C6038DF8313011E79DF83230032262F34E
:103A600002038DF832309DF8313003F07803402B9B
:103A70007FF404AF4FF0010800E79DF832300322D5
:103A800062F302038DF832309DF8313013F0780F75
:103A90003FF4F4AE4FF00108F0E69DF8303043F00B
:103AA00001038DF83030E9E64FF00108E6E69DF8B5
:103AB000303043F004038DF83030C8F10008F6E6EA
:103AC0009DF93030002B02DB4FF0FF38EFE6DDF8D8
:103AD0003480ECE69DF831306FF341038DF83130DE
:103AE0004FF0FF3AF2E613F0020F02D0DDF838A0F3
:103AF000ECE64FF0FF3AE9E69DF8313013F0020FA3
:103B00007FF4EEAE9DF93130002B02DB4FF0060A58
:103B1000E6E64FF00D0AE3E6CB1E042B04D8DFE8FF
:103B200003F00B1D29353500059B1A1D05921A68F7
:103B3000D317CDE90A2306E0059B1A1D05921A68E2
:103B4000D317CDE90A23012928D002297FF4DCAE5E
:103B5000BDF92820D317CDE90A23D5E6059B073305
:103B600023F0070303F108020592D3E90023CDE90E
:103B70000A23E8E7059B073323F0070303F1080254
:103B80000592D3E90023CDE90A23DCE7059B1A1D42
:103B900005921A68D317CDE90A23D4E79DF8283097
:103BA0000A9300230B93AFE6CB1E042B04D8DFE867
:103BB00003F00B1F35414100059B1A1D05921B6840
:103BC0000A9300230B931EE09DF83330632B07D03C
:103BD000059B1A1D05921B680A9300230B9312E0A4
:103BE000059B1A1D05921B680A9300230B930AE09C
:103BF000059B073323F0070303F108020592D3E97D
:103C00000023CDE90A2301291CD002297FF47CAED0
:103C1000BDF828300A9300230B9375E6059B073304
:103C200023F0070303F108020592D3E90023CDE94D
:103C30000A23E8E7059B1A1D05921B680A930023D7
:103C40000B93E0E79DF828300A9300230B935BE683
:103C500008290BD0059B073323F0070303F1080263
:103C60000592D3E90023CDE90A234DE6059B0733EE
:103C700023F0070303F108020592D3E90023CDE9FD
:103C80000A2341E6059B1A1D05921B680A933BE631
:103C90004B463A46294630460DF0CEFA0028FFF64C
:103CA0002CAC04444F461DE429462520B04700288B
:103CB000FFF623AC01344F4614E40A9FBAF1000F1B
:103CC0003ADB5146384611F017F838440890002F77
:103CD000F1D0089BDB1B9DF81F0000B101339DF85C
:103CE000321011F0100F00F0B68002330D9A134419
:103CF00011F0400F01D00E9A1344B8F1000F40F3B9
:103D0000C380A8EB03089DF8303013F0040F40F097
:103D1000BB8013F0400F00F0A480002800F0A480C6
:103D20002946B0470028FFF6E8AB013400238DF8A0
:103D30001F304FF0300A99E03846FDF70DFBC4E71D
:103D40000A9B8DF844300DF14503089311AFBEE78F
:103D500012F0080F24D02B238DF81F30DDE90A2341
:103D6000002A73F1000122DBCDE90A23089B0093AE
:103D700011AB0CAADDE90A01FFF722F90746BAF1F7
:103D8000000FA4DB089BDB1B9DF830206FF386122D
:103D90008DF830209A459AD9AAEB03030D9396E744
:103DA00012F0100FDAD020238DF81F30D6E72D2126
:103DB0008DF81F10524263EB4303CDE90A23D5E788
:103DC0000A9818B9944F0897053F80E7089B00931D
:103DD00011AB0CAA0021FFF7F3F807469DF832302B
:103DE00043F010038DF8323078238DF83330C6E776
:103DF0000A9A9DF83130C3F3C303072B3FF65BAF3C
:103E0000DFE803F00406080A0C111618146052E7E4
:103E1000147050E714804EE714604CE72046E11719
:103E2000C2E9000147E72046E117C2E9000142E785
:103E3000146040E714603EE708AB029311AB0193B6
:103E40000DF11F03009353460CAADDE90A01FFF7A9
:103E500027F907463BE711F0080F3FF447AF01335E
:103E600044E74FF0200A01E04FF0300A434603F1E7
:103E7000FF38002B08DD29465046B0470028FFF6E2
:103E80003CAB01344346F2E79DF81F0028B12946B8
:103E9000B0470028FFF631AB01349DF8323013F003
:103EA000400F72D09DF93130002B0DDB38785B4B21
:103EB000C35C13F0040F12D001372946B047002825
:103EC000FFF61BAB0134F1E73878702844D0013796
:103ED0002946B0470028FFF610AB0134F4E7DDF8BF
:103EE00034A09DF8323013F0200F10D038782E28EF
:103EF0001DD03878494BC35C13F0040F2CD0013728
:103F00002946B0470028FFF6F8AA0134F1E70AF184
:103F1000FF3BBAF1000F08DD29463020B0470028EA
:103F2000FFF6EBAA0134DA46F1E7DA46DEE70137BD
:103F30002946B0470028FFF6E0AA01340AF1FF3B0A
:103F4000BAF1000FD5DD29463020B0470028FFF632
:103F5000D4AA0134DA46F1E70E9B03F1FF3A002BB5
:103F600008DD29463020B0470028FFF6C6AA0134F4
:103F70005346F2E7089B3A46294630460DF05CF975
:103F80000028FFF6BAAA044433E09DF83230C3F3A8
:103F90000012C3F3C003134306D029463020B047B4
:103FA0000028FFF6AAAA01349DF8323013F0100F52
:103FB00007D029469DF83300B0470028FFF69DAA98
:103FC00001340D9B03F1FF3A002B08DD2946302018
:103FD000B0470028FFF691AA01345346F2E7089B48
:103FE0003A46294630460DF027F90028FFF685AA03
:103FF0000444B8F1000F09DD29462020B04700280D
:10400000FFF67BAA013408F1FF38F2E74F46FFF7CD
:1040100069BA2046FFF771BAF55B010071730100C0
:10402000054B984204D3054B984203D300207047B8
:1040300000207047012070474C550100D0740100EA
:1040400008B5064B186018B1054B1B68092B00DC3E
:1040500008BD04480AF076FBFAE700BFF40A002026
:10406000C00A0020D803002008B502480AF06AFB05
:1040700008BD00BFD803002008B503480DF00CF9B7
:10408000003818BF012008BDCC0A002030B589B027
:1040900000220F490F4810F09EFC0F4D0022002314
:1040A000CDE90623002404940E2303930294019483
:1040B00000940A4B4FF44072094928460AF0C4F8AC
:1040C0000849284609F082FF204609B030BD00BFEC
:1040D00069400000E803002020040020514900004E
:1040E00080160020F85B0100F8B504460F46202931
:1040F00003D80020064605460DE0134D87222946C9
:1041000012480CF091FF872128460DF0AFF8F0E738
:1041100085F001051C46234613F8012B9AB1BE42D7
:1041200011D2252AF4D0002DF4D00949515C11F0A8
:10413000030FEFD0732A02D001360025EAE70122EF
:10414000B2401043F8E7F8BD005C0100845901005B
:1041500071730100F8B51F4B1F4A9B1A1E119F2B4C
:104160000ED81E4BBFF35B8F53E8002F511C43E862
:1041700000100028F8D1BFF35B8F52BB002416E07B
:10418000174C40F24A22214616480CF04DFF40F2EF
:104190004A2120460DF06AF8E3E70F4B03EB0713C3
:1041A0005B6804221968284600F030FC0134B442F0
:1041B0000FDA2746084D05EB04152B7B002BF5D0B5
:1041C0002301054AD3589B69002BE6D0284698471F
:1041D000E3E7F8BDE4570100D4570100C80A002006
:1041E000005C01008459010038B108B5044A106030
:1041F000084600F013FF002008BD6FF0150070475F
:104200004800002008B500230A4A13700A4A1360C8
:104210004FF400410948FFF7E7FF00F039FC084878
:104220000DF02CF8042328220649074810F027FB3C
:1042300008BD00BF57160020C40A0020B1120100BB
:10424000CC0A002040330020D40A002010B54FF0E3
:104250002003EFF3118483F31288BFF36F8F0448B8
:104260000DF01CF884F31188BFF36F8F10BD00BFF1
:10427000CC0A002008B5054B1B781BB1034B01226B
:104280001A7008BD02480AF05DFAF7E756160020DA
:10429000D80300200C4BBFF35B8F53E8002F013293
:1042A00043E800210029F8D1BFF35B8F074BBFF330
:1042B0005B8F53E8002F013A43E800210029F8D131
:1042C000BFF35B8F704700BFC40A0020C00A002004
:1042D000064B00200246BFF35B8F53E8000F43E814
:1042E00000210029F9D1BFF35B8F7047C40A002079
:1042F0002DE9F843FFF7ECFF074600241AE0DFF84A
:104300007C9040F21D12494619480CF08DFE40F297
:104310001D1148460CF0AAFF18E0DFF86090B422A7
:10432000494613480CF080FEB42148460CF09EFF2D
:1043300012E001340F4B104A9B1AB4EB231F14DA1E
:104340004FEA04180C4D15EB0416D8D073685B794E
:10435000002BEED0002EE0D058F805301B69002B62
:10436000E7D0394630469847E3E7BDE8F88300BF19
:1043700084590100E4570100D4570100305C01006A
:10438000034B18680028D4BF00200120704700BFED
:10439000C40A002070B582B00446FFF741FE10BB8E
:1043A0000022002301A9114809F058FD08B1104C62
:1043B00019E0019B0122BFF35B8F53E8001F43E824
:1043C00000200028F9D1BFF35B8F019D2E1D1F2215
:1043D0002146304610F07DFC7E2385F823300023F3
:1043E00085F824303446204602B070BDD40A00203F
:1043F000645C010038B1074A904206D3A032904273
:1044000005D300207047002070470020704701202E
:10441000704700BF40330020F8B5037A13F0010F56
:1044200000D0F8BD07460DF004F8044638460CF0FD
:10443000EBFF01462046FFF757FE054604E0012347
:1044400003FA04F425EA0405002DEAD0B5FA85F450
:10445000C4F11F04214638460CF0D9FF0646FFF789
:10446000DFFD0028EBD13046FFF7C4FF0028E6D17E
:10447000094B9E42E3D07989C1F3891100F0B6FA65
:10448000064ED822314606480CF0CEFDD8213046E3
:104490000CF0ECFED3E700BF645C0100005C01009F
:1044A000845901002DE9F843074600294ED12A4BD3
:1044B0001B780BB1002423E0FFF7AEFFFAE7DFF82B
:1044C000A89040F21D12494624480CF0ADFD40F280
:1044D0001D1148460CF0CAFE1EE0DFF88C906B22DE
:1044E00049461E480CF0A0FD6B2148460CF0BEFE6C
:1044F0001EE058F805305B6839463046984701346D
:10450000174B184A9B1AB4EB231F1FDA4FEA041803
:10451000144D15EB0416D2D073685B79002BEED0E6
:10452000394630460CF0C2FE0028E8D0002ED4D028
:10453000002FDED1DFF830906C22494607480CF09E
:1045400073FD6C2148460CF091FED2E738460CF022
:1045500072FFBDE8F88300BF5716002084590100A0
:10456000E4570100D4570100305C010010B5044647
:10457000114B1B7803B9D0B1FFF768FE034680B139
:104580005CB90E4ABFF35B8F52E8001F013942E865
:1045900000100028F8D1BFF35B8F21461846FFF7C3
:1045A00081FF14B9FFF7ECFE10B9FFF765FD10BDF0
:1045B000FFF79EFEF9E700BF56160020C00A002054
:1045C00010B582B01D4BBFF35B8F53E8002F511C19
:1045D00043E800100028F8D1BFF35B8F184B1B781D
:1045E0003BB9184B1B6803B19AB10A2A1CD002B020
:1045F00010BD4FF02003EFF3118483F31288BFF353
:104600006F8F0020FFF7B2FF84F31188BFF36F8F25
:10461000EDE700220023CDE900234FF40042002300
:1046200009480BF029FEE2E7002BE0D0064810F025
:10463000DEF906480AF086F8D9E700BFC00A002074
:1046400057160020F40A0020E8030020D8030020B9
:1046500030B5A3B002460B460025812101A8FEF724
:104660008BF90246812828BF812201A928460CF037
:1046700026FFB8B1044645810B4B1B689847E060A4
:104680004FF02003EFF3118583F31288BFF36F8F90
:10469000214606480CF0F6FD85F31188BFF36F8FB5
:1046A000FFF78EFF23B030BD48000020CC0A002069
:1046B000F8B506460D46174600F00EFA044640B11E
:1046C00001234360002101814FF0000361F30003E7
:1046D000037234B12661637A012262F307136372B5
:1046E0006561B4B167810B4B1B689847E0604FF080
:1046F0002003EFF3118583F31288BFF36F8F2146F8
:1047000005480CF0BFFD85F31188BFF36F8FFFF7ED
:1047100057FFF8BD48000020CC0A00202DE9F041E9
:1047200007460E461546984600F0D6F9044640B1B5
:1047300001234360002202814FF0000362F3000373
:1047400003723CB12761637A022262F3071363723A
:104750006661A561BCB1A4F80A800C4B1B68984740
:10476000E0604FF02003EFF3118583F31288BFF36D
:104770006F8F214606480CF085FD85F31188BFF345
:104780006F8FFFF71DFFBDE8F08100BF48000020DC
:10479000CC0A002038B51C4600F0FAF9B8B105463D
:1047A00044810B4B1B689847E8604FF02003EFF300
:1047B000118483F31288BFF36F8F294605480CF0EC
:1047C00061FD84F31188BFF36F8FFFF7F9FE38BDE9
:1047D00048000020CC0A00202DE9F04180460F4619
:1047E00016461D4600F078F9044640B101234360A7
:1047F000002202814FF0000362F3000303724CB108
:10480000C4F81080637A032262F30713637267614E
:10481000A661E561C4B1BDF8183063810B4B1B681C
:104820009847E0604FF02003EFF3118583F312887F
:10483000BFF36F8F214606480CF024FD85F31188E5
:10484000BFF36F8FFFF7BCFEBDE8F081480000208A
:10485000CC0A002070B505460E4600F03DF904462E
:1048600040B101234360002202814FF0000362F354
:104870000003037204B12561B4B166810B4B1B6860
:104880009847E0604FF02003EFF3118583F312881F
:10489000BFF36F8F214606480CF0F4FC85F31188B6
:1048A000BFF36F8FFFF78CFE70BD00BF4800002084
:1048B000CC0A0020214B1B7803B170472DE9F04151
:1048C000FFF748FC002412E0DFF8808040F21D1260
:1048D00041461B480CF0A8FB40F21D1140460CF06D
:1048E000C5FC0FE07B595B69304698470134154B96
:1048F000154A9B1AB4EB231F16DA2701124D15EB4C
:104900000416E1D073685B79002BEFD0002EE9D15B
:10491000DFF83880C222414609480CF085FBC221ED
:1049200040460CF0A3FCDDE70020FFF71FFE002847
:10493000FAD1024B01221A70BDE8F081571600200F
:1049400084590100E4570100D4570100305C010094
:1049500010B5134B134A9B1A002B06DDFFF7FAFB29
:104960000BF04AF8FFF76CFB13E00F4C40F2F142FA
:1049700021460E480CF058FB40F2F14120460CF065
:1049800075FCEBE74FF0FF324FF0FF33084809F0BA
:1049900013FF0020FFF7EAFD0028FAD1F2E700BF7D
:1049A000E4570100D4570100005C01008459010064
:1049B000D803002000B583B004380190BFF35B8FAB
:1049C00050E8003F5A1E40E800210029F8D1BFF30B
:1049D0005B8F012B02D003B05DF804FB01A90248F4
:1049E00009F09EFAF7E700BFD40A0020054B064AFB
:1049F0009B1AB1EBD30F02D252F83100704700205E
:104A0000704700BFD457010074570100F8B5054640
:104A10000E46144C041B24110134E4B250B16B68EF
:104A20001C7195B16B681E606B6801225A71FFF7AB
:104A300021FCF8BD0C4FD12239460C480CF0F4FA99
:104A4000D12138460CF012FCE9E7074C4FF4817293
:104A5000214606480CF0E8FA4FF4817120460CF02C
:104A600005FCDFE7D4570100305C010084590100E8
:104A700010B582B00190019B33B11C6801A90348B5
:104A800009F04EFA0194F6E702B010BDF80A0020D2
:104A900008B520231A46024902480FF0F0FE08BD6F
:104AA000E0330020F80A002010B582B00023019303
:104AB0000120FFF75BFD0446FFF7ECFB002200231B
:104AC00001A9044809F0CAF908B1002CF0D10198F5
:104AD00002B010BDF80A002000B583B00023019396
:104AE0000CF0ECFB50B10022002301A9074809F0AB
:104AF000B5F930B9019803B05DF804FB002200233A
:104B0000F3E7FFF7D1FF0190F4E700BFF80A0020B8
:104B1000F0B583B0019004460CF076FC237A13F0D4
:104B2000010F01D1064650BB019B1A7A12F0020F09
:104B300028D101A9154809F0F3F903B0F0BD019897
:104B40000CF077FC3146FFF7CFFA074688B9EBE760
:104B50002846FFF72FFF0134B442E5D221460198E1
:104B60000CF055FC0546FFF745FC0028F3D0002F5C
:104B7000E5D027FA04F313F0010FECD0E8E70027A3
:104B80003C46E9E75869FFF773FFD2E7F80A0020CF
:104B9000F8B507460E4614460E2A0FD820460CF0EC
:104BA0005DFC054640B10761437A64F30713437225
:104BB000224631460CF096FB2846F8BD064D40F2E1
:104BC0003B12294605480CF02FFA40F23B112846CB
:104BD0000CF04CFBE2E700BFB45C0100845901001B
:104BE0000EB400B582B0014603AB53F8042B019319
:104BF0000348FEF76DFC02B05DF804EB03B07047AC
:104C0000E14E0000F0B585B011F0440F05D01A4B0D
:104C10001C6834B9002005B0F0BD1849FFF7E0FF6B
:104C2000F9E7174B1968B2FBF1F1B1FBF4F5154A3E
:104C3000A2FB0532D20A4FF4616606FB1256124BF4
:104C4000A3FB06735B0904FB15114FF47A7505FB92
:104C500001F1B1FBF4F707FB141105FB01F1B1FB06
:104C6000F4F402940197C3EB0311A6EB81010091C8
:104C70000649FFF7B5FFCEE7180B0020E05C010006
:104C80001C0B0020C5B3A29189888888EC5C0100C8
:104C900061B108B52AB1064A52F8232012B9054A73
:104CA00000E0044A0449FFF79BFF08BD704700BFBE
:104CB000945D0100085D0100105D010011F0100F0E
:104CC0000BD108B511F0200F03D00449FFF788FF7E
:104CD00008BD0349FFF784FFFAE770473C5B01001A
:104CE000145D01002DE9F04105460F461646984631
:104CF0000699FFF7E3FF0024444505DA24492846D6
:104D0000FFF76EFF0134F7E7002409E02049284649
:104D1000FFF766FF0BE01F492846FFF761FF0134EC
:104D20000F2C0CDC002C02DD14F0070FEED0B44287
:104D3000F1D23A5D18492846FFF752FFEFE71749CD
:104D40002846FFF74DFF002409E011492846FFF7E8
:104D500047FF0BE012492846FFF742FF01340F2CB2
:104D600013DC002C02DD14F0070FEED0B44207D2A2
:104D70003A5D0C4BD35C13F0970FEBD12E22E9E791
:104D800003492846FFF72CFFE8E7BDE8F08100BFA4
:104D9000385D01009C6A0100185D0100205D010082
:104DA000245D0100717301002DE9F0418046164633
:104DB0001D46BDF9187059B90024002F1CDB86B1BF
:104DC0000123079A934013F0100F18D10D4E09E0FC
:104DD0000D4B079A53F822200C49FFF701FF0446B8
:104DE000EBE7084E39462846FFF700FE02463146FB
:104DF0004046FFF7F5FE04442046BDE8F081044E2E
:104E0000F0E700BF285D0100D05D0100345D0100C6
:104E1000305D01002DE9F04F85B005460C46164681
:104E200003939DF8388001F0020B01F0010AC1F3F1
:104E3000C0090CF041FAE8B1024613492846FFF7D1
:104E4000CFFE0746BBF1000F16D142465146284619
:104E50000CF09EFBCDF80480BDF9403000939DF826
:104E60003C30324649462846FFF79EFF384405B09D
:104E7000BDE8F08F0027E5E7039A21462846FFF7B3
:104E8000C1FE0744E1E700BF3C5D01002DE9F043AE
:104E900089B007460E46914698460CF0CAFA02467B
:104EA0000E493046FFF79CFE00241025039523464B
:104EB00003AA0DEB050138460CF055FB039A52B1DD
:104EC000CDF800804B460DEB05013046FFF70AFF99
:104ED000039D2C44E9E709B0BDE8F083105D0100B3
:104EE00038B505460C464B681A68CB689A4214D010
:104EF0006368BFF35B8F53E8002F511C43E8001039
:104F00000028F8D1BFF35B8FA3689D5463681A68CB
:104F1000E3689A4205D8002038BD08460CF0ABFC87
:104F2000E6E7054C7422214604480CF07DF8742114
:104F300020460CF09BF9EEE7405D0100845901002A
:104F4000F0B583B006460C46CB6813B100273D464A
:104F50001AE0194D4FF4E872294618480CF064F82D
:104F60004FF4E87128460CF081F9EFE7A26813448A
:104F700013F8017C0A2F14BF0027012720460CF0EC
:104F80007AFC019B1D4473B1E36801932B4601AA8F
:104F9000A16830460CF0E7FA6368019A1A60019B39
:104FA000002BEBD0E2E70FB903B0F0BD0449204677
:104FB000FFF716FEF8E700BF405D010084590100CD
:104FC000705D010070B582B00446056842F20F734F
:104FD0008B4228BF0B460E4A052168460CF032F87A
:104FE000064663685B680B220A4928460CF0C3FA40
:104FF00063685B683246694628460CF0BCFA636811
:105000005B681B22044928460CF0B5FA02B070BD5B
:105010004C5A0100C45D0100A85D0100074B01224C
:105020001A60074B984205D94008044A13685B0090
:105030001360F6E7034B1860704700BF1C0B00209D
:1050400040420F00180B0020014B01221A707047DC
:105050005816002008B518B9084B00221A7008BD70
:10506000074B1B7823B141F288300FF0AEFCF6E716
:10507000A42000210AF07CFCF1E700BF58160020B4
:105080005916002038B504460A4B01221A700A4B03
:105090001B7803B938BD002008F09EFC0028F9D029
:1050A000044B1B78002BF5D0651E2046FFF7D2FF7E
:1050B0002C46F0E758160020591600202DE9F04143
:1050C00006460D4604270DE02A463146002008F02A
:1050D000E9FB04461CE03846FFF7D4FF1CBB164B27
:1050E0001B7803B3154B1B78002BEDD1DFF85080F4
:1050F0004FF0FF324FF0FF33404609F083F92A4664
:105100003146002008F0CEFB0446404609F070FA14
:10511000002CE0D1084B1B78002BDFD0013F384634
:10512000FFF798FFDAE714B9034B1B7803B92C4655
:105130002046BDE8F08100BF581600205916002017
:10514000C403002008B5034B01221A7002480CF07A
:1051500092FB08BD59160020105E010008B50248F8
:10516000FFF730FF08BD00BF105E010010B50C4610
:1051700008460CF03CF90F22214603480CF088FB4E
:1051800020460CF058F910BD105E010008B5044827
:105190000FF0C9FB034B1B605B60002008BD00BF24
:1051A0004C0B0020440B002070B50646FCF7D4F8E9
:1051B00005464FF0FF324FF0FF33114809F022F956
:1051C000104B1C689C4206D1002404E00D4B5B6828
:1051D0009C420ED024686CB1A068FCF7BDF8A842D0
:1051E000F4D12A46A16830460FF061FD0028EDD1C8
:1051F00000E00024024809F0FBF9204670BD00BF22
:105200004C0B0020440B002010B504464FF0FF3239
:105210004FF0FF331D4809F0F5F884B1A06870B174
:10522000FFF7C2FFF0B91A4B5A682360626014603E
:105230005C600024154809F0DBF9204610BD154BD1
:10524000154A9B1ADB084FF00001012262F30201AC
:105250006FF3C50163F38F111048FFF7FBFA6FF08E
:105260001504E7E70B4B0C4A9B1ADB084FF00001D3
:10527000012262F302016FF3C50163F38F11084845
:10528000FFF7E8FA6FF01504D4E700BF4C0B0020DD
:10529000440B00208457010074570100205E010078
:1052A0003C5E010070B584B03D4B1C7D04F01F03D3
:1052B00001229A4061093B4B03EB8103D043BFF3CA
:1052C0005B8F53E8001F01EA000543E80056002EFB
:1052D000F7D1BFF35B8F0A4255D004EB4403324A47
:1052E00002EB830393E8070004AB03E907002F4BAD
:1052F0009BB10CF015FC4FF02003EFF3118683F304
:105300001288BFF36F8F2A4808F084FE58B12848EE
:1053100008F0A0FE274B1D6815E0002383F31188D9
:10532000BFF36F8FE7E7244D8122294623480BF016
:105330007BFE812128460BF099FFE8E72B460DB153
:105340002B686BB11D465DB1AA68002AF6D0144BDC
:105350001B7D03EB4303144911F823009047EDE74D
:105360003546134808F066FE78B185F31188BFF31F
:105370006F8F0D4A04EB4404A10002EB8404002368
:1053800053506360A36004B070BD0B4EAC22314635
:105390000A480BF049FEAC2130460BF067FFE4E70A
:1053A000F81500206C0B0020700B0020211B010061
:1053B000600B0020640B0020C85B010084590100D1
:1053C000F0B589B00546664B1C7D04F01F03012231
:1053D0009A406109634B03EB8103BFF35B8F53E892
:1053E000001F41EA020043E80006002EF7D1BFF398
:1053F0005B8F0A421ED004EB44035B4A12F8233051
:10540000002B00F0AB80B5F1FF3F23D109F06EFB1C
:105410004FF02003EFF3118683F31288BFF36F8FF1
:10542000524808F0F7FD58B3504808F013FE504BAF
:105430001D6835E004EB44064B4B03EB86066F46D4
:105440002A46214638460CF0DBFA97E8070086E842
:105450000700D0E704EB440302EB83039B68590C7D
:10546000D803444E444A002380194FF0000646EB0F
:105470000101FBF7AFFD0121281A0AF00FFDC5E776
:105480003E4D812229463E480BF0CEFD8121284623
:105490000BF0ECFEC8E72B460DB12B686BB11D4637
:1054A0005DB16A68002AF6D02D4B1B7D03EB4303E8
:1054B0002D4911F823009047EDE735462B4808F0B9
:1054C000B9FD00283FD085F31188BFF36F8F04F03A
:1054D0001F030121994063092A4A02EB8303BFF3AA
:1054E0005B8F53E8002F0A4343E800200028F8D1DF
:1054F000BFF35B8F04EB44031B4A02EB830393E887
:10550000070008AB03E907001F4B0BB10CF0F5FADD
:10551000FFF7C8FE09F08EFF012004F01F020123EF
:10552000934064090F4A02EB8404DB43BFF35B8FB3
:1055300054E8002F1A4044E800210029F8D1BFF3B5
:105540005B8F09B0F0BD0D4EAC2231460C480BF01C
:105550006BFDAC2130460BF089FEB4E70020DCE7A0
:10556000F81500207C0B0020700B0020600B002041
:10557000640B00203F420F0040420F00C85B010057
:10558000845901006C0B0020FB1A01000149102214
:105590000A60704710ED00E072B6404080F3118859
:1055A000BFF36F8FBFF34F8F30BF62B6BFF36F8F04
:1055B000704700BF72B6494081F3118820BF80F365
:1055C000118862B6704700BF70B582B004461F4DA7
:1055D0001F4BED1AED0801264FF0000366F302039E
:1055E0006FF3C50365F38F13ADF80030836842682D
:1055F00001681848FFF7F0F84FF0000366F3020364
:105600006FF3C50365F38F13ADF80030636922694A
:10561000E1681148FFF7E0F84FF0000266F302027C
:105620006FF3C50265F38F12E1690C48FFF740F88C
:105630004FF0000266F302026FF3C50265F38F12AA
:10564000A1690748FFF734F802B070BDAC570100FC
:10565000745701006C5E01009C5E0100CC5E01008D
:10566000DC5E010043B2002B08DB00F01F005B0989
:10567000012202FA00F0024A42F82300704700BFFC
:1056800000E100E043B2002B0DDB00F01F005B09DE
:10569000012202FA00F02033034A42F82300BFF34C
:1056A0004F8FBFF36F8F704700E100E04209054B59
:1056B00053F8222000F01F00012303FA00F01040ED
:1056C000704700BF00E100E070B505464C1C072C98
:1056D0000BD86BB2002B13DB6401E4B203F160431F
:1056E00003F5614383F8004370BD094E59223146EA
:1056F00008480BF099FC592130460BF0B7FDE8E75C
:1057000005F00F056401E4B2034B5C55ECE700BF04
:105710000C5F01008459010014ED00E008B572B679
:10572000054B9B690BB962B608BD034B00229A6119
:105730000FF0DDF8F7E700BFF815002030BFFFF7E6
:10574000FDBF00BF08B50B4B0B4A22F07F029A60E9
:10575000BFF34F8FBFF36F8FD3F8882022F470020E
:10576000C3F8882008F004FB0AF0CAF900F006FD2F
:1057700008F00AFB00ED00E0000000000A4A936810
:10578000C3F8A80009490968C3F8AC1008494B6878
:1057900043F080534B60002383F31188BFF36F8F76
:1057A0009368D3F8AC007047F8150020F87001003A
:1057B00000ED00E013498A684FF030001044EFF329
:1057C000098C80E8F01F202080F31288BFF36F8FD0
:1057D0000D4F4FF00066CA698A603E60D2F8A8009B
:1057E0000023C2F8A83080F3118804B5104600F0F9
:1057F00067FDBDE8044002F1300090E8F01F8CF333
:1058000009887047F815002004ED00E01EF0040F31
:105810000CBFEFF30880EFF30980816911F8021CD7
:105820000229FFD001B50CF0FCF801BD10B4A2F1C3
:1058300020040D4921F0010142F8081C42F8203CE7
:10584000019B42F81C3C029B42F8183C039B42F827
:10585000143C4FF0807342F8043C04650023C0F808
:10586000A83010BC704700BF99110100164B9A6810
:10587000DAB110F1160F1AD010B4D2F89830A3F1A3
:105880002004844205D8834208D98B4208D80021DD
:1058900000E0002131B9002010BC70470021F9E779
:1058A0000121F7E7D2F89800F6E700207047D2F818
:1058B00098308B4294BF0021012109B90020704724
:1058C000D2F89800704700BFF815002008B50D46C3
:1058D0001446084B986000F0F3FC204685F30988D5
:1058E000002163B681F31188BFF36F8F002200237C
:1058F0000BF052FCF815002001B572B60B4A906906
:1059000000281EBF002191610EF0F1FF62B6EFF397
:105910000580A0F110004FEAC0000549014409C903
:105920009847BDE80140034908470000F8150020EA
:105930003C56010039590000044B9968D8698842E7
:1059400003D003494FF080520A607047F8150020D9
:1059500004ED00E008B54E4B4E4A9B1ADB084FF0B1
:105960000001012262F302016FF3C50163F38F119D
:105970004948FEF76FFF494B9B6A13F0007F21D126
:10598000464B9B6A13F0807F2DD1444B9B6A13F4E6
:10599000002F39D1414B9B6A13F4802F45D13F4BE7
:1059A0009B6A13F4003F51D13C4B9B6A13F4803F38
:1059B0005DD13A4A936A6FEA03436FEA13439362F5
:1059C000002008BD324B334A9B1ADB084FF0000120
:1059D000012262F302016FF3C50163F38F113048B6
:1059E000FEF738FFCCE72A4B2A4A9B1ADB084FF018
:1059F0000001012262F302016FF3C50163F38F110D
:105A00002848FEF727FFC0E7214B224A9B1ADB08F4
:105A10004FF00001012262F302016FF3C50163F34D
:105A20008F112148FEF716FFB4E7194B194A9B1A4C
:105A3000DB084FF00001012262F302016FF3C501A0
:105A400063F38F111948FEF705FFA8E7104B114AC1
:105A50009B1ADB084FF00001012262F302016FF391
:105A6000C50163F38F111248FEF7F4FE9CE7084B63
:105A7000084A9B1ADB084FF00001012262F3020181
:105A80006FF3C50163F38F110A48FEF7E3FE90E759
:105A9000AC57010074570100445F010000ED00E0C5
:105AA0005C5F0100705F01008C5F0100AC5F010072
:105AB000D45F0100F05F010008B500220A70084BB6
:105AC00008495B1ADB084FF00001012060F3020176
:105AD00062F3C50163F38F110348FEF7BBFE08BDF7
