:1000000040290020A160000049FC0000756000004C
:100010007560000075600000756000000000000061
:10002000000000000000000000000000655A000011
:100030007560000000000000115A000075600000AB
:100040001D5B0000298A00001D5B00001D5B000095
:100050001D5B00001D5B00001D5B00001D5B0000C0
:100060001D5B00001D5B0000570101001D5B0000CF
:100070001D5B00001D5B00001D5B00001D5B0000A0
:100080001D5B00001D5B00001D5B00001D5B000090
:10009000998A00001D5B00001D5B00001D5B0000D5
:1000A0001D5B00001D5B00001D5B00001D5B000070
:1000B0001D5B00001D5B00001D5B00001D5B000060
:1000C0001D5B00001D5B00001D5B00001D5B000050
:0C00D0001D5B00001D5B00001D5B0000BC
:0400DC00FFFFFFFF24
:1000E00001F0FF01102A2BDB10F0070F08D010F8E9
:1000F000013B013A8B422DD010F0070F42B3F6D1ED
:10010000F0B441EA012141EA014122F007047FF005
:1001100000070023F0E80256083C85EA010586EA5C
:10012000010685FA47F5A3FA87F586FA47F6A5FA98
:1001300087F68EB9EED1F0BC01F0FF0102F00702A4
:1001400032B110F8013B013A83EA010313B1F8D14F
:100150000020704701387047002D06BF3546033830
:10016000073815F0010F07D1013015F4807F02BF69
:10017000013015F4C03F0130F0BC0138704700BFBA
:1001800081F0004102E000BF83F0004330B54FEA48
:1001900041044FEA430594EA050F08BF90EA020FB5
:1001A0001FBF54EA000C55EA020C7FEA645C7FEA48
:1001B000655C00F0E2804FEA5454D4EB5555B8BF6B
:1001C0006D420CDD2C4480EA020281EA030382EADC
:1001D000000083EA010180EA020281EA0303362D6E
:1001E00088BF30BD11F0004F4FEA01314FF4801C41
:1001F0004CEA113102D0404261EB410113F0004F53
:100200004FEA03334CEA133302D0524263EB430309
:1002100094EA050F00F0A780A4F10104D5F1200EA7
:100220000DDB02FA0EFC22FA05F2801841F1000102
:1002300003FA0EF2801843FA05F359410EE0A5F1D6
:1002400020050EF1200E012A03FA0EFC28BF4CF007
:10025000020C43FA05F3C01851EBE37101F00045BD
:1002600007D54FF0000EDCF1000C7EEB00006EEBCA
:100270000101B1F5801F1BD3B1F5001F0CD3490854
:100280005FEA30004FEA3C0C04F101044FEA4452AB
:1002900012F5800F80F09A80BCF1004F08BF5FEA32
:1002A000500C50F1000041EB045141EA050130BD12
:1002B0005FEA4C0C404141EB0101013C28BFB1F524
:1002C000801FE9D291F0000F04BF01460020B1FA6F
:1002D00081F308BF2033A3F10B03B3F120020CDA42
:1002E0000C3208DD02F1140CC2F10C0201FA0CF020
:1002F00021FA02F10CE002F11402D8BFC2F1200C85
:1003000001FA02F120FA0CFCDCBF41EA0C0190403A
:10031000E41AA2BF01EB0451294330BD6FEA040483
:100320001F3C1CDA0C340EDC04F11404C4F120026E
:1003300020FA04F001FA02F340EA030021FA04F380
:1003400045EA030130BDC4F10C04C4F1200220FAD7
:1003500002F001FA04F340EA0300294630BD21FA15
:1003600004F0294630BD94F0000F83F4801306BFDB
:1003700081F480110134013D4EE77FEA645C18BFCF
:100380007FEA655C29D094EA050F08BF90EA020F66
:1003900005D054EA000C04BF1946104630BD91EA5E
:1003A000030F1EBF0021002030BD5FEA545C05D161
:1003B0004000494128BF41F0004130BD14F58004A0
:1003C0003CBF01F5801130BD01F0004545F0FE4114
:1003D00041F470014FF0000030BD7FEA645C1ABF49
:1003E000194610467FEA655C1CBF0B46024650EA80
:1003F000013406BF52EA033591EA030F41F40021AC
:1004000030BD00BF90F0000F04BF0021704730B531
:100410004FF4806404F132044FF000054FF0000106
:1004200050E700BF90F0000F04BF0021704730B5C7
:100430004FF4806404F1320410F0004548BF40429C
:100440004FF000013EE700BF42004FEAE2014FEAF1
:1004500031014FEA02701FBF12F07F4393F07F4FCC
:1004600081F06051704732F07F4208BF704793F0CF
:100470007F4F04BF41F40021704730B54FF46074E2
:1004800001F0004521F000411CE700BF50EA0102E5
:1004900008BF704730B54FF000050AE050EA01028E
:1004A00008BF704730B511F0004502D5404261EBFE
:1004B00041014FF4806404F132045FEA915C3FF43F
:1004C000D8AE4FF003025FEADC0C18BF03325FEADC
:1004D000DC0C18BF033202EBDC02C2F1200300FA8D
:1004E00003FC20FA02F001FA03FE40EA0E0021FAB2
:1004F00002F11444BDE600BF70B54FF0FF0C4CF4A0
:10050000E06C1CEA11541DBF1CEA135594EA0C0F51
:1005100095EA0C0F00F0DEF82C4481EA030621EA8C
:100520004C5123EA4C5350EA013518BF52EA0335C7
:1005300041F4801143F4801338D0A0FB02CE4FF079
:100540000005E1FB02E506F00042E0FB03E54FF0A9
:100550000006E1FB03569CF0000F18BF4EF0010EA1
:10056000A4F1FF04B6F5007F64F5407404D25FEA9D
:100570004E0E6D4146EB060642EAC62141EA555150
:100580004FEAC52040EA5E504FEACE2EB4F1FD0C92
:1005900088BFBCF5E06F1ED8BEF1004F08BF5FEA10
:1005A000500E50F1000041EB045170BD06F00046C2
:1005B00046EA010140EA020081EA0301B4EB5C046F
:1005C000C2BFD4EB0C0541EA045170BD41F4801167
:1005D0004FF0000E013C00F3AB8014F1360FDEBF8C
:1005E000002001F0004170BDC4F10004203C35DA68
:1005F0000C341BDC04F11404C4F1200500FA05F3EB
:1006000020FA04F001FA05F240EA020001F000428B
:1006100021F0004110EBD37021FA04F642EB060101
:100620005EEA430E08BF20EAD37070BDC4F10C042B
:10063000C4F1200500FA04F320FA05F001FA04F2EF
:1006400040EA020001F0004110EBD37041F10001DB
:100650005EEA430E08BF20EAD37070BDC4F12005E6
:1006600000FA05F24EEA020E20FA04F301FA05F24E
:1006700043EA020321FA04F001F0004121FA04F2F6
:1006800020EA020000EBD3705EEA430E08BF20EAC6
:10069000D37070BD94F0000F0FD101F00046400000
:1006A00041EB010111F4801F08BF013CF7D041EA82
:1006B000060195F0000F18BF704703F00046520086
:1006C00043EB030313F4801F08BF013DF7D043EA57
:1006D0000603704794EA0C0F0CEA135518BF95EA0D
:1006E0000C0F0CD050EA410618BF52EA4306D1D194
:1006F00081EA030101F000414FF0000070BD50EAB3
:10070000410606BF1046194652EA430619D094EA3C
:100710000C0F02D150EA013613D195EA0C0F05D126
:1007200052EA03361CBF104619460AD181EA03017A
:1007300001F0004141F0FE4141F470014FF0000032
:1007400070BD41F0FE4141F4780170BD70B54FF0CD
:10075000FF0C4CF4E06C1CEA11541DBF1CEA13554D
:1007600094EA0C0F95EA0C0F00F0A7F8A4EB05042F
:1007700081EA030E52EA03354FEA013100F0888026
:100780004FEA03334FF0805545EA131343EA1263EF
:100790004FEA022245EA111545EA10654FEA0026A4
:1007A0000EF000419D4208BF964244F1FD0404F55D
:1007B000407402D25B084FEA3202B61A65EB0305B9
:1007C0005B084FEA32024FF480104FF4002CB6EB76
:1007D000020E75EB030E22BFB61A754640EA0C00F6
:1007E0005B084FEA3202B6EB020E75EB030E22BF36
:1007F000B61A754640EA5C005B084FEA3202B6EB77
:10080000020E75EB030E22BFB61A754640EA9C0035
:100810005B084FEA3202B6EB020E75EB030E22BF05
:10082000B61A754640EADC0055EA060E18D04FEAC3
:10083000051545EA16754FEA06164FEAC30343EA63
:1008400052734FEAC2025FEA1C1CC0D111F4801F30
:100850000BD141EA00014FF000004FF0004CB6E729
:1008600011F4801F04BF01430020B4F1FD0C88BFC8
:10087000BCF5E06F3FF6AFAEB5EB030C04BFB6EBD3
:10088000020C5FEA500C50F1000041EB045170BDC6
:100890000EF0004E4EEA113114EB5C04C2BFD4EBF3
:1008A0000C0541EA045170BD41F480114FF0000E77
:1008B000013C90E645EA060E8DE60CEA135594EAF3
:1008C0000C0F08BF95EA0C0F3FF43BAF94EA0C0FF6
:1008D0000AD150EA01347FF434AF95EA0C0F7FF46B
:1008E00025AF104619462CE795EA0C0F06D152EABF
:1008F00003353FF4FDAE1046194622E750EA4106A3
:1009000018BF52EA43067FF4C5AE50EA41047FF4B3
:100910000DAF52EA43057FF4EBAE12E74FF0FF3C18
:1009200006E000BF4FF0010C02E000BF4FF0010CE9
:100930004DF804CD4FEA410C7FEA6C5C4FEA430C62
:1009400018BF7FEA6C5C1BD001B050EA410C0CBFB1
:1009500052EA430C91EA030F02BF90EA020F002013
:10096000704710F1000F91EA030F58BF994208BF7A
:1009700090422CBFD8176FEAE37040F00100704737
:100980004FEA410C7FEA6C5C02D150EA013C07D18E
:100990004FEA430C7FEA6C5CD6D152EA033CD3D0D9
:1009A0005DF8040B704700BF8446104662468C46D3
:1009B0001946634600E000BF01B5FFF7B7FF002806
:1009C00048BF10F1000F01BD4DF808EDFFF7F4FF2F
:1009D0000CBF012000205DF808FB00BF4DF808EDBA
:1009E000FFF7EAFF34BF012000205DF808FB00BFDD
:1009F0004DF808EDFFF7E0FF94BF012000205DF8FF
:100A000008FB00BF4DF808EDFFF7CEFF94BF0120B3
:100A100000205DF808FB00BF4DF808EDFFF7C4FFAC
:100A200034BF012000205DF808FB00BF4FEA4102FF
:100A3000B2F1E04324BFB3F5001CDCF1FE5C0DD93C
:100A400001F0004C4FEAC0024CEA5070B2F1004F86
:100A500040EB830008BF20F00100704711F0804F89
:100A600021D113F13872BCBF01F00040704741F44E
:100A700080114FEA5252C2F11802C2F1200C10FA52
:100A80000CF320FA02F018BF40F001004FEAC12336
:100A90004FEAD32303FA0CFC40EA0C0023FA02F3DA
:100AA0004FEA4303CCE77FEA625307D150EA0133B0
:100AB0001EBF4FF0FE4040F44000704701F0004080
:100AC00040F0FE4040F40000704700BF80F000405E
:100AD00002E000BF81F0004142001FBF5FEA410316
:100AE00092EA030F7FEA226C7FEA236C6AD04FEA16
:100AF0001262D2EB1363C1BFD2184140484041405B
:100B0000B8BF5B42192B88BF704710F0004F40F40C
:100B1000000020F07F4018BF404211F0004F41F428
:100B2000000121F07F4118BF494292EA030F3FD0F4
:100B3000A2F1010241FA03FC10EB0C00C3F1200307
:100B400001FA03F100F0004302D5494260EB400096
:100B5000B0F5000F13D3B0F1807F06D340084FEA01
:100B6000310102F10102FE2A51D2B1F1004F40EBF6
:100B7000C25008BF20F0010040EA0300704749005E
:100B800040EB0000013A28BFB0F5000FEDD2B0FAFB
:100B900080FCACF1080CB2EB0C0200FA0CF0AABF1E
:100BA00000EBC25052421843BCBFD04018437047BC
:100BB00092F0000F81F4000106BF80F400000132C2
:100BC000013BB5E74FEA41037FEA226C18BF7FEA99
:100BD000236C21D092EA030F04D092F0000F08BFDB
:100BE0000846704790EA010F1CBF0020704712F0C2
:100BF0007F4F04D1400028BF40F00040704712F101
:100C000000723CBF00F50000704700F0004343F065
:100C1000FE4040F4000070477FEA226216BF08469B
:100C20007FEA23630146420206BF5FEA412390EA5E
:100C3000010F40F4800070474FF0000304E000BF54
:100C400010F0004348BF40425FEA000C08BF704705
:100C500043F0964301464FF000001CE050EA0102C9
:100C600008BF70474FF000030AE000BF50EA0102DE
:100C700008BF704711F0004302D5404261EB4101CB
:100C80005FEA010C02BF84460146002043F0B643F0
:100C900008BFA3F18053A3F50003BCFA8CF2083A15
:100CA000A3EBC25310DB01FA02FC634400FA02FC1E
:100CB000C2F12002BCF1004F20FA02F243EB020025
:100CC00008BF20F00100704702F1200201FA02FC87
:100CD000C2F1200250EA4C0021FA02F243EB02007A
:100CE00008BF20EADC7070474FF0FF0C1CEAD052BE
:100CF0001EBF1CEAD15392EA0C0F93EA0C0F6FD07F
:100D00001A4480EA010C400218BF5FEA41211ED05C
:100D10004FF0006343EA501043EA5111A0FB013148
:100D20000CF00040B1F5000F3EBF490041EAD3711D
:100D30005B0040EA010062F17F02FD2A1DD8B3F199
:100D4000004F40EBC25008BF20F00100704790F008
:100D5000000F0CF0004C08BF49024CEA502040EA5A
:100D600051207F3AC2BFD2F1FF0340EAC250704720
:100D700040F400004FF00003013A5DDC12F1190F5E
:100D8000DCBF00F000407047C2F10002410021FAD0
:100D900002F1C2F1200200FA02FC5FEA310040F1E8
:100DA000000053EA4C0308BF20EADC70704792F061
:100DB000000F00F0004C02BF400010F4000F013A99
:100DC000F9D040EA0C0093F0000F01F0004C02BF94
:100DD000490011F4000F013BF9D041EA0C018FE703
:100DE0000CEAD15392EA0C0F18BF93EA0C0F0AD009
:100DF00030F0004C18BF31F0004CD8D180EA01002F
:100E000000F00040704790F0000F17BF90F0004FC7
:100E1000084691F0000F91F0004F14D092EA0C0FA9
:100E200001D142020FD193EA0C0F03D14B0218BF3C
:100E3000084608D180EA010000F0004040F0FE4082
:100E400040F40000704740F0FE4040F4400070471E
:100E50004FF0FF0C1CEAD0521EBF1CEAD15392EA9D
:100E60000C0F93EA0C0F69D0A2EB030280EA010C8D
:100E700049024FEA402037D04FF0805343EA111126
:100E800043EA10130CF000408B4238BF5B0042F184
:100E90007D024FF4000C8B4224BF5B1A40EA0C0029
:100EA000B3EB510F24BFA3EB510340EA5C00B3EB5B
:100EB000910F24BFA3EB910340EA9C00B3EBD10F49
:100EC00024BFA3EBD10340EADC001B0118BF5FEA9B
:100ED0001C1CE0D1FD2A3FF650AF8B4240EBC250C4
:100EE00008BF20F0010070470CF0004C4CEA502085
:100EF0007F32C2BFD2F1FF0340EAC250704740F4D4
:100F000000004FF00003013A37E792F0000F00F0C5
:100F1000004C02BF400010F4000F013AF9D040EA43
:100F20000C0093F0000F01F0004C02BF490011F4D7
:100F3000000F013BF9D041EA0C0195E70CEAD153CF
:100F400092EA0C0F08D142027FF47DAF93EA0C0FB6
:100F50007FF470AF084676E793EA0C0F04D14B029A
:100F60003FF44CAF08466EE730F0004C18BF31F04C
:100F7000004CCAD130F000427FF45CAF31F0004346
:100F80007FF43CAF5FE700BF4FF0FF3C06E000BFDF
:100F90004FF0010C02E000BF4FF0010C4DF804CD02
:100FA0004FEA40024FEA41037FEA226C18BF7FEA12
:100FB000236C11D001B052EA530C18BF90EA010F14
:100FC00058BFB2EB030088BFC81738BF6FEAE170A3
:100FD00018BF40F0010070477FEA226C02D15FEA3F
:100FE000402C05D17FEA236CE4D15FEA412CE1D0AB
:100FF0005DF8040B704700BF844608466146FFE772
:101000000FB5FFF7C9FF002848BF10F1000F0FBD53
:101010004DF808EDFFF7F4FF0CBF012000205DF84C
:1010200008FB00BF4DF808EDFFF7EAFF34BF0120D1
:1010300000205DF808FB00BF4DF808EDFFF7E0FF6A
:1010400094BF012000205DF808FB00BF4DF808EDBB
:10105000FFF7D2FF94BF012000205DF808FB00BF1E
:101060004DF808EDFFF7C8FF34BF012000205DF800
:1010700008FB00BF4FEA4002B2F1FE4F0FD34FF022
:101080009E03B3EB12620DD94FEA002343F00043F5
:1010900010F0004F23FA02F018BF404270474FF0A3
:1010A0000000704712F1610F01D1420205D110F02A
:1010B000004008BF6FF0004070474FF000007047DD
:1010C00053B94AB9002908BF00281CBF4FF0FF31AF
:1010D0004FF0FF3000F06CB9ADF1080C6DE904CEB3
:1010E00000F006F8DDF804E0DDE9022304B0704703
:1010F0002DE9F047089E0D4604468E46002B40F031
:1011000082808A42174646D9B2FA82F24AB1C2F1C7
:10111000200105FA02F320FA01F1974041EA030E9B
:1011200094404FEA1748230CBEFBF8FCB9B208FB09
:101130001CEE43EA0E430CFB01F098420AD9FB185F
:101140000CF1FF3580F01681984240F21381ACF12A
:10115000020C3B441B1AA4B2B3FBF8F008FB10339B
:1011600044EA034400FB01F1A14209D93C1900F112
:10117000FF3380F00181A14240F2FE8002383C44FE
:10118000641A40EA0C4000211EB1D4400023C6E995
:101190000043BDE8F08702B9FFDEB2FA82F2002A0E
:1011A0004FD1CB1B4FEA174E1FFA87F80121B3FB33
:1011B000FEFC250C0EFB1C3345EA034508FB0CF333
:1011C000AB4207D97D190CF1FF3002D2AB4200F2DD
:1011D000E7808446ED1AA3B2B5FBFEF00EFB105576
:1011E00043EA054408FB00F8A04507D93C1900F183
:1011F000FF3302D2A04500F2D7801846A4EB0804C2
:1012000040EA0C40C0E78B4208D9002E00F0AF80C6
:101210000021C6E900050846BDE8F087B3FA83F16E
:1012200000294BD1AB4202D3824200F2B780841A2C
:1012300065EB030301209E46002EAAD0C6E9004EAE
:10124000A7E7C2F1200C01FA02F3974020FA0CF054
:101250004FEA174E21FA0CFC1843BCFBFEF1050CBB
:101260000EFB11CC1FFA87F845EA0C4501FB08F389
:10127000AB4204FA02F409D97D1901F1FF3C80F078
:101280008B80AB4240F2888002393D44EB1A85B234
:10129000B3FBFEF00EFB103345EA034500FB08F3F9
:1012A000AB4207D97D1900F1FF3C71D2AB426FD937
:1012B00002383D44EB1A40EA014178E7C1F1200CC5
:1012C0008B4022FA0CF71F4320FA0CF405FA01F3C5
:1012D0004FEA174E25FA0CF51C43230CB5FBFEF91B
:1012E0001FFA87F80EFB195543EA054509FB08FA72
:1012F000AA4502FA01F200FA01F308D97D1909F1B1
:10130000FF3047D2AA4545D9A9F102093D44A5EBD2
:101310000A05A4B2B5FBFEF00EFB105544EA0544E5
:1013200000FB08F8A04507D93C1900F1FF352DD284
:10133000A0452BD902383C4440EA0940A4EB0804FC
:10134000A0FB02894C45C6464D4619D316D05EB166
:10135000B3EB0E0264EB050404FA0CFCCA404CEA41
:101360000202CC40C6E900240021BDE8F0873146E6
:1013700030460EE7AC46EDE6184601E74345E6D2B7
:10138000B8EB020E69EB07050138E0E72846D3E722
:1013900060468FE78146BAE7614677E708464BE744
:1013A000ACF1020C3D4415E702383C4426E700BF8F
:1013B000704700BF4FEA410C7FEA6C5C02D150EAF3
:1013C000013C0AD14FEA430C7FEA6C5C02D152EA3D
:1013D000033C02D14FF0000070474FF0010070470E
:1013E0004FEA410212F5001215D211D56FF478734D
:1013F000B3EB625212D94FEAC12343F0004343EAF0
:10140000505311F0004F23FA02F018BF40427047CA
:101410004FF00000704750EA013005D111F0004054
:1014200008BF6FF0004070474FF00000704700BFEA
:1014300010F8012B11F8013B012A28BF9A42F7D07E
:10144000D01A7047034613F8012B002AFBD1181A53
:10145000013870470000000084B02DE9F04F8BB0D8
:10146000019015A880E80E001598FEF7EDFFCDE974
:1014700002011698FEF7E8FF804617988946FEF7A6
:10148000E3FF824618988B46FEF7DEFF524604467D
:101490000D465B4650465946FFF72EF84246CDE9C9
:1014A00004014B4640464946FFF726F8DDE9042390
:1014B000FEF76CFE02460B46FEF768FE02460B4640
:1014C00000205549FEF760FE424606460F464B4651
:1014D000DDE90201FFF710F82246CDE906012B46AF
:1014E00050465946FFF708F802460B46DDE906016B
:1014F000FEF74CFE02460B46FEF748FE32463B46E0
:101500000CF05CFD5246CDE906015B46DDE90201C7
:10151000FEF7F2FF224606460F462B464046494656
:10152000FEF7EAFF02460B4630463946FEF72CFE30
:1015300002460B46FEF72AFE0CF0E8FC2246CDE9F7
:1015400008012B4620462946FEF7D6FFDDE9042395
:10155000FEF71CFE02460B46FEF718FE02460B463F
:1015600000202D49FEF710FE224606460F462B4668
:10157000DDE90201FEF7C0FF524604460D465B4618
:1015800040464946FEF7B8FF02460B46204629462C
:10159000FEF7FCFD02460B46FEF7F8FD32463B46E1
:1015A0000CF00CFD1D4B04460D460022DDE9060142
:1015B000FEF7A2FF16A3D3E90023FFF7C7F8FFF752
:1015C00035FA019B00221860DDE90801134BFEF794
:1015D00093FF0FA3D3E90023FFF7B8F8FFF726FA2C
:1015E000019B0022586029460C4B2046FEF784FFE1
:1015F00007A3D3E90023FFF7A9F8FFF717FA019B28
:10160000986018460BB0BDE8F04F04B0704700BFBB
:101610001F85EB51B81E09400000F03F0080664076
:101620002DE9F041044603F1004015468846FEF7D7
:101630000BFF154B0022FEF7A9FD0CF0C1FC10A317
:10164000D3E90023FEF758FFFFF7F0F907460146FC
:101650004FF07C50FFF7FCFB06463146276005F152
:101660000040FFF741FB414660603046FFF73CFB1E
:101670000023A060E3602046BDE8F081AFF3008066
:101680001B0DE02D90A0E63F0000F03F00000000A1
:1016900082B07FB50DF1180C0CE907005CE902017E
:1016A00008AA42F8043F8DE80300039B07CA0DF027
:1016B000CEFDFEF7C9FE08A3D3E90023FFF798F992
:1016C00028B1074807B05DF804EB02B07047054841
:1016D000F8E700BFAFF30080B81E85EB51B8EE3FCE
:1016E00000002042000020412DE9F04FCA4B21F0BC
:1016F00000479F4287B00C46054616DD07F140477C
:1017000007F5801703463B4300F00C8102460B4669
:10171000FEF73AFD02460B46FFF718F803460A4665
:101720001846114607B0BDE8F08FBC4B9F420E46ED
:101730000FDCB7F1795F80F279819BA3D3E90023B5
:10174000FEF724FDB64B0022FFF766F9002840F0B3
:101750002781284621460CF057FD02460B46002003
:10176000AF49FEF711FDAF4B0022FEF7C5FE90A377
:10177000D3E9002304460D46FEF7BEFE8EA3D3E94F
:101780000023FEF703FD22462B46FEF7B5FE8CA391
:10179000D3E90023FEF7F8FC22462B46FEF7ACFE09
:1017A00089A3D3E90023FEF7F1FC22462B46FEF77E
:1017B000A3FE87A3D3E90023FEF7E6FC22462B46CF
:1017C000FEF79AFE84A3D3E90023FEF7DFFC22464E
:1017D0002B46FEF791FE82A3D3E90023804689467B
:1017E00020462946CDE90289FEF786FE7EA3D3E98D
:1017F0000023FEF7C9FC22462B46FEF77DFE7CA3A4
:10180000D3E90023FEF7C2FC22462B46FEF774FE06
:1018100079A3D3E90023FEF7B7FC22462B46FEF757
:101820006BFE7F4B0022FEF7B1FC02460B46924650
:101830009B4620462946CDE904AB0CF021FCDFF89D
:10184000E8C167458046894600F389808B464FF0A2
:10185000000A02460B46CDE900ABFEF797FCDDE936
:10186000042382468B46DDE90201FEF76FFF024644
:101870000B4650465946FEF73FFEDDE900238246FF
:101880008B4610461946FEF737FE02460B462046A9
:101890002946FEF779FCDDE9002304460D46404663
:1018A0004946FEF773FC02460B4620462946FEF7E2
:1018B0004DFF02460B46FEF769FC02460B4650A15F
:1018C000D1E90001FEF760FC02460B46504659463E
:1018D000FEF75AFCDDE9002304460D461046194682
:1018E000FEF754FC02460B4647A1D1E90001FEF782
:1018F0004BFC02460B4620462946FEF745FC0246B5
:101900000B4641A1D1E90001FEF73EFC03460A4621
:10191000002E3FF705AF02F100421846114607B00E
:10192000BDE8F08F3AA3D3E90023FEF7E5FD0246B8
:101930000B46284621461D46144631A3D3E9002311
:10194000FEF7DAFD02460B4620462946FEF71EFC4E
:1019500003460A461846114607B0BDE8F08F5246C6
:101960005B46DDE90201FEF7F1FE42464B46FEF71B
:10197000C3FD42464B46FEF709FC02460B46FEF706
:1019800005FC1FA3D3E90023FEF7FEFB02460B462E
:101990001FA1D1E90001FEF7F7FB03460A46B7E7AE
:1019A0002B462246BCE600BF9C7500883CE4377E8F
:1019B00009F7FD0DE13D023F88B20175E0EF493FB7
:1019C0003B8F68B52882A43F5544880E55C1C93F56
:1019D0007D6FEB0312D6D43F555555555555C53F30
:1019E00082922EB1C5B8B33F59018D1B6C06E63FFC
:1019F000C88A599CE52A00404B2D8A1C273A03408F
:101A0000075C143326A6913C182D4454FB21E93F72
:101A1000182D4454FB21F93FFFFFEF3FFFFFDF3F4D
:101A20000000F03F0000E03F3233EF3F02460B463C
:101A3000FEF762FD38A3D3E9002306460F46FEF702
:101A40005BFD37A3D3E90023FEF7A0FB32463B46FC
:101A5000FEF752FD34A3D3E90023FEF795FB32468F
:101A60003B46FEF749FD32A3D3E90023FEF78EFB88
:101A700032463B46FEF740FD2FA3D3E90023FEF795
:101A800083FB32463B46FEF737FD2DA3D3E9002307
:101A9000FEF77CFB32463B46FEF72EFD2AA3D3E938
:101AA00000238046894630463946FEF725FD28A3A7
:101AB000D3E90023FEF768FB32463B46FEF71CFDE8
:101AC00025A3D3E90023FEF761FB32463B46FEF730
:101AD00013FD23A3D3E90023FEF756FB32463B4612
:101AE000FEF70AFD204B0022FEF750FB02460B4694
:101AF00040464946FEF72AFE2A462346FEF7FCFCEE
:101B00002A462346FEF742FB03460A46184611467C
:101B100007B0BDE8F08F00BF09F7FD0DE13D023FC2
:101B200088B20175E0EF493F3B8F68B52882A43F3A
:101B30005544880E55C1C93F7D6FEB0312D6D43F83
:101B4000555555555555C53F82922EB1C5B8B33F31
:101B500059018D1B6C06E63FC88A599CE52A004056
:101B60004B2D8A1C273A03400000F03F0000000084
:101B70002DE9F84F1F4653425F4E134327F00049AB
:101B800049EAD373B34294460D4686463BD8444255
:101B9000044321F0004A4AEAD474B44203468B4617
:101BA00031D807F1404404F5801414433BD0BC17EE
:101BB00004F002045AEA030344EAD1742BD059EA30
:101BC000020334D0B14545D0B24530D0AAEB090963
:101BD000B9F1747F4FEA295338DA002F46DA3C33E3
:101BE00044DA00200021012C58D0022C49D084B1C5
:101BF00035A3D3E90023FEF7C7FA35A3D3E90023C1
:101C0000FEF7C2FA05E0724660462B463946FEF7FB
:101C1000BDFABDE8F88F022C10D0032CF9D12EA10B
:101C2000D1E90001F5E7BDE8F84F00F06DB8BBF170
:101C3000000F07DB2AA1D1E90001EAE724A1D1E9DD
:101C40000001E6E728A1D1E90001E2E724A1D1E9FA
:101C50000001C8E7CA4504F1FF3423D0022C29D87B
:101C6000264B03EBC404D4E90001D2E76246704678
:101C70003B462946FEF76AFD0CF0C6FA00F044F830
:101C8000B1E711A3D3E90023FEF77EFA02460B4623
:101C90000FA1D1E90001FEF777FABAE701F100439D
:101CA0001946B6E7022C08D8154B03EBC404D4E957
:101CB0000001AEE700200021ABE70DA1D1E9000152
:101CC000A7E700BFAFF30080075C143326A6A13C52
:101CD000182D4454FB210940182D4454FB2109C000
:101CE000182D4454FB21F93F182D4454FB21F9BF12
:101CF000182D4454FB21E93F0000F07F70310100B2
:101D000058310100000000002DE9F04FC64B83B0B0
:101D100021F000469E42044601918A4611DDC34BE4
:101D20009E4200F3B88000F0B380C14BC14AC24C60
:101D3000BAF1000FD8BF13462046194603B0BDE8DC
:101D4000F08FBE4B9E4200F3C180A3F1DE739E4232
:101D500040F3AE804FF0FF3B019B224619462046E0
:101D6000FEF7CAFB02460B4680468946FEF7C4FBD7
:101D700095A3D3E9002306460F46FEF7BDFB94A3C7
:101D8000D3E90023FEF702FA32463B46FEF7B4FBE6
:101D900091A3D3E90023FEF7F9F932463B46FEF75B
:101DA000ABFB8FA3D3E90023FEF7F0F932463B46A5
:101DB000FEF7A2FB8CA3D3E90023FEF7E7F9324636
:101DC0003B46FEF799FB8AA3D3E90023FEF7DEF931
:101DD00042464B46FEF790FB87A3D3E9002380469B
:101DE000894630463946FEF787FB85A3D3E90023B1
:101DF000FEF7CAF932463B46FEF77EFB82A3D3E9E3
:101E00000023FEF7C1F932463B46FEF775FB80A37F
:101E1000D3E90023FEF7B8F932463B46FEF76CFBE8
:101E20007DA3D3E90023FEF7AFF932463B46FEF728
:101E300063FBBBF1FF3F02460B466ED0404649466E
:101E4000FEF7A4F97E4E019B2246FEF755FB7D4B23
:101E500006EBCB064FEACB0B9B44DBE90023FEF7F6
:101E600093F92246019BFEF78FF90B460246D6E90D
:101E70000001FEF789F9BAF1000F04460B46BFF6E0
:101E80005BAF01F100432046194603B0BDE8F08F77
:101E900000283FF44AAF019B224620461946FEF730
:101EA00075F904460B462046194603B0BDE8F08F8D
:101EB0005BA3D3E90023FEF769F9634B0022FEF729
:101EC000ABFD00283FF446AF534635E70CF09CF9D4
:101ED0005E4B9E4204460D4634DCA3F550239E42E1
:101EE00059DC02460B46FEF751F9574B0022FEF72C
:101EF0004BF9002206460F4620464FF08043294604
:101F0000FEF744F902460B4630463946FEF71EFC02
:101F10004FF0000B044601911EE740464946FEF78C
:101F200035F9019B2246FEF7E7FA02460B462046AA
:101F30000199FEF729F904460B462046194603B0DD
:101F4000BDE8F08F424B9E421ADA424B0022FEF768
:101F50001BF9404B06460F46002220462946FEF755
:101F6000CBFA394B0022FEF711F902460B463046F8
:101F70003946FEF7EBFB4FF0020B04460191EBE60E
:101F800002460B4600203449FEF7E0FB4FF0030BFE
:101F900004460191E0E62C4B0022FEF7F5F82A4BAF
:101FA00006460F46204600222946FEF7EFF8024675
:101FB0000B4630463946FEF7C9FB4FF0010B04468D
:101FC0000191C9E6AFF3008011DA22E33AAD903F08
:101FD000EB0D76244B7BA93F513DD0A0660DB13F60
:101FE0006E204CC5CD45B73FFF8300922449C23FC8
:101FF0000D5555555555D53F2F6C6A2C44B4A2BF8D
:102000009AFDDE522DDEAD3F6D9A74AFF2B0B33F54
:10201000711623FEC671BC3FC4EB98999999C93FCC
:102020009C7500883CE4377EFFFF0F440000F07F82
:10203000FB21F93FFB21F9BF182D4454FFFFDB3F83
:1020400088310100A83101000000F03FFFFFF23F9E
:10205000008003400000F83F0000F0BF00000000D7
:102060002DE9F04F446A99B016461F46CDE9046742
:10207000DDF8948005463CB910200CF0D1F8C0E999
:10208000014468620460C4606B6A196851B15A689F
:102090004A60012393408B60284610F092FB6B6AE4
:1020A00000221A603B1EB9BF23F0004305930023B2
:1020B000C8F80030DDF81490A74BBCBF0122C8F867
:1020C000002033EA090319D1249A42F20F731360F6
:1020D000C9F31303334300F06D85269B53B99F4B1F
:1020E00023E09F4B03930833269A1360039819B09B
:1020F000BDE8F08F994B03930333F5E7DDE9043432
:10210000CDE90C34DDE90C0100220023FEF75CFC74
:10211000804660B1249A01231360269B002B00F0B7
:102120004685904B269A1360013B0393DEE716AB7E
:10213000019317AB00932846DDE90C2310F079FDDD
:10214000C9F30A548346002C7ED00D9BCDF84C80F9
:10215000C3F31303DDE90C0143F07F5141F4401157
:10216000A4F2FF34804B0022FEF70EF874A3D3E9EB
:102170000023FEF7C1F974A3D3E90023FEF706F8A4
:10218000064620460F46FEF74DF971A3D3E900231A
:10219000FEF7B2F902460B4630463946FDF7F6FF28
:1021A00006460F46FFF71CF9002282460023304600
:1021B0003946FEF713FC48B15046FEF733F9324674
:1021C0003B46FEF701FC08B90AF1FF3ABAF1160FD7
:1021D00057D8664B03EBCA03D3E90023DDE90C01B2
:1021E000FEF7FCFB00284ED00AF1FF3A00230F93C4
:1021F000169B1C1B631E099345BFC4F10103069384
:10220000002300234CBF09930693BAF1000F3CDB77
:10221000099BCDF838A05344099300230A93229BCD
:10222000092B00F2B580052BC4BF043B2293229BEF
:10223000A3F10203CCBF00240124032B00F2B480DD
:10224000DFE803F02D987AA4DDE916431C4404F27C
:102250003243202BC3BFC3F1400304F2124009FAFA
:1022600003F3C3F12003C6BF26FA00F0184306FAB1
:1022700003F0FEF7C7F80123A1F1F871013C1393B5
:1022800070E70123B3E70F90B2E7069BA3EB0A03C5
:102290000693CAF100030A9300230E93BFE70023BD
:1022A0000B93239B002B00F382804FF00109CDF8A4
:1022B00020904B46CDF88C906E6A0022726004220A
:1022C00002F114009842716877D9284610F045FA57
:1022D0006B6A30601B680393089B0E2B00F2EE8044
:1022E000002C00F0EB80BAF1000F7ADD1F4A0AF0F3
:1022F0000F0302EBC303D3E900341AF4807FCDE966
:1023000010344FEA2A145CD0194BDDE90C01D3E9F3
:102310000823FEF71BFACDE9040104F00F0403279C
:10232000134E002C4FD1DDE91023DDE90401FEF747
:102330000DFACDE904016EE00123B1E7AFF30080AF
:1023400061436F63A787D23FB3C8608B288AC63FBB
:10235000FB799F501344D33F0000F07F6E4D010086
:10236000654D0100E94701000000F83FF031010030
:10237000C831010000230B93239B0AEB030909F1E9
:102380000103012B0893B8BF012395E70123F2E76E
:102390000124002322930B944FF0FF390022CDF843
:1023A00020901223239287E701230B93F4E7DDF8B3
:1023B0008C90CDF820904B467EE701317160520041
:1023C0007EE70227ACE7E10708D5DDE91001D6E991
:1023D0000023FEF791F8CDE91001013764100836AB
:1023E0009FE700F0A580CAF10004A44BA44E04F0BE
:1023F0000F0203EBC203D3E90023DDE90C01FEF772
:102400007BF8CDE90401241100230227002C40F0C1
:102410008480002B8DD10F9B002B00F08B80DDE999
:102420000434CDE91034DDE91001964B0022FEF7AB
:10243000D5FA00287ED0089B002B7BD0B9F1000F85
:1024400038DDDDE91001904B0022FEF755F8CDE9AB
:1024500004010AF1FF3801374C463846FDF7E2FF28
:10246000DDE90423FEF748F8884B0022FDF78EFED5
:10247000A1F15076CDE910011196002C5DD1DDE976
:102480000401834B0022FDF77FFE02460B46CDE997
:102490000423109A3346FEF7BFFA002840F09782D3
:1024A000DDE90401109A06F10043FEF797FA0028CF
:1024B00040F08B82DDE90C34CDE90434179B002B0E
:1024C000C0F25181BAF10E0F00F34D816B4B03EB5B
:1024D000CA03D3E90034CDE90634239B002B80F2F4
:1024E000DB80089B002B00F3D78040F06D82684BA7
:1024F0000022DDE90601FDF7FFFFDDE90423FEF719
:1025000081FA089C2646002840F04382039F31232D
:1025100007F8013B0AF1010A3FE2E20705D5D6E9D7
:102520000023FDF7E9FF01370123641008366DE74A
:10253000022770E7089CD0468FE703994F4B214450
:1025400012910B9903EBC403DDE9106753E90223F1
:10255000002946D04F490020FEF7F8F83B463246A6
:10256000FDF712FECDE91001039FDDE90401FEF73E
:1025700037FF0446FDF756FF02460B46DDE904012E
:10258000FDF702FE303402460B46CDE9042307F87E
:10259000014BDDE91023FEF721FA002865D1DDE9C2
:1025A000042338490020FDF7EFFDDDE91023FEF795
:1025B00015FA002840F0B680129B9F423FF47AAF94
:1025C000DDE91001304B0022FDF796FF2E4BCDE9DF
:1025D00010010022DDE90401FDF78EFFCDE90401C1
:1025E000C3E730463946FDF787FFCDE91001129B5E
:1025F000039C1493DDE90401FEF7F2FE1590FDF74C
:1026000011FF02460B46DDE90401FDF7BDFD159BF8
:10261000303304F8013B129B9C4206460F464FF0B4
:10262000000224D11B4BDDE91001FDF7AFFD02468E
:102630000B4630463946FEF7EFF9002871D1DDE947
:10264000102314490020FDF79FFD02460B4630463B
:102650003946FEF7C3F900283FF42CAF149F7B1EC8
:10266000149317F8013C302BF8D0C24649E0064BD2
:10267000FDF742FFCDE90401BCE700BFF0310100E6
:10268000C83101000000F03F0000244000001C4061
:10269000000014400000E03FDDE90489039FDDE90C
:1026A000062340464946FEF751F8FEF799FE0446D8
:1026B000FDF7B8FEDDE90623FDF71EFF04F1300645
:1026C0000B46024649464046FDF75EFD07F8016BA2
:1026D000039E089BBE1BB34238D102460B46FDF752
:1026E00055FDDDE9062380468946FEF795F958BB7E
:1026F000DDE9062340464946FEF766F908B1E107E1
:1027000022D42846594610F05CF800233B70249BE5
:102710000AF101001860269B002B3FF4E7AC1F6014
:10272000E4E427463B461F4613F8012D392A07D11A
:10273000039A9A42F7D10399302208F101080A70EE
:102740001A7801321A7090E7D046EBE7A14B0022CD
:10275000FDF7D2FE0022002380468946FEF734F9B9
:1027600000289CD0CDE70B9A002A00F0CD80229A59
:10277000012A00F3AF80139A002A00F0A78003F229
:1027800033430A9C069F069A1A440692099A01212D
:102790001A442846099210F0B7F80646002F0CDDBF
:1027A000099B002B09DDBB42069AA8BF3B46D21A03
:1027B0000692099AFF1AD31A09930A9BF3B10B9B4D
:1027C000002B00F0A580002C10DD31462246284663
:1027D0000CF0A8F95A4601460646284610F09DF826
:1027E0005946804628460FF0ECFFC3460A9B1A1B49
:1027F00004D0594628460CF095F983460121284615
:1028000010F082F80E9B002B044640F383801A469A
:10281000014628460CF086F9229B012B04467CDDFC
:102820004FF00008236904EB8303186910F01EF8C9
:10283000C0F12000099B184410F01F0000F08E80AA
:10284000C0F12003042B40F38780C0F11C00069BDD
:1028500003440693099B034407440993069B002BFA
:1028600005DD59461A46284610F0F3F88346099BC1
:10287000002B05DD21461A46284610F0EAF80446EA
:102880000F9B002B6CD02146584610F041F90028D0
:1028900066DA002359460A2228460FF0A9FF0B9B4F
:1028A0000AF1FF3A8346002B00F08B81314600236A
:1028B0000A2228460FF09CFFB9F1000F064600F3EC
:1028C0009180229B022B40F38D8051E0169BC3F137
:1028D000360356E7089B5C1E0A9BA342BFBF0A9BB8
:1028E0000A94E21A0E9BB6BF9B181C1B0E93089B02
:1028F000B8BF0024002BB9BF069B089A069F089B0F
:10290000BCBF9F1A00233EE70A9C069F0B9E45E72B
:102910000A9A6EE7229B012B19DC049BBBB9059B2D
:10292000C3F313039BB9059B23F000431B0D1B0549
:1029300083B1069B01330693099B013309934FF042
:1029400001080E9B002B7FF46DAF012072E74FF062
:102950000008F6E79846F4E780D018461C3076E782
:10296000089B002B38DC229B022B35DDDDF8209004
:10297000B9F1000F0DD121464B46052228460FF034
:1029800037FF01460446584610F0C2F800283FF7CA
:10299000BDAD239B039F6FEA030A4FF00008214659
:1029A00028460FF00EFF002E3FF4ABAEB8F1000F3B
:1029B00005D0B04503D0414628460FF002FF31460E
:1029C00028460FF0FEFE9CE600242646E1E7C246BC
:1029D00026469BE5000024400B9BDDF82090002B51
:1029E00000F0F680002F05DD31463A46284610F00B
:1029F00030F80646B8F1000F55D0716828460FF040
:102A0000ACFE326902320746920006F10C010C302E
:102A10000FF06AFC01223946284610F01AF8039B91
:102A200001330893039B4B440A93049B03F0010377
:102A3000B04609930646089B2146013B584604933D
:102A40000FF000FE034630330690414658460B9384
:102A500010F05EF8324681462146284610F073F8A1
:102A6000C2680B9B074602BB0146584610F050F85F
:102A70000B9B024639462846CDE90B320FF0A1FEEA
:102A8000229B0C9A089F43EA0201099B0B430B9B74
:102A90000DD1392B29D0B9F1000F01DD069B31335F
:102AA000049A13707BE73046B9E70122E2E7B9F1F7
:102AB000000F06DB229941EA0909099959EA010147
:102AC00020D1002AECDD59460122284608930FF058
:102AD000C0FF2146834610F01BF80028089B02DC4B
:102AE000DED1DA07DCD5392BD8D1049A392313701B
:102AF0003B461F46013B17F8012C392A50D00132C2
:102B00001A704CE7002A03DD392BEED00133C7E7FA
:102B1000089A0A9902F8013C8A422AD059460023B1
:102B20000A2228460FF064FEB04583464FF00003AA
:102B30004FF00A024146284607D10FF059FE804661
:102B40000646089B0133089375E70FF051FE3146A6
:102B5000804600230A2228460FF04AFE0646F0E788
:102B6000B9F1000F039ACCBF4F46012717444FF02D
:102B7000000859460122284608930FF06AFF2146B3
:102B800083460FF0C5FF0028B2DC02D1089BDB07AB
:102B9000AED43B461F4613F8012D302AFAD0FEE68C
:102BA000039A9A42A5D10AF1010A312379E7134B1E
:102BB000FFF7BBBA269B002B7FF493AA104BFFF7BD
:102BC000B4BAB9F1000F03DC229B022B3FF7D0AE61
:102BD000039F214658460FF035FD00F1300307F8FA
:102BE000013B039ABA1A9145BADD594600230A22DD
:102BF00028460FF0FDFD8346EBE700BFE8470100E4
:102C0000654D010043681B6870B50D4619060669DD
:102C100004460AD41449154840F2BB420CF0D3FBD9
:102C2000114840F2BB410CF093FC33681A0663680C
:102C30001B6848BF85F001051B060AD40A490B48EA
:102C400040F291420CF0BFFB074840F291410CF07A
:102C50007FFC35B1A368DB6820468021BDE8704069
:102C60001847A3681B69F7E7DA3801000439010047
:102C700043682DE9F0411B68D0F8088007690126F8
:102C80008E401E4204460D460AD10B490B4840F2C5
:102C9000FD220CF098FB084840F2FD210CF058FC96
:102CA0003B681E433E60D8F800302946204640F27B
:102CB0000122BDE8F0411847DA380100043901006B
:102CC00030B5002085B004F0A5FE194C194AA41AAD
:102CD000E40850B9A101184841F001010CF066FC6C
:102CE0006FF00505284605B030BD0023019303931E
:102CF00069460123029300F097FD051E07DAA20141
:102D00000E4842F0010229460CF05DFCEAE7029B06
:102D10009B07FCD1039DA20125B1094842F00102A5
:102D20002946F1E70749084842F00402ECE700BFF2
:102D3000A4300100A43001001C3901003C3901001D
:102D4000553901001F3B0100743901002DE9F04F96
:102D5000402099B00BF064FA0646FFF7B1FF38B98E
:102D6000AE4808F07DFF30B9AC49AD480CF02BFB04
:102D700019B0BDE8F08FAB48AB4C0CF0FCFEAB4B90
:102D8000E41AE408A401002838D0A94844F001015D
:102D90000CF00CFCA74CA84FE760204603F042FE65
:102DA0000546002874D1A5480CF00DFB394616A83D
:102DB000CDE9165503F018FD39460246002846D0E5
:102DC0009F480CF000FB9F4B9F480022C3E9002264
:102DD0009A60FF21E3689D4A0BF032FE9C489D4CAF
:102DE00008F03EFF217C6061FFF742FF9A4808F03F
:102DF00037FFE06000284FD19749B6E7894815AA08
:102E000001210CF002FF18B1944844F00101BFE722
:102E10001599934844F003020CF0D5FB814816AA9B
:102E200002210CF0F2FE18B18E4844F00101AFE728
:102E300016998D480CF0C7FADDE91503A0FB0301D4
:102E4000030D43EA013189480CF0BDFAA2E7884836
:102E5000884DDFF854820CF0B6FA6F1C854916A82D
:102E600003F038FD80B96B7873B12B78012B04D156
:102E7000814839460CF0A7FAF0E7D5F80421394625
:102E800040460CF0A0FAE9E716A803F0A5FD9AE782
:102E90007A480CF098FA96E779480CF094FA2046B4
:102EA0000CF002F800214FF400400AF09DFB684846
:102EB00008F0D6FE0721FFF7DBFE654808F0D0FEDC
:102EC0000121FFF79FFE4FF4004000210AF08CFB28
:102ED000DFF8D881DFF8D89100246A4F5D48394681
:102EE00000F0B0F938682146FEF792F828B158484A
:102EF00008F0B6FE0021FFF785FE634B634DC3F873
:102F00000080CDF818807B6905933B690493FB68CA
:102F10000393B868FEF7AEF800B202907868FEF747
:102F2000A9F800B201903868594FFEF7A3F800B233
:102F30000DF1400A009095E80E0050460CF03BF968
:102F40009AE8070085E807000DF1300AAB686A6867
:102F50002968504D5046FEF763FB9AE80F0087E85A
:102F60000F000DF1200A009397E80E005046FEF77F
:102F700073FA9AE8070085E80700AF68DFF834A124
:102F800021463846FEF76CF8002831D0D5F804B059
:102F900021465846FEF764F8002800F0C380CAF8BE
:102FA00000B0DAF80000FDF74FFA3B4BCDE9000125
:102FB0004022002130460FF0B8FA051E13DD13221F
:102FC0002149204803F042FB021E75DA1E493348AE
:102FD0000CF0F9F91B4803F09FFB021E03DA1A49B3
:102FE0002F480CF0F0F90021C5200AF0FDFA74E733
:102FF00021463846FEF716F800287FD0D5F804B0F1
:1030000021465846FEF72CF800286AD02548594634
:10301000FDF760FDCAF80000C3E700BF8939010071
:103020008F390100A8390100A4300100A43001004B
:10303000AB39010018000020273A01002C3A0100AA
:103040003B3A01003C090020760E0020A43A010022
:10305000B03A010000000020B73A0100BF3901007A
:10306000DA390100E9390100033A0100133A01009D
:10307000563A0100F80500206B3A01008E3A010033
:10308000BD3A0100DC050020F405002048090020BD
:1030900058090020D0050020CD3A0100D13A0100A6
:1030A000083B010000003443763A01000BD7233A75
:1030B0000000B4435409002002221E48002103F0FE
:1030C00071FB021E02DA1C491C4881E72A46194896
:1030D000314603F045FB021EBFF67CAF1649184887
:1030E00076E721463846FDF7BBFF70B1D5F804B04E
:1030F00021465846FDF796FF002887D121463846DD
:10310000FDF790FF00283FF44CAF6D68214628463C
:10311000FDF788FF00283FF444AF49462846FDF7F5
:10312000DBFC77E721463846FDF77CFF0028DDD041
:1031300064E700BF3C090020760E0020E33A01005E
:10314000F53A010043682DE9F0411B680769012544
:103150008D401D42044616460AD11549154840F2D5
:10316000BB420CF030F9124840F2BB410CF0F0F9D0
:103170003B681D4263681B6818BF86F001061D424C
:103180000AD10B490B4840F291420CF01CF9084857
:1031900040F291410CF0DCF936B1A368DB682946B6
:1031A0002046BDE8F0411847A3681B69F7E700BF58
:1031B000DA3801000439010010B50A460C464121F5
:1031C0000BF0FEFD082C074B07D00C2C07D0052C6C
:1031D00014BF054A054A1A6010BD054AFBE7054AB7
:1031E000F9E700BF3C000020A9F51C3AA9F59C3A7C
:1031F000D3F51C3BBDF59C3B10B50A460C4643215C
:103200000BF0DEFD094B042C07D8DFE804F00C0AB4
:1032100008060300064A1A6010BD064AFBE7064A84
:10322000F9E7064AF7E7064AF5E700BF4000002045
:10323000F8C1793BF8C1F93B8DC1793C8DC1F93CAE
:103240008DC1793D2DE9F8430D46002959D02E4C0A
:103250000C23224619460BF0F4FDE37894F8029013
:10326000267949EA0329637946EA0326274B07466C
:10327000D3F800802078637840EA032000B2FDF79D
:10328000DFFC4146FDF730FD0FFA89F9E86048465A
:10329000FDF7D6FC4146FDF727FD36B228613046E2
:1032A000FDF7CEFC4146FDF71FFD6861637A94F897
:1032B0000890A67AA07949EA0329E37A46EA032628
:1032C000134BD3F80080E37940EA032000B2FDF706
:1032D000B7FC4146FDF708FD0FFA89F9286048461A
:1032E000FDF7AEFC4146FDF7FFFC36B268603046A4
:1032F000FDF7A6FC4146FDF7F7FCA860F8B2BDE873
:10330000F883FF20FBE700BF750F0020400000207E
:103310003C0000202DE9F34180460C4608984FF010
:103320007C5115461E46FDF7DFFC0746394604F181
:103330000040FDF7D9FC3946044605F10040FDF791
:10334000D3FC3946054606F10040FDF7CDFC214689
:1033500006462046FDF7C8FC294607462846FDF7E5
:10336000C3FC01463846FDF7B7FB314607463046F9
:10337000FDF7BAFC01463846FDF7AEFBFDF764F8F1
:103380000B4B0022FDF7B8F802460B460020094916
:10339000FCF7FAFEFDF74AFB009601462B46404635
:1033A00022460BF0B6FD404602B0BDE8F08100BFFA
:1033B0000000E03F0000F03F10B50A4C0A49A4EBC2
:1033C0005004FDF791FC2146FDF78EFC2146FDF7E8
:1033D0008BFC01460548FDF77DFB2146FDF784FC8B
:1033E00010BD00BF12141F5F12D3363FFF51D83FEC
:1033F00038B54468816004F00304032C054602D00C
:103400002CB1002000E0006800236B6038BD054946
:10341000054845220BF0D7FF024845210CF098F8EB
:10342000EFE700BF2C3B010004390100014B18609D
:10343000704700BF4400002030B585B0CDE90101E0
:103440000446002501A90548039500F0D7FADDE9F7
:1034500002309842B8BF255405B030BDA1F300003A
:103460002DE9F74FB0F81CA01AF0080F0446934658
:103470001CD001290CBF4AF0100A4AF0200AA0F81B
:103480001CA004F1140008F05BFF40B9BA49BB4826
:10349000AC220BF098FFB848AC210CF059F88BF334
:1034A0001188BFF36F8F03B0BDE8F08FB44FDFF822
:1034B000CC820AF0070A022906D120460BF09DFFB4
:1034C0000028DED0012865D1D4F81890A38BB9F17B
:1034D000000F19DA0026256823F00703C4E9006607
:1034E00043F00103A383A38B03F00702524500922C
:1034F00003D0A268002A40F0F18015B9002E00F038
:103500002B814FF0000AEBE003F00702511F012965
:1035100022D8002123F00703062A25689BB2C4E9BC
:1035200000110CD18D422A4638BF0A462AB1E18BE0
:1035300012680131E183002AF8D143F00203A3832A
:1035400020460BF05AFF06460028CCD0A38B43F050
:103550002003A3830026C6E7042A0DD123F0070326
:103560009AB2A28320460BF048FF054680B142F094
:103570002002A2830025EDE740F21B1239464046A7
:103580000BF021FF40F21B1138460BF0E1FF002544
:103590002E46A8E7032831D1BAF1000F0AD03946E8
:1035A00040464FF4AB720BF00EFF4FF4AB71384650
:1035B0000BF0CEFF236853B93946404640F257120C
:1035C0000BF001FF40F2571138460BF0C1FF2369A1
:1035D0001E6856B9394640464FF4AD720BF0F3FE03
:1035E0004FF4AD7138460BF0B3FFA38B23F0070304
:1035F00043F00603A3830025A94674E704282ED1CF
:10360000BAF1020F0AD03946404640F25D120BF083
:10361000DAFE40F25D1138460BF09AFFE38B53B1AE
:10362000394640464FF4AF720BF0CDFE4FF4AF7108
:1036300038460BF08DFF23695E6856B9394640461F
:1036400040F261120BF0BFFE40F2611138460BF000
:103650007FFFA38B23F0070343F00403CAE7052889
:103660002ED1BAF1010F0AD0394640464FF4B2725A
:103670000BF0A9FE4FF4B27138460BF069FF2368D6
:1036800053B93946404640F265120BF09CFE40F2B9
:10369000651138460BF05CFF23699E6856B93946C0
:1036A00040464FF4B4720BF08EFE4FF4B4713846BE
:1036B0000BF04EFFA38B23F0070343F0050399E7BC
:1036C00040F26B12394640460BF07DFE002540F279
:1036D0006B1138460BF03CFF2E468DE74FF0010A88
:1036E00043F00803A38304F114031846019308F080
:1036F00027FE40B920494046AC220BF064FE1E482C
:10370000AC210BF025FF8BF31188BFF36F8FBAF15B
:10371000000F39D1002D4CD116B11A492046B047BF
:103720004FF02003EFF3118B83F31288BFF36F8FF9
:10373000019808F0F7FD40B90F49404681220BF08F
:1037400042FE0D4881210BF003FF019808F008FEAE
:10375000A38B23F00803A383A38BDA0631D523F0D0
:103760001003A3830121B4F81CA00AF0070A002962
:103770007FF4A1AE85E600BF713B01000439010072
:103780004F3B0100D5370000A1680029C2D00B686B
:10379000D1F804B0009A002B38BF00239A46204687
:1037A0004B46D847BAF1000FB4D0DAF80030514692
:1037B000EEE72946009A2D684B4620460BF039FE6D
:1037C000A8E713F020011EBF23F02003A3830221EA
:1037D000C9E700BFF8B504460D4600F114064FF0E6
:1037E0002003EFF3118783F31288BFF36F8F304606
:1037F00008F098FD40B90A490A4881220BF0E3FD20
:10380000074881210BF0A4FE304608F0A9FDA56110
:103810003A4620460121BDE8F840FFF721BE00BF2F
:10382000713B0100043901002DE9F04704460F46C1
:103830000BF015FE051E54DB04F114094FF02003B4
:10384000EFF3118A83F31288BFF36F8F484608F0B5
:1038500069FD40B93349344881220BF0B4FD314849
:1038600081210BF075FE484608F07AFDE38BA28BB0
:103870004FF6FF718B4202F007064AD0022E1FD18D
:103880000133E38335464FF00108484608F058FD00
:1038900040B924492448AC220BF095FD2148AC21C5
:1038A0000BF056FE8AF31188BFF36F8FB8F1000F4B
:1038B00017D000233246394620460BF0BAFD10E0FF
:1038C000930701D0062E0FD100233B606368EBB94C
:1038D000C4E900773546F6B9524602212046FFF783
:1038E000BFFD2846BDE8F087052E17D0012E0AD06F
:1038F0000E490D4840F2C9120BF065FD0B4840F22D
:10390000C9110BF025FE6FF0040504E01F6067602D
:10391000E0E76FF00A054FF00008B6E76FF08505A5
:10392000F9E700BF713B0100043901004F3B010082
:10393000F0B5094E016802460A2700200C46013105
:1039400023789D5D6D0701D41460F0BD07FB003343
:10395000A3F13000F2E700BF374C01002DE9F74F2B
:1039600014469946D378244A13F802A06F2B0AF024
:10397000030206460F4601922DD028D8582B14BFBB
:103980000A251025DDF83080AA464FF0000B52467C
:103990005B4630463946FDF793FB092AD3B21FD860
:1039A00030335F45DBB208BF564508F8013D01D30F
:1039B000C84512D823789B0605D5082D16D1A378C3
:1039C00043F00803A370404603B0BDE8F08F03F056
:1039D000F703702BD3E70825D4E706460F46D6E752
:1039E000019A012A0CBF37335733DAE7102DEAD199
:1039F000A37843F01003E5E7374C01002DE9F04FC1
:103A0000A3B08846069091461C46002599F8000010
:103A100010B9284600F0AEBD09F10103252807932F
:103A200007D04146069B98470028C0F2A385013580
:103A300024E21822002114A80EF064FC99F8013049
:103A4000252B59D0079A164612F8013B2B2B00F074
:103A50008B8079D8202B00F08C80232B00F08E8077
:103A60009DF8583003F04402442A03D16FF38613C3
:103A70008DF858309DF85830129643F080038DF839
:103A8000583033782A2B7ED19DF8593043F001030A
:103A90008DF85930731C12931A782E2A9DF85920EC
:103AA0000CBF0121002161F341028DF859200BD197
:103AB0005A1C12925A782A2A7BD19DF8592042F03A
:103AC00004028DF8592002331A4612F8010B6C28B3
:103AD00000F0CF807DD8682800F084806A2800F04C
:103AE000D2804C2800F0D6809DF859206FF3C60292
:103AF0008DF859201A4680E009F1020207928DF8EC
:103B00005B309DF85930DE0740F16D8154F804AB0D
:103B1000BAF1000F07DA9DF8582042F004028DF840
:103B20005820CAF1000A580740F1668154F8047B16
:103B3000002F80F265819DF859306FF341038DF8B5
:103B400059304FF0FF375BE12D2B06D0302B87D15A
:103B50009DF8583043F0400303E09DF8583043F09F
:103B600004038DF858306EE79DF8583043F0080391
:103B7000F7E79DF8583043F01003F2E79DF858300E
:103B800043F02003EDE712A8FFF7D2FE129BB342E9
:103B900081D09DF858101790C1F3400242EAD072CC
:103BA000520062F07F0201F07D010A438DF8582037
:103BB00071E712A8FFF7BCFE9DF858301890C3F3C8
:103BC000400242EAD07060F341038DF85830129BF6
:103BD0007AE774289DF8591059D07A2884D10B4679
:103BE000062141E0597868299DF859103AD10122FF
:103BF00062F3C6018DF859109A1C134613F8012B75
:103C00000793782A8DF85B2000F2C580572A4ED89A
:103C1000412A04D0A2F14503022B00F2BC809DF89A
:103C20005A3002F0DF020421A2F1410A61F30203DB
:103C3000DAF100029DF859108DF85A3042EB0A0271
:103C400062F3C7110A068DF85910CBB200F1C98092
:103C500003F07802182A40F09B806FF3C6038DF8BA
:103C6000593082E00B46022161F3C6038DF85930CA
:103C7000C3E759786C299DF8591001D10422B7E7A0
:103C80000B460321F0E79DF859300521ECE70B4680
:103C90000721E9E7BDF8583023F4F04323F002038D
:103CA00043F4804343F00203ADF85830A5E7A2F196
:103CB0005803202B6FD801A151F823F06F3D00006D
:103CC000973D0000973D0000973D0000973D0000A4
:103CD000973D0000973D0000973D0000973D000094
:103CE0001F3C0000973D00006F3D0000413D00007B
:103CF0001F3C00001F3C00001F3C0000973D0000DF
:103D0000413D0000973D0000973D0000973D0000B9
:103D1000973D0000A53D00006F3D0000C53D00003F
:103D2000973D0000973D0000C53D0000973D000015
:103D30006F3D0000973D0000973D00006F3D000083
:103D40009DF85A30012161F302038DF85A309DF835
:103D5000593003F07803402B02BF9DF8581041F012
:103D600001018DF85810632A05D0002306E09DF864
:103D70005A300221E7E7003B18BF01239DF8582085
:103D8000C2F340010B4363F341028DF85820B8E6BB
:103D900013F0380FE9D09DF8583043F001038DF847
:103DA0005830E2E79DF85A30032262F302038DF89F
:103DB0005A309DF8593003F07803A3F140077B4255
:103DC0007B41DBE79DF85A30032262F302038DF852
:103DD0005A309DF8593013F0780F14BF0123002397
:103DE000CCE70123CAE79DF95820002AB4BFDDF8CB
:103DF0005CA04FF0FF3A96E699077FF5A2AE189FB8
:103E00000023CDE917339DF85A3003F00703042B44
:103E100009D19DF859309A0705D49DF95930002BE6
:103E2000B4BF0D2706279DF85A309DF8591003F0AE
:103E30000703012BC1F3C30136D1CB1E042B20D8BD
:103E4000DFE803F00307071F1F0054F8042BD31704
:103E500004E0073424F00704F4E80223CDE9142336
:103E60009DF85860B30755D0079B06984A464146CF
:103E70000BF058FB0028C0F27D830544DDF81C9050
:103E8000C4E554F8042B01294FEAE273CDE9142369
:103E900005D19DF85030149300231593E0E70229D3
:103EA000DED1BDF95020D2E7022B23D1CB1E042B4B
:103EB00013D8DFE803F0030A0A12120022681492F2
:103EC0000023201D15930446CAE7073424F0070099
:103ED000F0E80223CDE91423F5E754F8043B1493EA
:103EE00001294FF000031593D3D00229B8D1BDF8B2
:103EF0005030D0E7042B07D1073424F00704F4E84E
:103F00000223CDE91423ABE7032B04BF54F8043B91
:103F10001493A5E79DF85B90B9F1780FAED8B9F18D
:103F2000570F00F2A680B9F1250F00F0ED80B9F12E
:103F3000240FA3D9B9F1410F03D0A9F14503022BF6
:103F40009CD8DDE91423002A73F10001C0F28681B8
:103F5000310700F1858116F0100618BF2026C3F343
:103F60000A5BC3F3130304920593DDE90423CDE94F
:103F70001023BBF1000F40F07581DDE904321343DB
:103F800014BF4FF0010C4FF0000C0599CB020499BF
:103F9000CA0243EA515358464BEA02010A91C1173B
:103FA00019430B91DDE90A01B9F1460F08BF4FF043
:103FB00066090143CDE9102300F0C881BCF1000F70
:103FC00040F08881109B0293119B43F000430393C0
:103FD000DDE90223CDE910230023ABF2FE3B1A46B4
:103FE00005211BF1020FC0F27E811BB1DDE9020148
:103FF000CDE91001BBF1000FDDE9103100F38E8136
:104000001199109BCBF104000BF11C0B01FA0BFB77
:10401000A0F1200CC34021FA0CFC43EA0B0343EA55
:104020000C03C140CDE9103109F0DF03472B40F00C
:104030009481D01C02DB974280F28B81A9F10209A6
:10404000002F5FFA89F900DD013F9DF8583099068D
:1040500000F18381002FD4BF00230123B9F1660F43
:104060000C9340F07C81D31940F17A814FF0000B22
:104070007AE1A9F15803202B3FF600AF01A252F8D4
:1040800023F000BFFD4100007D3E00007D3E0000AA
:104090007D3E00007D3E00007D3E00007D3E000034
:1040A0007D3E00007D3E0000433F00007D3E00005D
:1040B000354100009D410000433F0000433F0000A8
:1040C000433F00007D3E00009D4100007D3E00001A
:1040D0007D3E00007D3E00007D3E0000334200003A
:1040E000FD410000014200007D3E00007D3E0000D9
:1040F0000F4100007D3E0000FD4100007D3E0000BC
:104100007D3E0000FD410000414648468AE4002F04
:10411000DDF850900ADB394648460EF05AFA09EBB2
:10412000000B0026B9F1000F0CD1A7E64846FDF7B9
:1041300089F9F4E7149B8DF86C3000260DF16D0BB6
:104140000DF16C09ABEB090206B101329DF85A0082
:10415000C30640F103820232179940060A4444BF65
:1041600018995218BAF1000F40F31182AAEB020A13
:104170009DF858205107C2F3800700F108825306CA
:1041800040F1FB8146B1069B4146304698470028E6
:10419000C0F2F08101353E463027EFE130072BD4E5
:1041A00016F0100618BF2026DDE91423002A73F14B
:1041B000000105DA524263EB4303CDE914232D26B7
:1041C0000DF185030093DDE914011BAB16AAFFF77F
:1041D000C5FB8146002F0DF185030BDB9DF85810C0
:1041E000A3EB09026FF3861197428DF8581001D99D
:1041F000BF1A17979B4695E72B26D5E70026DFE7E2
:104200001498002800F09F810DF18503009316AAF1
:104210001BAB0021FFF7A2FBBDF85A3003F0EF0300
:1042200043F4F04343F010038146ADF85A300026C2
:10423000D0E7149B07293FF621AEDFE801F00D041B
:10424000060D08080D0D1D7018E61D8016E628469F
:10425000E917C3E9000111E61D600FE62D267EE691
:104260002B267CE640F2FF739B452ED1DDE904123C
:10427000B84B19F803300A4303F0030317D1012B9D
:104280000BBF44F6496346F66963ADF86C30ADF890
:104290006C300CBF462366238DF86E309DF8583085
:1042A0006FF386138DF858300DF16F0B48E7012B33
:1042B0000BBF44F24E1346F26E13ADF86C30ADF8FE
:1042C0006C300CBF4E236E23E6E74FF0000C5CE62B
:1042D0000BF1FF3B92185B41002A73F10001F7DA02
:1042E000CDE910236EE6029B03985B0843EAC07396
:1042F0004008B0F1333FDE46CDE902300BF1010B4F
:10430000F1D2A3FB01BCCDE902BC039B4843C31817
:1043100003930EF1020B013A012362E6023341F1ED
:10432000000110A8CDE910310C920BF0C4F80C9AE2
:10433000DDE910010BF1FF3B013200184941002873
:1043400071F100030BF1FF3BF7DA51E600229346CF
:1043500056E6BF1A4FF0660977E600237EE67B1C1F
:10436000102BA8BF10239B4610210F9100204FF067
:104370000061CDE912010BF1FF3BBBF1FF3FDDE92D
:1043800012101FD1109BCB180893119B40EB030315
:104390000993DDE908BC6FF070414FF0FF306145D3
:1043A00008BF58451AD358466146CDE91001B9F106
:1043B000660F53D1002A20DC30238DF86C300DF1CC
:1043C0006D0B2BE0490841EAC0714008CDE912109D
:1043D00012A80D920BF06FF80D9ACCE7089B0D9286
:1043E000099A5B0843EAC273510810A8CDE910315D
:1043F0000BF061F80D9A0132D9E70DF16C0B0F99B2
:10440000002909DD0FA910A80D920BF074F80D9A80
:104410000BF8010B013AF2D1179200229DF85810C7
:10442000880601D4002F3FDD5B462E2103F8011BD7
:1044300092B1002F75DD5142B942A8BF39469DF8AF
:104440005A0017910029A7EB0107D4BF00210121D1
:1044500061F345108DF85A009B4620E00FA910A883
:104460000D920BF048F80D9A9DF858308DF86C00BD
:10447000302818BF02F1FF32990601D4002F52DD17
:104480002E238DF86D300DF16E03E5E70FA910A80E
:104490000D920BF030F80D9A0BF8010B013F002F35
:1044A00002DD0F990029F1DC0C9B002B3ED11897FF
:1044B00009F0DF01452922D1002A5846BABF5242ED
:1044C0002D212B21632A00F8029B8BF801100ADDB5
:1044D000642792FBF7F101F1300C0BF103008BF82C
:1044E00002C007FB11220A27834692FBF7F107FB64
:1044F000112201F1300C30320BF802CB4270179AC6
:10450000002A1EDC189A002AD4BF002201229DF83E
:104510005A1062F3861100228DF85A108BF8002091
:104520000EE69B46C0E70DF16D0BBDE7002118912B
:1045300058461BF8011D3029FAD02E2918BF834692
:10454000B6E70122E3E7DFF810B00646ABF1050954
:10455000F8E500BF374C01009C3B0100070748BF4E
:104560000132F9E50C934146069B384698470028EE
:104570000C9B05DA23B0BDE8F08F20270AEB05037A
:104580005246002AA3EB0A050AF1FF3AEADC36B1EB
:10459000069B4146304698470028EBDB01359DF8E5
:1045A0005A2050067DD59DF95920002A2CDBA5EB19
:1045B000090599F800005B4BC25C4E46510705EBBC
:1045C000060709F101093FD49DF85A20DDF85C90F7
:1045D000920608D409EB07054A46002AA5EB09070D
:1045E00009F1FF3936DC30782E280AD1069B414686
:1045F00098470028BEDBB9F1000F07F1010730DC56
:104600000136B146BF1B39E0A5EB09074D4607EB64
:10461000090619F8010B702810D1189F3744BA1BEE
:10462000002A35DC06985B462A4641460AF07AFFA6
:1046300000289FDB3044054682446CE0069B4146DF
:1046400098470028E2DA95E7069B414698470028FC
:10465000AFDA8FE7069B4146302098470028BBDA47
:1046600088E7069B41463020984709F1FF39C0E7AB
:10467000069B414698470028FFF67CAF294B4D46E4
:1046800007EB090619F8010BC25C5307F0D4C4E725
:10469000069B4146302098470028FFF66BAF013655
:1046A000BDE7D10601D4120707D5069B414630204D
:1046B00098470028FFF65EAF01359DF85A20D306D3
:1046C00008D59DF85B00069B414698470028FFF6F9
:1046D00051AF0135179F2F447A1B002A0ADC069838
:1046E0005B464A4641460AF01DFF0028FFF642AFEE
:1046F0002844A0E7069B4146302098470028FFF653
:1047000039AF0135E8E7069B41462020984700284D
:10471000FFF630AF0135AAEB0503002BF3DCFFF702
:10472000ADBB00BF374C010030B51049104889B00F
:1047300000220DF0A1FD0F4D0F4900220023CDE90D
:10474000062300240E23CDE90334CDE901440B4BAD
:1047500000944FF44072284607F01EFD0849284691
:104760000DF04DFD204609B030BD00BF854700006B
:10477000F00300202804002020160020214C000017
:104780009D3B0100014807F08FBF00BFDC03002004
:104790002029F8B505460C4608D914491448872243
:1047A0000AF011FE114887210AF0D2FE0020114EB6
:1047B00003460246012715F8011B09B1A34200D3A5
:1047C000F8BD252902D182F00102F4E7002AF2D0D7
:1047D00011F806C01CF0030FEDD0732904BF07FACF
:1047E00003F2104301330022E5E700BFA53B0100BF
:1047F00004390100374C01000C4A002310B5137036
:104800000B4A13600B4B0C4A1A604FF4004000F047
:10481000B9FD00F0B1FA09480AF0A2FEBDE8104067
:1048200007490848042328220DF0C7BC820F002046
:104830006C09002048000020A5F500007409002044
:10484000E03200207C090020194B1A4A9B1A9F2B4A
:1048500070B54FEA23160AD91749184840F24A2280
:104860000AF0B1FD144840F24A210AF071FEBFF38C
:104870005B8F134B53E8005F6A1C43E8002100295B
:10488000F8D1BFF35B8F15B90A4CB54200DB70BDA0
:10489000237B53B123689B690BB12046984763681B
:1048A00004221968204600F045FA01351034ECE77F
:1048B0001431010004310100A53B0100043901005D
:1048C0007009002010B54FF02003EFF3118483F33B
:1048D0001288BFF36F8F04480AF052FE84F31188E8
:1048E000BFF36F8F10BD00BF7409002010B5044CDA
:1048F000227812B9034807F0D7FE0123237010BDB8
:10490000810F0020DC0300200C4BBFF35B8F53E8CA
:10491000002F013243E800210029F8D1BFF35B8F5B
:10492000BFF35B8F064B53E8002F013A43E80021A9
:104930000029F8D1BFF35B8F704700BF6C090020DE
:10494000680900200020064BBFF35B8F024653E846
:10495000000F43E800210029F9D1BFF35B8F7047B6
:104960006C090020F8B5FFF7EDFF0B4C0B4D2D1B2C
:1049700007462D110026AE4200DBF8BD20460AF0A6
:1049800005FE28B123681B6913B1394620469847B4
:1049900001361034EFE700BF04310100143101008B
:1049A000174B984273B5044602D3164B984221D355
:1049B00015480022002301A907F0EAFA0546E0B9EC
:1049C0000122019BBFF35B8F53E8001F43E80020E7
:1049D0000028F9D1BFF35B8F019E331D1F221846BB
:1049E00021460DF0E3FD7E22034686F8232086F85B
:1049F00024501C46204602B070BD044BF9E700BFAE
:104A00007C2E01008C4D01007C090020D23B01006E
:104A100048B1054B984205D3A03398422CBF0020E3
:104A20000120704700207047E0320020404B1B7887
:104A30002DE9F047044603B9A0B1FFF743FF05464F
:104A400018B194B128460AF0B1FE2CB9394B1B6855
:104A5000002B01DDFFF786FF37480AF08FFD041EAB
:104A600018BF01242046BDE8F087344BBFF35B8FAD
:104A700053E8002F013A43E800210029F8D1BFF3A1
:104A80005B8F2F4B1B78A3B92B7ADB0711D40AF06D
:104A9000A0FE064628460AF067FE01463046FFF7AC
:104AA00077FEDFF8B090DFF8B0A0DFF8B080064600
:104AB00036B9244E244FBF1B3F114FF0000833E09E
:104AC000B6FA86F7C7F11F07394628460AF04FFEA7
:104AD0004845024602D31D4B984213D31046FFF7B8
:104AE00097FF78B952450DD06989C1F3891100F05B
:104AF00013F917484146D8220AF065FCD8214046F0
:104B00000AF026FD012303FA07F726EA0706CFE796
:104B100030460AF03BFD20B1336829465B683046D9
:104B2000984708F101081036B845F1DB8AE700BF65
:104B3000810F00206C090020740900206809002002
:104B4000820F002004310100143101008C4D01005E
:104B5000043901007C2E0100D23B0100A53B01007D
:104B6000284B37B51B68418104469847E0604FF0F9
:104B70002003EFF3118583F31288BFF36F8F224870
:104B800021460AF0F1FC85F31188BFF36F8FBFF364
:104B90005B8F1E4B53E8002F511C43E80010002888
:104BA000F8D1BFF35B8F1A4B1B7883B14FF0200312
:104BB000EFF3118483F31288BFF36F8F0020FFF7A8
:104BC00035FF84F31188BFF36F8F03B030BD114BF5
:104BD0001B68002BF9D052B900220023CDE9002335
:104BE0000D484FF40042002309F024F9EDE70A2AAA
:104BF000EBD109480DF04CFB084803B0BDE830404C
:104C000007F052BD48000020740900206809002008
:104C1000820F00209C090020F0030020DC0300200C
:104C2000164B174A9B1A002B10B50ADC154916487B
:104C300040F2F1420AF0C7FB124840F2F1410AF09B
:104C400087FCFFF701FE08F0FFFC104B186030B145
:104C50000F4B1B68092B02DD0E4807F025FD0D4C9C
:104C60000020FFF7E3FE0028FAD14FF0FF324FF0AB
:104C7000FF33204607F04EFDF2E700BF143101007C
:104C800004310100A53B0100043901009C0900200A
:104C900068090020DC030020F8B50F4F3D7875B996
:104CA0000E4C0F4EFFF7D0FD361B3611B54207DB19
:104CB0000020FFF7BBFE0028FAD101233B70F8BDAE
:104CC00020460AF063FC18B1236820465B699847C8
:104CD00001351034EAE700BF820F002004310100E3
:104CE0001431010007B504380190BFF35B8F50E821
:104CF000003F5A1E40E800210029F8D1BFF35B8F26
:104D0000012B03D1034801A907F09CF903B05DF81A
:104D100004FB00BF7C090020044A054B9B1AB1EB41
:104D2000D30F34BF52F8310000207047A430010087
:104D30000431010070B50D4C041B241101340546EB
:104D40000E46E4B240B90A490A48D1220AF03BFBB8
:104D50000748D1210AF0FCFB6B6801221C711E6020
:104D60005A71BDE87040FFF7C1BD00BF04310100BA
:104D70001D3C0100043901002023024902481A4663
:104D80000DF01BBA80330020A009002037B50023A6
:104D9000094D01930120FFF749FE0446FFF7B4FDDA
:104DA0000022002301A9284607F0F2F808B1002CE0
:104DB000F0D1019803B030BDA009002007B5002351
:104DC000019307480022002301A907F0E1F810B180
:104DD000FFF7DCFF0190019803B05DF804FB00BF12
:104DE000A0090020F0B5037A457A85B02D0901901D
:104DF000D8071CD4DDB100242646019831460AF0BC
:104E0000B6FC0746FFF704FE70B134B9019B294692
:104E10001869FFF7BDFC044648B124FA06F3D90728
:104E200002D53846FFF75EFF0136AE42E5D3019B5F
:104E30001A7A920704D55B69084C0393039B2BB93C
:104E4000064801A907F0FEF805B0F0BD1D6803A9EA
:104E5000204607F0F7F80395F0E700BFA00900200F
:104E60000E2A2DE9F84F8146884615460AD92D4964
:104E70002D4840F23B120AF0A6FA2A4840F23B11B4
:104E80000AF066FBFFF79AFF044630B301230027C0
:104E9000032D4360078109D902220281A5F1020A8C
:104EA00000F1140B4761BAF1000F0EDC637AC4F80D
:104EB000109065F30713032D637218D8AA004146BA
:104EC00004F114000DF010FA07E0FFF777FF064633
:104ED00030B92046FFF786FF34462046BDE8F88FFC
:104EE000CBF80000AAF1070A07608346DBE7D8F891
:104EF0000030A361D8F804306769E361023D08F12E
:104F00000808072D2E4628BF07264FEA8609414686
:104F1000381D4A460DF0E8F9AD1B3F68C844F0D192
:104F2000DBE700BF4E3C0100043901000EB403B5BD
:104F300003AB014653F8042B04480193FEF75EFDD2
:104F400002B05DF804EB03B0704700BFB55100003C
:104F50002DE9F04F87B01F4601F0010305929DF83F
:104F60004090BDF948A004930646884601F0020B24
:104F700001F008050AF093FB0246002844D03949A5
:104F80003046FFF7D3FF0446BBF1000F08D018F0FE
:104F9000440F3BD134493A463046FFF7C7FF04443B
:104FA000049B53B1314B324953F82920314B3046E1
:104FB000002A08BF1A46FFF7B9FF3DB12E4B2F4913
:104FC00053F829203046FFF7B1FF0546BAF1000F2C
:104FD00016DB059B002B43D0012303FA09F9284B6C
:104FE000284F19F0100F18BF1F4651469DF8440076
:104FF000FFF792FE394602463046FFF797FF054419
:10500000281907B0BDE8F08F0446BDE71E4B1868AD
:105010000028C4D01D4B4FF4616C1968B7FBF1F741
:10502000B7FBF0F100FB1177B1FBFCF20CFB121C9B
:105030004FF47A714F434FF03C0EB7FBF0F800FB92
:1050400018774F43BCFBFEF30EFB13C1B7FBF0F028
:105050000091CDE901800E493046FFF767FF9EE7DA
:10506000084FC2E7883C01008C3C0100B8320100C7
:10507000AB4601007A3C0100CC320100B13C01009A
:10508000843C01007F3C0100C0090020C4090020CD
:10509000953C010038B50C46E107054603D5084AA2
:1050A0000849FFF743FFE20608D4A30628464CBF91
:1050B00005490649BDE83840FFF738BF38BD00BF95
:1050C0007A3C0100AB460100B83C0100B73C01004E
:1050D0002DE9F0471D46089B1746DA0604460E46A2
:1050E00005D499064CBF2B492B49FFF71FFFDFF86A
:1050F000B0904FF00008A8452DDBDFF8A880DFF85E
:10510000A890DFF89CA00025BD4232D2725D4946CE
:105110002046FFF70BFF0135102D23D11F49DFF883
:105120008080DFF88890DFF888A02046FFF7FEFE39
:105130000025AF4229D9725D12F8093013F0970F9C
:1051400008BF2E2251462046FFF7F0FE0135102DF4
:1051500014D1BDE8F08749462046FFF7E7FE08F185
:105160000108C8E76A07CFD151462046FFF7DEFEA7
:10517000CAE741462046FFF7D9FECCE76B07D8D1F6
:1051800041462046FFF7D2FED3E741462046FFF7CF
:10519000CDFEDBE7B83C0100B73C0100C03C01009C
:1051A000104801000E480100BA3C0100374C0100D4
:1051B000C23C010038B54B681A68CB689A42054674
:1051C0000C4602D108460AF0C9FC6368BFF35B8F46
:1051D00053E8002F511C43E800100028F8D1BFF31A
:1051E0005B8FA3689D5463681A68E3689A4208D984
:1051F0000549064874220AF0E6F8034874210AF0CB
:10520000A7F9002038BD00BFC53C010004390100EA
:105210002DE9F0478B7A13F0070716468AB00A7A11
:1052200004460D4620D04989C3F3C203C1F3891156
:10523000D243CDE900730291EB6802F001023146DE
:10524000FFF786FE81462B7ADB4313F001080DD071
:10525000214628460AF025FB002F3BD03A4631462E
:105260002046FFF717FF35E0B946ECE7002F37D1AE
:10527000E36853B929492A484FF4E8720AF0A3F8C1
:1052800026484FF4E8710AF063F90026E3680693B4
:1052900006AA3346A16828460AF0EFFA069A636820
:1052A0001A604AB1A368134413F8018CA8F10A03E9
:1052B000D3F1000848EB030820460AF04FFC069B98
:1052C0001E44002BE2D1B8F1000F03D0154920464F
:1052D000FFF72CFE20460AF041FC0AB0BDE8F0873B
:1052E00028460AF076FA104902462046FFF71EFECD
:1052F0004FF0100A05AA434606A92846CDF814A087
:105300000AF0BBFA059A002AA8D04B46009606A9D7
:105310002046FFF7DDFE059B9844EBE7C53C010006
:1053200004390100F43C0100AB46010073B542F2C0
:105330000F738B4228BF0B4605680F4A04460521B0
:1053400068460AF04DF863680C495B6806460B2214
:1053500028460AF099FA63683246694628465B682F
:105360000AF092FA636806495B681B2228460AF035
:105370008BFA02B070BD00BF52390100323D01000E
:10538000163D0100084A10B50123084C13600021A6
:10539000A04204D801B11360054B186010BD40084D
:1053A0005B000121F4E700BFC409002040420F0068
:1053B000C0090020014B01221A707047930F002092
:1053C000024B034801221A700AF0C8BB940F002058
:1053D000FC3201000148FFF7A9BF00BFFC32010009
:1053E00010B508460C460AF0B2F9054821460F22CE
:1053F000FFF70EFF2046BDE810400AF0D7B900BF06
:10540000FC320100054B1B781BB141F288300CF0D7
:105410002FBFA420002108F0E7B800BF940F0020A0
:105420002DE9F84FDFF89490DFF894A080460F46FE
:105430000424CB4699F80050CDB94FF0FF334FF01C
:10544000FF32504606F0BCFF3A464146284606F079
:105450005DFB0646504607F08BF8174DFEB1012361
:105460002B709BF800306BB93846BDE8F88F3A4690
:105470004146002006F04AFB0646EEE75CB92C7078
:105480004FF0FF34002006F0C1FB0028ECD02B7851
:10549000002BF3D1E8E7013CFFF7B4FFF2E72B78EC
:1054A00013B1013C04D12C702B78002BC2D1DBE767
:1054B000FFF7A8FFF8E700BF930F0020940F00202C
:1054C000C803002008B504480CF0A5FE034B0020DB
:1054D000C3E9003308BD00BFE4090020DC09002057
:1054E000F8B50746FBF7AEFF0646124D12484FF0DF
:1054F000FF324FF0FF3306F063FF2C68AC420ED151
:1055000000240D4807F034F82046F8BDA068FBF7EA
:1055100099FFB04206D06B689C42F1D02468002C01
:10552000F4D1EDE7A168324638460DF02DF8002899
:10553000F1D1E6E7DC090020E409002038B5054692
:1055400017484FF0FF324FF0FF3306F039FF0DB12F
:10555000A86880B91349144B1448C91AC9088901AD
:1055600041F001010AF022F86FF015040C4806F032
:10557000FFFF204638BDFFF7B3FF044640B109499D
:10558000094B0B48C91AC908890141F00101E9E733
:10559000084B5A68C5E9003215605D60E6E700BF58
:1055A000E4090020B4300100A43001004E3D0100A8
:1055B000673D0100DC0900202DE9F84305464FF066
:1055C0002003EFF3118683F31288BFF36F8F1E4819
:1055D00006F0A8FE40B91D491D48812209F0F3FEDE
:1055E0001A48812109F0B4FF174806F0B9FE194B9B
:1055F0001C68002C38BF00249CB1174FDFF85C807A
:105600004FF00C09D4E90132002D08BF13462BB12D
:1056100098F8142009FB02F2B85C98472468002C23
:10562000F0D1094806F08CFE40B908490848AC2280
:1056300009F0C9FE0548AC2109F08AFF86F31188FC
:10564000BFF36F8FBDE8F883F8090020713B0100BC
:1056500004390100FC090020080A0020200C002069
:1056600000F01F0301229A400A4BBFF35B8F4009F1
:1056700003EB800050E8003F43EA020140E8001CD1
:10568000BCF1000FF6D1BFF35B8F1A4214BF0120AB
:1056900000207047140A002030B51D4B1D7DBFF35C
:1056A0005B8F05F01F0301229A401A4B690985B0F0
:1056B000D04303EB810353E8001F01EA000443E8F1
:1056C000004CBCF1000FF6D1BFF35B8F114217D035
:1056D000114C0C2202FB054207CA01AB83E807000C
:1056E0000E4A7AB193E807000AF0CDFA0020FFF7DE
:1056F00063FF0C236B430022E118E250C1E9012251
:1057000005B030BD82F31188BFF36F8FEEE700BFA5
:10571000200C0020040A0020080A002087FC00005A
:105720002DE9F041374BDFF8F4801C7D88B0074647
:105730002046FFF795FF60B96E463A46214630464F
:105740000AF075FA96E807000C2505FB048585E844
:1057500007000C23634308EB030218F803006509F4
:1057600004F01F06C8B37B1C0FD0D2F808E026480F
:10577000264A4FF4004C00210023ECFB0E01FBF7FE
:105780009FFC0121381A08F08FF907F003F9012076
:10579000FFF712FFBFF35B8F1D4B0122B24003EBFB
:1057A000850353E8001F114343E800100028F8D197
:1057B000BFF35B8F0C2303FB048494E8070005AB65
:1057C00083E80700134A1AB193E807000AF048FA81
:1057D000FFF762FF07F014FD01200F4ABFF35B8F54
:1057E0000123B340DB4302EB850555E8002F1A4047
:1057F00045E800210029F8D1BFF35B8F08B0BDE870
:10580000F08100BF200C00203F420F0040420F00FB
:10581000040A002061FC0000140A0020080A00208D
:10582000014910220A60704710ED00E072B6404056
:1058300080F31188BFF36F8FBFF34F8F30BF62B615
:10584000BFF36F8F704700BF72B6494081F3118874
:1058500020BF80F3118862B6704700BF73B506465B
:105860000C4601B3134B144D1448ED1AED08AD016D
:1058700045F00105ADF80050D1E90123096809F0B0
:10588000CFFEADF80050D4E90423E1680C4809F0DC
:10589000C7FEE1690B482A4609F095FEA1690A484E
:1058A0002A4609F090FE2146304602B0BDE870401D
:1058B00006F008BAA4300100DC300100933D01007D
:1058C000C23D0100F13D0100003E010043B2002B4A
:1058D00008DB012200F01F0002FA00F05B09024A17
:1058E00042F82300704700BF00E100E043B2002B04
:1058F0000DDB01225B0900F01F0002FA00F02033EB
:10590000034A42F82300BFF34F8FBFF36F8F7047F6
:1059100000E100E0054B420900F01F0053F822208F
:10592000012303FA00F01040704700BF00E100E0DF
:1059300038B54C1C072C054608D90E490E4859228B
:1059400009F041FD0B48592109F002FE6BB2002B12
:10595000ACBF03F16043094B4FEA4414B8BF05F0F4
:105960000F05E4B2AABF03F561435C5583F8004319
:1059700038BD00BF2E3E01000439010014ED00E0E7
:1059800008B572B6044B9A691AB100229A610CF0FC
:105990003BFC62B608BD00BF200C002030BFFFF703
:1059A000FDBF00BF0B4A08B50B4B22F07F029A6087
:1059B000BFF34F8FBFF36F8FD3F8882022F47002AC
:1059C000C3F8882006F032FA07F0D8FE00F05CFB3E
:1059D00006F036FA0000000000ED00E0094A0A492E
:1059E000936809689967094958674B6843F0805381
:1059F0004B60002383F31188BFF36F8F9368986F18
:105A0000704700BF200C0020DC34010000ED00E0F6
:105A100012498A684FF030001044EFF3098C80E897
:105A2000F01F202080F31288BFF36F8F0C4F4FF0D0
:105A30000066CA698A603E60506F0023536780F336
:105A4000118804B5104600F0B5FBBDE8044002F132
:105A5000300090E8F01F8CF309887047200C00207C
:105A600004ED00E01EF0040F0CBFEFF30880EFF32D
:105A70000980816911F8021C0229FFD001B50AF0E2
:105A8000DBF801BD42F8203C009B42F81C3C0A496F
:105A9000019B42F8183C029B42F8143C21F00101A2
:105AA0004FF0807342F8043C42F8081C0023203A6F
:105AB00002654367704700BFA3F400000B4A03462A
:105AC000906890B113F1160F406E05D0A0F120023E
:105AD0009A4206D8834204D281422CBF0021012180
